:100000000C9488360C94A5360C94A5360C94A53621
:100010000C94A5360C94A5360C94A5360C94A536F4
:100020000C94A5360C94A5360C94A5360C94A736E2
:100030000C94A5360C94A5360C94A5360C94A536D4
:100040000C94A7380C94A5360C94A5360C94A536C0
:100050000C94A5360C94A5360C94A5360C94A536B4
:100060000C94A5360C94A536807F7F7F7F7F7E7EA3
:100070007E7E7E7E7D7E7E7E7E7D7E7E7E7E7C7CA6
:100080007D7E7D7D7E7C7B7D7D7B7B7C7C7E8672A8
:10009000788C97867F68617A9A897182A0B5967606
:1000A0006F777B6D563D39393541586A727A889C35
:1000B000B2C3CAD3D8D8D7CCBCA98E77665342383E
:1000C00028232938434F63758192A3A5A8B5BEB6EE
:1000D000ABA7937D7E7E7057564B465E72665B7013
:1000E0008CA0A5988E8F9CA3958171665C5B5D5EEC
:1000F00064676F7276848A8B91989F9D968C8785B2
:100100007E7169635C5D60646F777A8592989B9C71
:100110009D979A9C8578867D5F62624146626451B4
:10012000566B828A8584909EA0A5A5948A8D8C802A
:100130007A7A7673767C7A7D7F7680999E888584BC
:100140006C738B785058717A746B6B7888959A8B36
:100150008DA1AB9B9C92747D8F815B5B707D786978
:1001600065707A7D82827C7C7B76777E80766F7A02
:100170008483818E989D999C9E9C9A9C957C70749A
:1001800078634746585E6161576580908E978F8788
:100190009BB1A27C8194A3938169627181745E5D3D
:1001A000494D6C88765F6E90A8A3979498A6A69602
:1001B0008F8D7F74724E4D6F714F49647F898A8E27
:1001C00099A89FA2B2B49B927D5A6A7B653D41601B
:1001D000767971718196A29F9A93948D8B917E66A8
:1001E0006A726C5B555F6E787D888F9097A5ADA81D
:1001F000A79F928E8E87756D676867605F666A6974
:10020000737C80879698868997978277777E7B72B2
:10021000636C7B818186827B8AA2A38A8A9DA9A343
:1002200092827D79736E655A56585B5E6C76777BE9
:10023000879197989A9A9C9EA1978B82817C7D77D3
:1002400067666C716E6E747F8189969A929B988AAC
:1002500095AA9A7E866A577081573F5C808F7D761B
:100260007E84919F968E99987F7B898F7E696B7A29
:100270007D77808C8688938B8FACAE8E8E7F6170FD
:1002800088603A53768B857D6B799EBAACABA17D45
:1002900085A59B6258718B826B5D64777C7A8581C2
:1002A0007C879A8E8491968978788080817D7E86FD
:1002B0008E8A8F9D978A8E9B907E7C7A786D6D74E6
:1002C00069516488816D89846F82A39D747995A733
:1002D000A2908183898684836D556E8C8373816B34
:1002E0006783A3896B84A4B8B58D7891AE9B8E8605
:1002F0005143687F564158778289808198B7B1A76A
:10030000B69989A0AE7C5D728B7C625354616F7824
:10031000807E7A87979D9DAAA79290989782727304
:100320007A7B766F7576767B8A8B84878F8B8B8FC3
:10033000908A848785807B7A7E8078797F7E838EA1
:10034000897E7F8C8B7D76777C8984646A8B8E7FB7
:10035000919570799CAD84758BA3A38F7E7F7F78F8
:100360007A7C716566686D787C7C7C848F989593C7
:10037000979EA0998E8682807B7B756B6C70737064
:1003800070777E888E8F918E919B9E977C778E90D2
:100390007D846C50658D825155759F9B84868C8DB4
:1003A0009AB09D7F7E8F8E7B75777374757D7A6C26
:1003B00076858F8D82899B9993A37A58779D7E4706
:1003C000547D92867D717286ACB295958A717F9BC1
:1003D000915C58778B8B6E546A81878E9482778775
:1003E0009B92827B7D7F7C7A7772727A85888C92F1
:1003F0008D8C959B9389857E7C74736F5654747B2A
:10040000677883656F93AA85768BA2A795817F878E
:10041000887C757969586B887F718778657AA29531
:1004200068799DA68F918D8590906769847C5053E3
:100430006F84816E6C80897C8CA397899C8C728779
:10044000A38A5C657F8C7A6865727C87867C7F87EF
:100450008587958C787C8784767475757D827F7BA3
:100460007E8285888686847F7D817F78747879779F
:100470007A7F8079798386828B8F837A858A827569
:100480007076836E5B738C7C6F83706E8BA87D5EE1
:10049000799FAD8E75758489857A6F696F70717873
:1004A000797372808A8784878C8D8E8C8581817E1A
:1004B000787877716F747472777B7F808184888A93
:1004C00084888D847F847D727F896B5877937A6B63
:1004D0008276647A977F617191A3907E818D8E89F7
:1004E000827E7A7B7978737171767673757C7E7E85
:1004F0007B909885889A7E67819C7C606F81897CDF
:1005000076787B808C8A6D6788977974846A617E3F
:10051000927B677590A293828A95938E8983777078
:100520006E6D6C63626D6C66778781859CA498980C
:10053000A1A09086817D7A694E55736C5A716E5771
:100540006B949F7D7F99B4B1A09393918C887D60CB
:10055000576E6C5A67634759849377747F9DBEB01A
:1005600099A6928297A97F55677C806D5D5E666BC8
:1005700073797B7E7A7993A18F908B6E75949D6D44
:10058000627F9994857A7D8B86787F7A686B786FA5
:1005900064686F7477787C868D9198A1A19B9A99F5
:1005A000968F83797168645D5759605E62707B7F56
:1005B000899595979FA8A3968F938372818063678F
:1005C0006649578287575E85A3A09794929799951D
:1005D00089796C6E726D66676C6F76828184909992
:1005E00097979896958E857F76706E69615F656D39
:1005F0006F747E858A8D9398969494928D837A7C7D
:100600007B756D6F7475768277627E9C867B987A37
:100610005E80A5865F6E8C9E98827889938E8A878D
:100620007C7A777175716166735E5E85907687A05E
:10063000827B9FB28D8196A9A5937D7B7E77746C1A
:100640005D5B625D616D5A5B808F7F93A07D82A947
:10065000C8977A90B0B3988277756F665D544D52A3
:10066000555C6B78757D8E98A1AFADA2A8AAA397B3
:100670008A867B606D75585061423D688972617CE5
:100680009FB6B4A6A1ADB3988E9B82666A4E3958C8
:1006900074593D5988A18B8F978D99BFBA8F8795D3
:1006A0009D95836B686E6A636B6B5E5E73828180FF
:1006B000827C839DA18A9089747EA1A27374899F94
:1006C0009C8A716C787F6D626762565D6E72717321
:1006D0007F8C959DA3A3A4A9ADAA9C938D83756DD2
:1006E00068574E5556505A686C717D8B959A9D97F8
:1006F0009BAFB09B9E8D66719385575A72827D70B9
:100700006D717681847B78807B757D827D7D838130
:10071000818B928F9093928E8F90867E7B7A746875
:1007200064666660636A70767E838B9191969C9F07
:100730009B948F8F857A7A746B65696A6C7073711C
:1007400079838B8E96847C96A2807C806260828383
:1007500065677A8E969188919C9991938978726950
:100760005C5E5E49507270617A8A7D83A5B4A2A0F6
:10077000ADB6B2A3918C87776B6251494F4F4D5202
:100780005A637585817F96B4AAA0A8988C9CA78C83
:10079000787982887966666B69686C6861656D6E68
:1007A000727C81848E9697989DA5A79C8A8F9C8B3E
:1007B000717767485670634D5E7683858B939D9FF6
:1007C000999BAD9B8185755764725C5969717B8C6F
:1007D0007C758DAAA19299A09E95877E7A7671717B
:1007E0006A5C5C69726E707781858D8D8B9AA2963A
:1007F00094967F768B8D716C798280767274777720
:100800007B7C756D707A7D78767983888C8E8F93FA
:10081000999C9A98948E87827E766B6662616567F2
:1008200061667179808485889AA59A969E8C80915C
:100830009680777C82827A727274747473726D702F
:10084000787A76777F8687878C93999A9A9A979207
:10085000908F857D7A766E6564656362656B72776D
:100860007D838A9195989B9E9E9992908A837B76B0
:10087000706B6A696A6F71717881878D908E9194BF
:100880008D8C9285798379626F867969778A908F6A
:100890008D8D9295928E877B76756D656D6D5D629F
:1008A0007F847986918B8FA7AB98949BA29C8D8037
:1008B0007E7C726D6D645E6268686D76797E838819
:1008C000979F9394A19487959C8477848D86787361
:1008D00075757474726C6B7275747A8282828C9581
:1008E0009697989396A0968A8C7E6E777D6C626AB6
:1008F00071757675788086888C8E8F8A858F9484C2
:100900008186726F8B8F767983848A948A7E848CB9
:100910008E8C8075787C7670747670717E84838618
:100920008C8C93A09A93988E838B907F72767C7A2E
:1009300077726E737B7B7A7F807F838A8B8B8A8CC6
:100940008F908E8C8D8A878784807E7C787778776D
:100950007473757B7D7B7E8889878B929190939051
:10096000878D94857D837A6E79837A717682888586
:10097000818588878A89827E7F7C7B7A77777C7F76
:100980007F8185898B8E91918F8C8C8B86817F7CEA
:10099000777676767575787D8182868C8E8E90914D
:1009A000928F8B89857F7D7D7872757876757A7E5A
:1009B0007C7E8486868B8D89828A90847F868179ED
:1009C0007F827C7A7F85878583858A8988888882EB
:1009D0007F80807C7A7C7D7B7D807E818B88848A11
:1009E000897F8189847A7C81817B7A7A7C7F81810D
:1009F0008586858786898F8A8588857B7F857C76B5
:100A00007C7E7E7D7A777D82817E808281828384F6
:100A100083868785848587868488887F81857C789E
:100A20007E7C7475797A78787A7D81848687888AE5
:100A30008D8D8E8E8D8B898988827E817F7C7B785F
:100A4000747375767575757A807F7E7E83858586ED
:100A500087868584888B85858B867E848A8581843C
:100A6000868582818181807E80807C7B7E7F7D7F88
:100A700081808082828281807E7E7D7A78767575A3
:100A80007674747677797B7F8082878A8B8D8F915D
:100A9000929394918F8E8D8A8683817C777A7A71F6
:100AA0006F74726D70757571757C7E7C7C7F8082D1
:100AB00084848383848484858586878786878888E1
:100AC000878685848382807E7C7C7C7B7B7A787938
:100AD0007A7A7A7B7B7A7C7D7C7C7C7B7B7C7D7D5F
:100AE0007A7A7D7F7E7F7F818385858585868887ED
:100AF000878887848686838180807F7D7C7B7A79E6
:100B0000787878787777797878797A797A7C7D7D52
:100B10007D7E8182828384848587868385878483A2
:100B20008483807F7F7E7D7D7B7B7C7B797B7D7BEF
:100B3000797B7B7B7B7C7B7B7B7C7C7C7C7C7C7DFE
:100B40007F7F7E7E8182828282838385838283838C
:100B5000818283817F80807F7F7F7E7D7C7D7C7CA6
:100B60007B7A7A7A7A7979797979797A7A7A7C7CE6
:100B70007D7F807F8082828284848283858381835B
:100B8000838181807F7F7F7E7D7E7E7E7D7C7C7D7C
:100B90007D7C7B7B7C7C7C7C7B7A7B7C7C7B7B7C9C
:100BA0007D7F7F7E7F808182828282838282838238
:100BB000807F808180807F7D7E80807F7E7D7F7F43
:100BC0007F7D7C7C7D7D7C7A7A7C7C7C7C7C7D7E60
:100BD0007E7E7E7E7F80807F7E7E7F8080807F7E27
:100BE00080808180807F7F7F7F7E7E7D7C7C7D7C1E
:100BF0007C7B7C7C7C7D7D7D7D7E7E7E7D7D7E7E26
:100C00007D7D7D7D7C7D7E7D7C7D7D7D7D7D7D7D15
:100C10007E7D7D7D7E7E7D7D7D7C7E7D7E7C7E7D00
:100C20007C7E7D7D7D7E7D7D7C7D7C7C7C7D7C7DF8
:100C30007D7D7D7E7C7C7E7E7C7C7D7F7D7C7D7DE4
:100C40007E7D7E7E7E7D7D7E7E7D7E7D7E7D7F7FC8
:100C50007D7D7D7E7E7D7E7D7E7E7E7F7D7E7F7FB7
:100C60007F7E7F7F7E7F7F7E7E7D7F7E7E7D7F7DA0
:100C70007F7F7E7F7E7F807F817E7F7F7F7F7E8084
:100C80007F7F7E7E7D7D7E7E7C7E7E807F7F7F807F
:100C90007E80817F81817E7F80807E7E7E807D7F61
:100CA000807F7E7F7F7E807D817F80827E8181804C
:100CB000827E817F7F7F7F7C7E7F7E7F7E7E7F8145
:100CC000807F817F837F7F837E7F837F80807F8122
:100CD000807E817E7F7E81807E7F807F817F837F1B
:100CE00080817E7E817D7E807F807F81827D81820A
:100CF0007F837E83827E81827E807E827C80807CF8
:100D000082827E82827E858082837E8384828381CA
:100D1000827D817E817C7F837D827F8482817F85CD
:100D2000808480818184827E8087827E82817D82B0
:100D300083827E81807D7F8481837A8480827F80AC
:100D4000827F857B8780877F8382867A8380857D8B
:100D50008084817F81827E808183847D8182828084
:100D600083817F7F7988808579897C8276887E817E
:100D7000817A89797A8A7F73956D8E7A7F8789786F
:100D80008483808E77888284858382827D84748543
:100D90007F83827D8083827D848578898088788541
:100DA00081818381867D7E8188718C7A8C76838433
:100DB0007F906C8B828A7A7E8384867B877D7C8918
:100DC0007C887C857E877B858583748686758E7915
:100DD0007D8E717F8C73867B88838279837D84800E
:100DE0007F867E867D80827F81817F7C827E807F00
:100DF0007F82838183867D817E867E8677818F75E3
:100E00008283887A8B748787757C8C79857E8281D2
:100E10007C877883887D838C778E7080867F827FC5
:100E2000828681807F8280837C8B7782837F7F80B4
:100E3000838180837D7F83818281807E827A8A7FA5
:100E40008481887E817F808583837D86748183848D
:100E500079877C8282758A7F827F7E83818083838B
:100E60007E857E7C828483807A81837C847B7F8282
:100E70007486837B808482847E827D82817D8A7970
:100E80008376827D81857D8679857B887D81867E5E
:100E9000867F847E81837B827F7F7D89777D837D52
:100EA00083867D83817E8280847D89778773837941
:100EB00081758A82738F71917C828686748388851E
:100EC00084817D7F7F7C868280807782838082821E
:100ED0007E827E828182817C817B837F83817B8411
:100EE0007B837D8376867A877E7D8C7C8A73887F00
:100EF000797C8A87867B787E7D828483857D7C7CF5
:100F0000828186857380856B8E797F8A6B838879F1
:100F10007D847F8B7D7E7F7C887E857E817F817CCA
:100F2000867780837A857E7E867B82857C80817EC3
:100F3000838180797F7D86826B85896593788292B3
:100F400066878B7782828690787B7E7988759077AA
:100F50007E8377888073917B7E83848C8079818285
:100F60007E7F838083787D807E7F837F7E817D808E
:100F7000808280817B817E80837E81827D8779856E
:100F8000847A867D80847D847B7C7F857A7F827B6A
:100F9000807C82847E7C8081808179807D80817864
:100FA0008880738972877E75847E7A857D86827B50
:100FB0008179858083857D837B7C837F7F807E7C38
:100FC00085787E8177887D8283817C867C8781831A
:100FD0007D8083827C857B7D827C867D7D88788216
:100FE000837C877E7F83807D857F818183847083FE
:100FF0008C6C8E78828875828B7E7B857E897A7DEB
:10100000827E8181857F7F7F7F8080837F7F8081DB
:1010100079807E7E807F8082808181807D828677DC
:101020007B9172778A83808575848B6F84858677C0
:101030007B837E8C7885828182827F7E827D8572B1
:101040008C7F758E718E7C6D8A837D7F8284887C97
:10105000818081848283827B827C8282817C808386
:101060007E818080807D8681778B7D80858386767A
:10107000798B768B797C906E8288728C7D778E806E
:101080007E7F848B8378867E7784798B7B7B847E5E
:10109000807D8880827F8478828C79847C807A814C
:1010A00080817C847E7F7B8677837E82807C857D49
:1010B0008182837E85837D817F80817C897E7D8521
:1010C0007B877886847E827A887E817E8081808517
:1010D0007F7E807F76878674897789827588857818
:1010E000867786837A7C7C808482848976837C83FD
:1010F000857D887B858079887B877C82827C8185E1
:1011000077857F847B827E82837E867E867C857FD8
:10111000857B827C837F7E857D8771867A81877ED1
:10112000877D887E838085837E8D73748F788486A7
:101130007891777C88867A7C8A81867984787E82A9
:101140008680837A8380818382817E847D7F837E93
:10115000867D8280827F867D7A8A7E8284778D7D7D
:101160007C877C8480828A7B887E7885848677846D
:101170008581807F83827F867981857B897C858755
:101180007387847F7A84868282808182818584804D
:10119000827F8081837F858280847F82818180833A
:1011A00081838381807D867E83807D898080878125
:1011B0007A867F86827B86817D86877B8084838218
:1011C0007F7F877E8184847E7F857F838080847E0D
:1011D000838182827E818084818180817F818281FE
:1011E00081808181817F82808381818081808081F3
:1011F00080808380818181808281818181818180E1
:10120000818381828080807F7F81808081818181D4
:1012100080818180808081808080808180808080CA
:1012200080808080818181808080818180818080B8
:1012300081808080808080818080808081808080AB
:10124000808080808080808080808080818080809D
:10125000808080808080808080808080808080808E
:10126000808080808080808080808080808080807E
:101270008080808080808080808080807F8080806F
:10128000808080808080808080808080808080805E
:10129000808080808080808080808080808080804E
:1012A00080808080808080808080808080807F803F
:1012B0008080807F808080807F7F7F8080807F8033
:1012C00080808080807F7F8080807F80807F807F23
:1012D000807F807F7F807F7F7F7F7F807F7F7F7F1A
:1012E0007F7F7F7F7F7F7F7F7F7F7F7F7F7F7F7F0E
:1012F0007F7F7F7F7F7F7F7F7F7F7F7F7F7F7F7FFE
:101300007F7F7F7F7F7F7F7F7F7F7F7F7F7F7F7FED
:101310007F7F7F7F7F7F7F7F7F7F7F7F7F7E7F7FDE
:101320007F7F7F7F7F7F7F7F7F7F7F7F7F7F7F7FCD
:101330007F7F7F7F7F7E7E7E7E7E7E7E7E7E7E7EC8
:101340007E7E7E7E7E7E7E7E7E7E7E7E7E7E7E7EBD
:101350007E7E7E7E7E7E7E7E7E7F7F7F7F7E7E7EA9
:101360007E7E7E7E7E7E7E7E7F7E7F7E7E7E7E7E9B
:101370007E7E7E7E7E7E7E7E7E7E7E7E7E7E7E7E8D
:101380007E7E7E7E7E7E7E7E7E7E7E7E7E7E7E7E7D
:101390007E7E7E7E7E7E7E7E7E7E7E7E7E7E7E7E6D
:1013A0007E7E7E7E7E7E7E7E7E7E7E7E7E7E7E7E5D
:1013B0007E7E7E7E7E7E7E7E7E7E7E7E7E7E7E7E4D
:1013C0007E7E7E7E7E7E7E7E7E7E7E7E7E7E7E7E3D
:1013D0007E7E7E7E7E7E7E7E7E7E7E7E7E7E7E7E2D
:1013E0007E7E7E7E7E7E7E7E7E7F7F7F7F7F7F7F16
:1013F0007F7F7F7F7F7F7F7F7F7F7F7F7F7F7F7FFD
:101400007F7F7F7F7F7F7F7F7F7F7F7F7F7F7F7FEC
:101410007F7F7F7F7F7F7F7F7F7F7F7F7F7F7F7FDC
:101420007F7F7F7F7F7F7F7F7F7F7F7F7F7F7F7FCC
:101430007F7F7F7F7F8080807F7F7F7F7F7F7F80B8
:101440007F7F7F7F7F7F7F7F7F7F7F7F7F7F7F7FAC
:10145000807F7F7F7F7F7F7F7F7F7F7F7F7F7F7F9B
:101460007F7F7F7F7F7F7F7F7F7F7F7F7F7F7F7F8C
:101470007F7F7F7F7F80807F807F7F80807F808075
:10148000808080808080808080808080808080805C
:10149000808080808080808080808080808080804C
:1014A000808080808080808080808080808080803C
:1014B000808080808080808080808080808080802C
:1014C000808080808080808080808080808081801B
:1014D0008080808080808081808081818080818107
:1014E00081818181818181818181818181818181EC
:1014F00081818181818181818181818181818181DC
:1015000081828181828282828281828182818182C2
:1015100082818181818181808181808082838182B9
:1015200082818081818181828182818284838280A3
:10153000818181808182828382828283848382808E
:1015400082837F8081818181818481828483828082
:1015500082848080857F7F828481808284827D7F77
:10156000807F7C82827E8283807E8084838382846B
:10157000838580808181807C8080828282807E845D
:10158000827D7F838382838381827D82827D817C51
:101590008086817D828185867E7C8284817F7E7E3D
:1015A0007F807E7B81838683837D8283827D7C8036
:1015B000817E80837C80867C72848787838582831A
:1015C00077807D7B82857D7E81827A7E7D7985852F
:1015D000847E7E887F7C827A7B817F7B7D7E847E19
:1015E000837A8087897E7E84807B847D727E8385FA
:1015F000857D77857C777B7179827B778782808315
:1016000082857B768784758494807A8D82717A81D5
:1016100075797D7B747E8574768A8175858C7D78FD
:1016200087857E857F7E78797C798573788C8B75CC
:10163000798E837180796B687C7D808A8C8F8B84B6
:1016400075818A6F6986836B7C87747C7F848A7AD4
:1016500085867C7B79777D94858A8B877C7D6F7688
:101660007E7C8F948283877A6D737677737A7C6CB5
:101670006B6C71797A94A59D8D978D89867D818714
:1016800085827F6B7871677A89848B8B78797566B0
:101690006A797B868B8C8F707A93938E968D8E8CE5
:1016A0008177737575727F777B82816A70847481AC
:1016B0009D9C8CA49E817D806E6B6C75706D778017
:1016C0008572799585738F96938C948E8C7E766ACD
:1016D0007A7F7590767789907F72838D6C6E87762E
:1016E00072697F84879192867C6F7F7469879EA7D9
:1016F000A296976B5F7F85878588957D766A6973EB
:1017000074808E74868173818093848087928180B7
:1017100088918D898D9372697C71677B81859082B8
:10172000958B728A8866788985727C8D98897D759B
:1017300087857E8C86898E7F747B6E747389908C8E
:101740009288928A7C7D7B6F6A807D7B795C6E79E2
:101750007D7A7D96AB969DA69A8A78817460625355
:101760006875857B809895999593827B879687800D
:101770006A66647A666C8197948C828C96858D8A71
:1017800068585E68869D949BAB8C83757585918443
:101790008F8063575A70828694B0A295847A655F71
:1017A0007B7A877B707E858C857E8B928F89A49CCB
:1017B000888D8D654C627881838F8B8D8A736C8662
:1017C0008B898C936C54708C7F7B95A99C978A7CB9
:1017D00074637C7E7D676D818677758FAAA49E9BDE
:1017E0009A817D7E8872716C6D55506E7D7E93AC52
:1017F000AE978D69605F5F74869F9F908B717082DA
:1018000098AEAFB9AC74494263717B8498865C5CD6
:1018100068636A84AFB6918D7F8571788E958C8C64
:10182000968D8379696C4A5576929E949DA38C8798
:101830007E7473939B83613A4255667A8DADB5A5EC
:10184000AC988090A8A3828266512F384E57768B31
:10185000B6C9B8B3A2785F757F726A828063657219
:10186000838093A8B5A1897B6753507378858A904C
:101870007F77818781909A99967E756D626E8A9A3C
:101880009C958D583A474C617286A1A0999599967E
:101890009BA3AD8A6B6A5243547286828798918764
:1018A000879EA0807B74534E686B606E889F9CA35C
:1018B000A3A59B8A7D6A555E797C86849081877E0C
:1018C00073656C76808186897B707377727A959D5B
:1018D0008F908468617A88878187806C6D7E91871C
:1018E0008E9B7B48586D6E7F9EB8B69C815A4F5D2B
:1018F000718D92999E78626E626D82969A918074D3
:101900006F68727E8F8F9A9B868782746A79736103
:10191000707360637491A2A0B3A77862635F526D25
:101920008F978D948D6E728E9EA49FA78F5E5C3E66
:10193000334C70898E969F8C7A8486868F999C858D
:10194000785E5C707F85878D8370737E8289979ABD
:1019500084686C685A698092968A816A6F6B808805
:1019600090979AA48B7363523C5573808EA8B5AD43
:10197000A39D826E665F5B6D726063727A859098DC
:10198000ACAB9786725B636E7B8783835F49465EF1
:101990007593B4CDDACEB0774D4A535C7894A48F6A
:1019A000694429395B7E98B4CECAA77E6B5D6A799B
:1019B000929BA0976A525359688197AAAEA5906AE4
:1019C0005950606F7E84897B5A59616C7D90A8BDA7
:1019D000B7AA9081766F75807F6E705C58646D7960
:1019E000869097968F86837E828587817B746C66CE
:1019F000655E596F7884899DA8A0998371676B771C
:101A00007F898F8B806A655E6D7A889C9B907A68EF
:101A1000636F728184838782787E7A7E7E868D91E1
:101A2000857D8081827E8B8B80848B888882847C7C
:101A3000787B797E7576817B73654E485A6D85A07B
:101A4000B5BFB695706A718697B0BBAF89563E4BED
:101A50005C7996AEB39F683E334A6D8AA7B7B2846D
:101A600060606A8099B5C8BCA475514B5E7C99AD25
:101A7000A68C593F4A648295AAB8B4A2826B626C64
:101A80007D8B92866D5A5C687C80878F9D9F9E9B24
:101A9000928783817B7361626E7783949284828D57
:101AA00095918B84786F6F787B6A6559636D7884C4
:101AB00092A3A7A6A39894857883816B6467686DC9
:101AC0007C878E949DA08F7E7B726F7B856A4A484F
:101AD00052617588A0BAC8C4AD907D7F8C97957708
:101AE0004E4B575C5F74888B939DA7B2AC9881591D
:101AF0004B5A6471878783878888828295A4B1AEA8
:101B0000AA7C57565B667481827D74716B758CAA52
:101B1000BFBAAC71454565819AA7A78460585B6FD1
:101B200088A1A2AAAB9969575E666E84A3B5AB99EA
:101B30007C625E6A828B888E8A82745D5E73879215
:101B40009CA8A3897679776E778C9B917A6B666671
:101B50007388929A99847F7B7886969B8A6D6C7C39
:101B60008B908C7C75747B73645B616C7E919A9AAC
:101B70009EA0A49A8B7D7E849AA38E634C575F624D
:101B8000676B6C74889EADABA2A08D74575A6D853F
:101B90009CAEA4674A55738FADC0C092563A405967
:101BA0006D8BB0C4AF744F5A708BA9C0B594816E61
:101BB0005C515F6874828D968D8688847B6C738798
:101BC0009EAAADA082788394A2967A4D34435B732B
:101BD000756F7681939FA6ADABA0A0A7A28B6D5A1F
:101BE0004B464D5761758BA4B4A797989E9D9788D7
:101BF000644D506775788B9BA0917C6F6C747C8969
:101C00007C62637886979691919099A8B1A2855E3F
:101C100044424E60728493886E687C96AFB891633C
:101C2000495D7293ACB5A38A787381918F6D4A44F4
:101C300053617994ABA285747A8AA0B4B5986D5A31
:101C40005969747776797F8C8F8D8581807D7575E4
:101C5000797F7F7D7D848E91989E92775E5C656EA4
:101C6000757A797F8D929086838F9695908D836813
:101C700050535E7790A19E8A7E7A8082827E7274B3
:101C8000858F95988B79727F8A86715B4E53687FBA
:101C900094A6A9A486768091979F9C825F5A697CBE
:101CA0008B86796C71869EA89067484B65819DAA4A
:101CB0009F8E8C899AA2A88F7C6F615F565D6E7E25
:101CC0007D777A92A8AF997E7F8594937D696A6DBE
:101CD000636C89999C90836F5F6168778493ABA8EC
:101CE0009C90857F7A858B816146434F647A8EA074
:101CF000B4BFC2B0865C57616B6F72757473899B99
:101D0000A7A4A585655E5764677A848F9DACB1A250
:101D10008B75635E5E7273634C567089A5BDC4ABF0
:101D20007E6B5E626765738595A8B5B19E907759A5
:101D300056635C4D4F63788EA6B4BCAD9E76564E0E
:101D40005F75807E7A818B857A83929D9281776B95
:101D5000605B6277899996938F8C8A857B7D888E6C
:101D600075585E6A79777E869594867D829197858F
:101D700079706678806F6D828D8F8B80767A756BC7
:101D8000768D9F9C83706461627181939B9C8B7D37
:101D9000798284747582897B6B636D7E7876819895
:101DA0009681837D768092929A9E84655B4E5D6F6C
:101DB000878B9195857B7A7C85939F9581817371C3
:101DC0007882827575736C69636A7B8C98A0A79C16
:101DD00076626E71687A8D92969688847A7487920C
:101DE0007D717B6B505A6B88A38E7A848E746D776D
:101DF0008999A8A07E6E7572727C809090806E6DBD
:101E0000655F6D888D9F98837D868B97979381669C
:101E10005A5B696D8183808A857A888E736B859120
:101E20008D97988D867F70667871706F6D70889BC6
:101E30008F89979A7E757585947559575E6D7487ED
:101E400097A0A29D82838F77768A7D777B6860706A
:101E5000828F9C97958F7D78867F7C7E877B6E6F47
:101E600062545E6F889FA8A1A390968E7E87947B14
:101E70005B595B6A8075758A8A7D85808CA1ACA769
:101E800085666A584E60848B8B98988B777B8C9292
:101E900097887D6E525A72788498959289686F8877
:101EA000A1A28A8B815C49546D859681909583921D
:101EB000877E897F7D745E6C89827D948D858B841D
:101EC000838A958B7D6A60665F69848C849099753E
:101ED0006F8A928D999B87726872826F6A707E8119
:101EE00074848F97A59580886F667E80747A7A7CDB
:101EF000717389A1AEA7735568787C8A96948172B4
:101F0000584E6A8A9CA9B8AB8D7A61607E8C888BAA
:101F10007757656F6F829E98928D7D8487889197A1
:101F20008C6B556179918A8B8B76565E718EA9A3E5
:101F3000A7927273727A81877D7D6E6B7084A0A781
:101F400096957B6A656F7D76606D78717C96A99DAC
:101F500098A29A91815F606D5E5D7083808296A782
:101F6000A294887F7B806B5D6F5F5D7781818B9DA5
:101F7000A7A09FA39E8E756B513440677D8AA39E58
:101F8000928B8F9AA3A292755E3E35567C8E8F9E61
:101F90008E899B9FAAAC8E653E476A777D8F93831F
:101FA0007F7F8B9FAFB6A6744842475E7A83928943
:101FB000818799A9A9A7977557414760768B958D19
:101FC0008C91A19D999E846F5C555D7584727C9205
:101FD0008D909EA39D917663586162607570728D3D
:101FE0009492A5B6B49E815A595D626A6A7C7D8ED0
:101FF0009DA7A5917885786E6C616E7A6B668198E5
:10200000A09D967670849B8C80785565758098A28B
:102010008C78707D838D9B8C765E4C617C99ACA8AE
:1020200077697C737F9BA97B635C57698BB6BB85A3
:102030005D687D909CB195695E68646970909982D5
:102040006D7E90A5A1A19269706A5465676F7C70DE
:102050007B90B0AE9C9E7C68817D51587169749074
:102060008D8B97B2B6A0896B614644545B798FA57E
:102070009690939EAAA788564056597270768D9F67
:10208000B2B2B5AB8B79593639575E6B76839EB158
:10209000BCC9C1A0765038415C7366668097A8B30E
:1020A000C3B9836E6B5963677060687E8C9BB1B7F0
:1020B000A789655C6458646C7A838093AAAEAE9CF1
:1020C0007259655F4B597782848BA79E959F9D744B
:1020D000565C58617B89909DA08D8A7765757A7270
:1020E0007279797A8F7B6B7C92796980898B939CEA
:1020F000A3897D77725A5567726E7E8F7D7E9EAA08
:102100008B868677696C6E6E7B8A898483909A93BE
:10211000727482695266717C868C9BA086869285D9
:10212000696A6B6C747C778497979972647F847208
:102130007C80847F71728E8F8282737686907B77AB
:10214000877D787A686B8287827B7287A7A4817E7D
:10215000847B63555E637F9C89798EA6957F6865D5
:10216000756A697EABA786838E8D86685B656F74A2
:10217000838894A3958568646E7B899087877E8227
:102180008D746171857368819595A491757664618C
:10219000817C74878D8A9FA389877D676773736E3F
:1021A000737D928E747595917D85817B87978C7CEC
:1021B00076656E7C7D7D8775758C8480869084695C
:1021C000607893927E828D9A88757179798A755B31
:1021D000667D8692917C7E888C8D867F8B796B75EF
:1021E00086857B7B7E6F6A7E94978C8086797476F9
:1021F00072758B7F7B8D958B93816F746B71908ED5
:102200007468758F95878F997C6E838D7B776C6AE8
:102210007B7871829C9487817282796677978F82AE
:1022200083888993957163718E8574767D8A8D8399
:102230007D6C728D9C96837E847461637381878CC0
:102240009DA99A96856B756B5A5E63717D909FA66A
:1022500094958D84827169818B766D7B897879867E
:102260008E918987848890886F5D5F6C818E82856E
:102270009095987D7383998D736D76888B8A74772A
:10228000837F7D89978172789799807F827C6B6F3D
:10229000818E8E867A808F7F818A73717F8B8C7F0F
:1022A000798A929295786B757B7A848386928D86F3
:1022B0008D78758978717C737894A698827E8778FA
:1022C0006F7D7E817D787F8A9884747891997C7106
:1022D0007F9598736A7E747287A39D8A75829072C7
:1022E000707D8189857B93937F8786716E727F8DE8
:1022F00075647B9F9E8C958A77837B6A76988B71B9
:102300006B7287A49A887E888D8A8B7765727669CE
:1023100072887B7992857E94B2B1907A88734B48AB
:102320006D8A8582848F9A9499A5896A6E6D63659A
:102330007D9D948195A38C7E80716C6B60787F7A93
:10234000909D9193A39B7F7D8673656A696F7B8562
:1023500090978B8B8E92939073636676716F7E9D50
:10236000A2957A7B838A8D7266788F756880A5992D
:102370008A92877C7C817F6C62727C7B849CA99131
:102380008894907E8C7F5B57565A6E919697A8A73B
:10239000A493898972687075686C80868F8E908826
:1023A000767D98826C7590867E8E947D72797F782A
:1023B0007A85737490956E74949E968D8A877D7FCE
:1023C000726867696F757A809DA09FA2928C836BFB
:1023D000636268696F7E84909AA294848F8768672D
:1023E0007E706E7E828686879183808984747E81EA
:1023F0006A718A8E7E84827E7C848C8774716F740D
:102400007E8A897E899D947A757A79767167788AD1
:10241000908C928C82827D757B695B6D898A8188C4
:10242000919889838575677A806F76787B8192929F
:1024300086878F967A6473786970837D79858B88B7
:102440008B90877A817B777771778281878E81798C
:1024500083837679838083848484767182857D7E8C
:102460006F70838A83878E8F878589725A6B7E7E91
:102470006C717B878A8C8C8D9D997F807C6964735D
:102480007B77636B7F8F978E848894928C7C747B30
:10249000766D6C676A8088838D918B8B9292876E44
:1024A000707F7166676A758A8A858E938A868F8542
:1024B00075777C82786A6E767F8886838C8F7E8241
:1024C0008B797582887968616C7A84837C7982954E
:1024D0009888848A8D8877595D727B75838A899301
:1024E0009987817F7C83806C676F7D857B7D919DE3
:1024F000947A6E78887F67687B8D86707085958901
:102500008186858581797F8278797D7D88886C6DEB
:102510007E89827B7C818B8D897F7C7F807C7868C3
:102520006E7F827B7D899088797C88866F697E8FBB
:1025300085787B8894897C7C80857E6C74848078A7
:102540007075858B817E878C847C7F857E73737BA1
:102550007E8075758C9A837984837F78727576779F
:102560007F888986868789877E7A77757C7F777969
:102570007F8087867C7E87857872757B7C827A797E
:10258000888C7E808785817D8284726B7B8B84764C
:102590007B8A93897C7E85837C767A847F71737E47
:1025A0007E7C7B8692897C7E80807A747981878428
:1025B0007A7F88847C7E7B7D8285827E7D81848417
:1025C0007E747A84837F83817F878E8073737D821C
:1025D0007870808989848180837E7B7B7E80808502
:1025E0008A81797D81847A798389827978828681EA
:1025F0007E818084887E7E7C797E7F79777D7F87EF
:102600008681848F8C827B7979757071757F8583E3
:102610007E888C88838583807F7B7F817A787E8BA0
:1026200084797B8A8A786D75838779757F858484C0
:1026300084838286817A7A79777A7A797F838587AB
:1026400083858586828386847E7D7B7B7D7E7A7A88
:102650007E7D7A7B817F7E818886838387867F7972
:10266000777D817E7B84847E7B79787B8084868580
:1026700084888C8A8483817B7372767E7F7E7F865A
:10268000867E7A7D8487848181848B887F7B7A783B
:1026900079787A8184837E7E82838184898886802A
:1026A0007D80827C7D7E807E7E81807F808284852D
:1026B0007B7B82867E7C848E8B817D7D7E7A7A8117
:1026C000807B7E868685898E827978797E818484F6
:1026D00084828081838483807F7E808181818484E1
:1026E0007D7B7D80858983808484827E7F82827CDD
:1026F0007A7D7C828583898C87827F7B7D807F7DCC
:102700008183827D7E8182847F7C7E8381808184BF
:102710008485827F8087857F7C7C7F817F7F817FAE
:1027200080828383858485827C777C818384828494
:102730008A8780807E7E80817C7C81837F7C818390
:1027400082838385868383878A84817C7C7F82825F
:102750007C797F8585817F807E7D8286878A898A54
:102760008982807B787C807C797E84878687898A51
:102770008785817A78777A7F818082838481868653
:10278000838484828286847D797D807F7B7983893E
:10279000867F8086898D85808083837E7C79757035
:1027A000757C7C7D7E838B91928E8D908D847975E6
:1027B00077726B747D7A767E8B908A8383878B8821
:1027C0008685817F817A74777A79797D7F7E80872B
:1027D00088858888857E7E838179747A81827D7AF6
:1027E000808787807D8388857F7B7A787B7B7D81EE
:1027F000837F80858584827C7D7D7A7D7F818785CE
:102800007E7B7A7D837E767D8382808082847F81D9
:102810007C79797C7C7E7F7F838283837F7F827DCE
:102820007B7B7C7D7F7D7E82817B7C8187877F7DBA
:10283000837D73767B838383828482827E7D817FA6
:102840007E79787E82808184827E807F7B7A7E7FA3
:10285000808083807A8084807D7E7E82817C7D8181
:102860008180817F81847F7B7C7E7E7C7C83837E74
:102870007D82817F7E817F82837E7A797C7F80806A
:102880007F84847A7A7B7B7D818182838280817C54
:102890007A80827C7F80817E797C7D7E82847D7F50
:1028A0007C787B84807A7B85857D7D7E8180807D40
:1028B0007D8286817D7C817D7A7C817C747D817A3C
:1028C000808B878281827B767E817E7B7E83797C12
:1028D000897E8186727D8B7D7C89797885817D83F7
:1028E000837E7D83847E7E867E7779817E817F83F1
:1028F00087837D80817680877E747A848179897EE2
:102900007A8A8085886B7A8D7B7687817981837BD3
:1029100083798289817F84817C7B7C797F75798BC7
:1029200080828D7D80907C78847B71817C778A74B5
:1029300077957A6F9585798E827687897381818084
:102940007E82817C858F7D7589786C83927374908B
:1029500087758C887886897D787D6A778379868685
:10296000848884868070808986777D7A827C8A7C60
:1029700075838A788C876A7A89827F8978758B8A51
:102980006D79888B72899278728B82698886758955
:102990007C768C7E7C8C83848A7D83767F837E8428
:1029A000777F8485729081697D956967937D759144
:1029B0009B7A89927788886D8A897C817D8A707BF1
:1029C0009B7B5D8A9A6F7B9D906B8792867E898ABE
:1029D000876F8679778D956B77977C6E92966E74FC
:1029E0009C8576948486878085856F6E8F8E7E9396
:1029F0008A7A867C67896F70999273929C7A8287B3
:102A00008E7A6589AD80778A797685728E946D71BC
:102A10009D86698D9D798CA86C59859C717597925E
:102A20006E6FA38A717A91916A97906D818B7E6B9C
:102A3000819F8372889575747E8F6F7B9792637A7E
:102A4000926D74948680778696776A7DAD75648F73
:102A500073668CAD8068958C648393746889957473
:102A60008B88888E787E797F7F7B91677087997756
:102A700066898A8196777B8C716F858C6B758F8563
:102A8000877F6D82938662908C647793876372965A
:102A90009C6C5E8E9E6A6A99805F8A9B767E8B8F25
:102AA00085766F74846A799681678D906175907A66
:102AB0007F9296765E789A775F7F9774659D9B6923
:102AC0006A8793799077788C78807F8C7A63759217
:102AD0008964729B836975A68C4E6E9F875A959800
:102AE000646F988D7D8C83728388797D89757580FC
:102AF00097785A73A1835E81A1746F908C808989C5
:102B0000807E7D746D897B7E7F7E8D826188856607
:102B10006E938E6D7B90947362898378898D6F6ECE
:102B20008889677B97766D90817A8B747D8C7162D2
:102B30008B9A776980957B5F819C6B6A977E6186B3
:102B40009F776F8978688892787991885E6D937E97
:102B500069828E6A69919D6D6D939B695C8B8C6CAB
:102B600076978A6A6C8A72658D94747E8A79778288
:102B7000888664568B8F6A84997677968773788C6B
:102B80008776727B796E857D6988966A6B8C7A7A96
:102B90008D8B6C738B89786A7E8F806D708B6E7372
:102BA000918D6A7597836279927E68848D706E9735
:102BB0009161729C9058808C64699C9465779A9519
:102BC00069838082818084816778987F64808D7139
:102BD000907F6F85997480886C6B99866C839389DC
:102BE0007B777F777A82906E55849A6C749B957E02
:102BF000858C7F7369788E6F6997996E6588936EFF
:102C00007A9391657A9A896787827A76907A6F84C7
:102C1000987F6585887968978B6F798D7A809380A6
:102C2000758B845D749A756188A28B627F98696ADE
:102C300096A46C67949A6579997E63879572799466
:102C4000937A7D87787C8D8576737A917464919A76
:102C50007077997B6584A1746C83A781777B8D895C
:102C6000687A92706B989A6D828D7F808E77688D6E
:102C70008E7777998369799E8C70788F91746C7751
:102C80009E6F718E8F7D6F83A27A5C80A7735E8842
:102C9000A479799192745E77AB77618DA4757B97F7
:102CA00086856F87936B6D96A669778A8A857C8502
:102CB0008B6A74927E788F77749C7B708E8F8D84F4
:102CC000696F8F7B72958E7088939079618C8F7409
:102CD0007C8D7673A28B6386967F917F6E8E7B6EE2
:102CE0009298787F93827C757A9E775E82A37A81B0
:102CF0008D6C809E807A91957B8191757579979383
:102D00005B72969C70738B7D749E807E84788D90B0
:102D1000688599727198866C98916F84978980798B
:102D20008A826E8C8F69709D947482827A8A927383
:102D3000718B997F738D946B6594846A928D907F6B
:102D40006E7696877A85788B8A6B739B777295956A
:102D5000768B8C7E847781917B738A84788A865F78
:102D600073A37B7C9487797E977C5B879E7C768C33
:102D700092728198877276858C7F8281778F82624A
:102D80007CA2756D9E7F7293857A8C868784787914
:102D90007C8295776B929184798D7B6D8B8C707A28
:102DA0008C776D94936971A67F6C95907E7F867FFA
:102DB0008675907C758A8A78778E808181796D940A
:102DC0008672869973748C857177A38172888676F2
:102DD0007E997D797E97816C7B88788187808781D9
:102DE000727E94836A878261829E8972768E8B87D7
:102DF00078708389717F8F687498A67C617B9083DB
:102E00007A82697D8F8D856E789581678B8F6971E8
:102E1000969A736F82966C759B8F5F7A9B917D7E7D
:102E200078867781827176948173897078988575B8
:102E3000896E798A798F7C6E9676639197677A949A
:102E4000777E888986747B947B6A8A9191746E7B85
:102E5000876B6C9975678FA56A798A60689B8E65A8
:102E60007BA78A7A8E826E8087818A6B628F976E4B
:102E700077997A6C918F6A68979E7F6B7E886C7069
:102E8000938A607B9C877682846F8197765A7E9343
:102E90007E7F917B78808D896D6E8C8379846B6465
:102EA000879D787C8D7D7188886D799982757D7B11
:102EB0007180997A75858367848A7485918271851A
:102EC00084737884876B7D8B7C7B8D7F707E6D8037
:102ED0009777838F7D7484906F778B7E6C7E9181E2
:102EE000637E918079708C89698D88676A9895670F
:102EF0007597856D7C9373768E9680786F7D8886C6
:102F000067758D886291885E779C786F9482678AF6
:102F10009B7B7876967E81857A7D7F7185816786B9
:102F20008F756A8F9C736C8988687D9A786F8983A6
:102F30008177709889747D8971768C6E7195936AAA
:102F40007588826B8F866E6F9C92718286717A8C87
:102F50007D6E818581837476846B7A8B82877B73A7
:102F600088805D809C7977928E63719B856384965F
:102F70006E739B8D727A917E7D7F7F8D7A7482795C
:102F80008184897C6486917F798387747386858246
:102F9000857F8A6E5D7FA475619C897D797E8A7E3E
:102FA0008B6F797D8F798292746E938C7D7C7F7428
:102FB00083946A768C897F8E766E738E93707E8F03
:102FC0007C6A97887F787D908F6264929772858300
:102FD0007973759C8361869B82788D6B6D93A076E7
:102FE0006F828B807C91746B8C96806D86816C78FF
:102FF00093736685AD8A7088807C6D8594666897CA
:103000009C727A8F7B74928262829A75859A696BC0
:103010009C8F6E7E937B6896916386866A858871A5
:1030200091947F8186798D846972867673A07A5AAD
:1030300086A77483906981966F78916D7AA08A666D
:10304000929864689E91658F9E797286907862836B
:10305000A97D5C8D8F6683A5756D98917A778F8534
:103060007B8782887D7E8781777C787C88887C6975
:10307000839C6C739474709E847B858A817787842B
:103080006473A07B759B82638EA17B709882607B4A
:1030900098847F85778D7A6F829E7A6C828583850E
:1030A0009286616C9B8963789E8F69789683637D35
:1030B0009E846E878C89697686888887736B8C8CF2
:1030C000688C9770779476778F8B777E8C827083FD
:1030D0008E7D737E98786881846F9A8C697F9873EF
:1030E0006F9A8269829A786E93906B848D728071E8
:1030F0008796676F9D876C918A838A806C8D8070BC
:103100008C8C6D7394836C8697836D8E82617EA0A8
:103110008A757B8B78738A7E72839A6F6D888867D5
:103120008C9E73709C81637A9F7F607FA67A59849E
:10313000AF7960978A5F7CA986589291677BA97A5C
:103140006A889E875F75937A749C816C8E8D6F7E82
:10315000937175798C886764998C607B9B8F6E7591
:1031600099805376A18065939E7F698A907D717C5A
:103170008D7F60809167848F7E877A5D6FA28D6F6F
:103180008C8C6C72977C698498756B8E78748F7355
:10319000719282708292686A92A2715684A16D685F
:1031A0009397607E95766E988A5882A16F629A8F07
:1031B000727B8B9B7572878F6E7D8876648390811E
:1031C0007C7C7F66849C6B6D9D786D928175857A21
:1031D0008C84668891757A7F88886D7A8679658D0A
:1031E000896F808A80757F8D7E607F916C659987FD
:1031F000647B9488679382727F98716E8A876B7FF5
:1032000099776D898A697B7C8784727A8F6F6C93DA
:1032100082678E8F807F7A7F87826D7A887E738CBB
:10322000837B7C7C8177778682708B7B79818B7ABC
:103230006C798E786C8D826985955F6F9A846796BC
:1032400090727C847F87707F8688806979977B679E
:103250008A8C828279778A6E798E7876827F887D71
:103260006A9285647298817E8186856783957D6F79
:103270007C8F7C77887265909167789887677B9060
:10328000866E7D8C6F7A937C7690737088956B6870
:103290009795627F8C787E798F7D74828968858C22
:1032A0006D7A937B6C8592696A987F67899C717E41
:1032B000928983776B86827E818173878071968302
:1032C0006B7193846A7C977569938C7B7B8487761A
:1032D0007B8585717E8388737B748089797D838CFF
:1032E00075887A7983827786836A68968E6B728E08
:1032F000727892728890787C907C75828F807974D5
:103300008B7C6F7F9076648D8D7C8C7C72898663DC
:10331000878E6E749D95677B8A8D7A7A8A7A7F8391
:10332000827F857D7A798E7A6792977667898F71A9
:1033300076997F6F898D6F7992846A8B8E797C897B
:103340006F6D9C93717F8E6B7C977F78827F808579
:103350008072878A7F8381847D827B76898A777F6A
:103360008973838580867875868F7A6F7F90757C68
:10337000967169919565839A677BA37C758A8C7E2B
:1033800081788086847D877F7C897A83837E7F8B2A
:1033900084747F87857985847E7C8B7F77838D712C
:1033A000848B747C8A936183957A80848573809101
:1033B0007B7C916F73928D72818A82828082847B02
:1033C0007F8B837F7D81877A7E878488797C8D80DF
:1033D00070908270899275838A727E94806E8495D3
:1033E0007B708E8A737D96857476948476888D78CA
:1033F00085867F7B88847683848A7689946C629CB8
:103400008279907C798C91698390767E94847A8499
:103410008683847D778B887D768881847B8A887B90
:103420007C8987767E86817482887E89847A84818D
:1034300079868B717593897E7B8B7482878388777D
:1034400081887987887C858F75768C8381847E805E
:10345000897F6C977F77938D707E8D7D847B888E3E
:10346000796E9C7D638E9A7B6E9585728B8978844C
:103470008787798981788A87857D84868181888418
:103480007B808A807C8B807F828882788186877926
:10349000818684818182848073948C62749D7C6B2C
:1034A0009D88628A9276858C7F82838A897A788EDB
:1034B0007C7993836E86918371868E74818F8277F7
:1034C0008486927C777E8E837990847B7B8C8777D1
:1034D0007F8A7E83888578808B817E908067908EBE
:1034E000697E9A77749687827F83828C83778C86B5
:1034F000717D947F7E878B807D89807E7F87887AAF
:10350000818F7B75947E7C8C867B80868381897499
:103510007A97896A8D8D738292877A7C848381837E
:1035200082828A7F78888B74839080778886768A77
:103530008D7482938172898F6B7E978277848C8061
:103540007D8A867A84857F7E8B7C7791777A8B855E
:103550007C828D7E808B7F8082817E8588797B8E48
:1035600081719485768A8D7676898275859080734F
:103570008590727A9383758885817587827A858430
:1035800081818283807E8180817D80807F83897D2F
:10359000768682748289767B84827F7A8380808338
:1035A000827E7C867B768780767F8D7974838C742F
:1035B0008088827C7F81817B8081827B7B7F817719
:1035C0008980718090746E8E856C778F897677890B
:1035D000876C7B907A7281877D787C81867E768409
:1035E000816F80867C7880827D7C7F7E817A7D8001
:1035F000777E847C75837F7A7C8078788288767504
:10360000887879847E757B827F7980807A7B837FDE
:10361000727C887A757F80787C82837679808279E3
:103620007A837881867078847B79837D7A7A7C84CA
:10363000817078817C78807D7B807B7C7C7D7C7ECA
:103640007D7D7D7E7D7D7D7C7D7C7D7C7C7D7D7DAD
:103650007D7D7D7C7C7D7C7C7C7D7C7D7D7D7C7CA2
:103660007D7C7C7C7C7D7D7C7C7D7C7C7D7C7D7C94
:103670007D7D7C7C7D7C7D7D7D7C7D7D7C7C7C7D81
:103680007D7D7D7E7D7D7D7D7D7D7D7D7C7D7D7D6A
:103690007D7D7D7D7E7D7D7D7D7D7D7E7D7D7D7D58
:1036A0007D7D7D7D7E7D7D7D7D7D7D7D7D7D7D7D49
:1036B0007E7D7D7E7E7E7E7D7D7D7D7E7E7D7D7D33
:1036C0007E7E7E7D7E7E7E7D7D7D7D7D7D7D7D7D24
:1036D0007D7E7D7E7D7D7E7D7D7D7D7D7D7E7D7D16
:1036E0007D7D7D7E7D7D7D7E7D7D7D7D7E7D7C7C09
:1036F0007C7C7D7D7D7D7D7E7E7E7E7E7E7E7E7EF3
:103700007E7E7E7E7F7E7E7F7E7E7F7F7F7E7F7FD2
:103710007F7F7F7F7F7F7F7F7F7F7F7F7E7F7F7FBA
:103720007F7E7F7F7F7F7F7E7F7F7F7F7F7F7F7FAB
:103730007F7F7F7F7F7F7F7F7F7F7F7F7F7F7F7F99
:103740007F7F7F7F7F7F7F7F7F7F7F7F7F7F808087
:103750008080808080807F8080808080808080806A
:103760008080808080808080808181818081818153
:103770008181818181818181818181828282828234
:103780008282828282828282828282828282828219
:103790008282838282828282838283838383838301
:1037A00083838383838383838383838383838383E9
:1037B00083838383838383838383838383838383D9
:1037C00083838383838383838383838384838384C7
:1037D00084848484848484848484848484848484A9
:1037E0008484848484848484848484848484848499
:1037F0008484848484848484848484848484848489
:103800008484848484848484848484848484848478
:10381000848484848484848484848483838383836D
:103820008384838383838383838383838383838367
:103830008383838383838383838383838383838358
:103840008383838383838383828383838383838349
:10385000838383838383838383838283838383823A
:103860008282828282828282838382838383838232
:103870008383838383838383838383838383838318
:10388000838383838383838383838383838282830A
:103890008383828282828282828282828282828206
:1038A00082828282828282828282828282828282F8
:1038B00082828282818281828182828181818181F0
:1038C00081818181818181818181818181818181E8
:1038D00081818181818180818181818181818181D9
:1038E00081818181818181818181808181808181CA
:1038F00080808081808080808080808080808080C7
:1039000080808080808080808080808080808080B7
:1039100080808080808080808080808080808080A7
:1039200080807F7F7F7F7F7F7F7F7F7F7F7F7F7FA5
:103930007F7F7F7F7F7F7F7F7F7F7E7E7E7E7E7E9D
:103940007E7E7E7E7E7F7E7E7E7E7E7E7E7E7E7E96
:103950007E7E7E7E7E7E7E7E7E7E7E7E7E7D7E7E88
:103960007D7E7E7E7E7E7E7E7E7E7E7E7E7E7E7E78
:103970007E7D7D7D7D7D7E7D7D7D7D7D7D7D7D7E74
:103980007E7D7E7E7D7D7E7E7E7E7E7E7E7D7D7E5C
:103990007E7E7E7E7E7D7E7D7D7E7D7D7E7D7D7D4F
:1039A0007D7D7D7E7D7D7D7D7D7E7D7E7D7D7D7D44
:1039B0007D7C7C7D7D7D7D7D7E7D7D7D7C7D7D7D39
:1039C0007D7D7E7D7C7C7D7C7C7E7C7D7D7C7C7C2D
:1039D0007C7B7D7D7C7D7C7E7E7C7D7D7D7D7E7B1C
:1039E0007B7B7B7E7D7D7D7E7E7C7B7B7B7E7D7B12
:1039F0007E7F7E7A7A7B7B7B7A7B7C7B7C7A7A7C0F
:103A00007C7B7D7B7A7B7B7D7E7E7D7D7A7B7C7CF7
:103A10007E7E7A7B7B7B7D7B7A7A7C7C78767A7CF7
:103A20007D787C7E7B7A78787C7C7B7B7C817B7CE0
:103A300078787B7A7B7B7C777E7D7E7D7A7F807BCE
:103A40007C7B7B797D7B7B807C7D7C7C79797C7CBD
:103A50007B7C807B7A7C797B7C7A7D7E8086817B97
:103A60007B7D7C8598AB997C562A1D10254975A9CC
:103A7000CFECF0D49D62402C35506E93BAD7E1C59F
:103A80009A694C3C4F6A819AB2A1917356617071E8
:103A900087ABBCB0957A3F334C545A7098ABA4A610
:103AA000A98F735D707869767663657767738485AF
:103AB0008D889598808C7E666E78766E6A5F6C8550
:103AC000A4A484718676616856566A9BB1A6AABC86
:103AD0009D776B3A3259575D7DA0AD9C9D99956D50
:103AE000738584888D96818A887948304A4C6286AD
:103AF000A5A5BFD2D8CEA45C4948516B5754748E4B
:103B0000AAA27C879A9DB3A58091725B614E5F8E5D
:103B1000ACBEB5A690522A455B57799EA7BACDACEC
:103B20007D6A8887707B8D665B483945648CA7D138
:103B3000F0ECC89B6636162D526693ABA4A492890E
:103B40008678768E9A8A745D65606472919DACAD5C
:103B50009D7A4D565A62788BA4B39B9E8C5F5268B7
:103B60007E849783737B837460718F9DACBBAE8DB5
:103B70005E46464A59758896A3B4B4AE9980857B53
:103B800072706B6F5B606D707B95A3A8A3ABA497FD
:103B90006F63625D7E8A7E819992796A605D7297B9
:103BA000A39BA3AA948C86776865687C7B777464F2
:103BB0006D8AA3979AA6B197716B7B84896E6E7F8D
:103BC0006F5743567192B3BAC7C1AA8A776F545ED2
:103BD0006A777673796568869FAEB7B1A9906955A3
:103BE00048576C788995A2947D81827D8B9F946CD7
:103BF0006A7B6F75869AA1AC9E7C6B46304A6F8D4E
:103C0000A8BDC4BC9E7C4E3A44617F8591A8B09803
:103C10008D8579817C79818A8A716F665558647A3D
:103C200090A3B7BFB5A594623C48575C6C8B98983D
:103C3000A3A4957A7974717D869293887E817D7034
:103C400070707F836C727571788B9DB2C5BFA689C9
:103C50006234293C546E8CA6BCC4BB9A765A5F5918
:103C6000597794A09F98816F64687C86979F9697F8
:103C70009278606062667081999CA3A79781696061
:103C80005A637285A0ADA291825C525C64738FAA64
:103C9000B1B1A08C7772755B5060727273869BAC09
:103CA000BDBDAA9C7C4D43545B67798CA0969394D0
:103CB0008A93928788866C60686B697589A0A796DD
:103CC0008C7671625E74849BADB8AC91775E3F3E3A
:103CD000566D88A7B3BCAE9B7D604C525F6E8D9ACB
:103CE0009AA2A1896C667B8685878E947B6E5951DA
:103CF00065758AA3BBB3A0907C5D4F5970727788BD
:103D00008D8D808391A396827C7671707C7B868F6B
:103D100087786D766978848D9B9E9E8E8D8B76716B
:103D200073665A5A73848B92AAB2A3947C7B6C6696
:103D3000636A63627FA0B7AEA2948A654E536071D6
:103D4000849DACB4937C71616983979A94909084BC
:103D500078524E6976747E97A9A8A8A5A4937B563D
:103D60004E575568748FABB4A79B957A6965707A86
:103D70007E919E9D867378736569848D8B8A949FEE
:103D800096857E8D7B666F816F6A7C8D9EA8ACA9BF
:103D90009C734D3A3952749CBEC7C6B8A27150523A
:103DA000565B7392959C9F968C9298807C7D8283C3
:103DB0007A797D6C66788698948F9993857D7371F6
:103DC000737C989A918C86755E69757A788DAFBB95
:103DD0009B7F8A6849546C84A2B3B6BC9B795D55BD
:103DE0005B677D938F8C8C8D83747F94A9ACA79433
:103DF000754C3B4D656E829AB4C5B79F8C6C535E13
:103E0000747A86929FAC9B8371595766798493A18B
:103E1000A6B1B2A6826B74675761737E777C919B63
:103E20009999AAA89485807B6C6362606E838B905D
:103E30009192898D9C95817F8F8E7B6E605B62688D
:103E4000819198AAC0BAA586584E3C3B57718B9F6A
:103E5000AFC2C2A692836253565D737E7D8D908CF5
:103E60008F9292938C7A7B7B6E697185898CA19FEE
:103E70009082634D4546648AA4B8C1C6BC9E6B4916
:103E80003831446688A2B5C0BCA377656252566ECD
:103E900088979D96867C737B81838D98979B8B6199
:103EA00046465B687692AFB5BBC2AE85664F3B4572
:103EB0005C6E849AA4A8A69D8F7F747071717E80B9
:103EC0007C8587847D7C7F6D6F8B9E968B8A8D82AF
:103ED000747368626E7E93969397887D77676A8223
:103EE0008B888B958E7B746B5F677D8A94A0A8A16D
:103EF0008279665E6A6D747D8999A1958685898FC0
:103F000085756B6162586376829DC0C9BAA4906B57
:103F100039394C576581A4B3A8A19784797C7D7FFA
:103F200082898571635E6269748FA49F9A9180759E
:103F30007979797F7E82837359637C858DA9B7A94E
:103F400087603C293E5C7C9CB7CFDCCEA4724726C0
:103F5000233D557297B1BCBCB3977C5D53637078B9
:103F6000868D8D7A79785B5D727E828D94948F894F
:103F70007D7A7A77777E7A7A8079695A5F6C788FE2
:103F80009F998F8781705F5E626F869FAA9E866A07
:103F9000473544596F87A2B6C1B59A79544A5462DD
:103FA000676D7F85837F79787C8897978E856F6131
:103FB000575767778597998E857A6E696B73829468
:103FC0009B93785C535761778791A1B0AA8D6B4E14
:103FD000434A5F768EA6B1B2AD957A6145393F55B9
:103FE0006370849CB3C2C4B29C865F361F273D5960
:103FF0007BA0BFD2CBAE825A483A425A799BB6BA1E
:10400000A786604946495D7B90A2B4B49878605514
:104010005F6C7A8D9CA09B8A664C4644516A83A152
:10402000B6BEBCAE95714B343851647892A19FA254
:104030009D88736D6E7272707C7A6E737D848C96BF
:10404000908271574E515A6E91ADB8BBAD8F633DA2
:104050003140567190ADB8AF9A7A65524D5B6F8A18
:10406000A0ACA38F725B50515F7590A4ABA9A08CDC
:1040700070584B4C5B708498A8A5978B78656065E9
:104080006D75798095988E8981766F71716B656D8C
:10409000747D86919A988B807360555C6E80929B3C
:1040A000A09D88695548495E7E9EB6BCAB92795BFF
:1040B00045485A7597ADB19B7D5E474B5C7790A79D
:1040C000B7BAB1956D5855596170869491847C73D7
:1040D0006D7484909B9F96837467575462758C9E11
:1040E0009E968A796258617C97A0A49F8A725946ED
:1040F00049596B84A0AEA6948A7B7274757A7973E1
:104100006E6862666D7C8FA1A89E907C696863670B
:10411000798B9791806A534F5A64789AB2C4CAB91E
:10412000936A4B38394E7191ACB9B2997452434F7E
:1041300068819BB3C0B59C77504A5A697A8D9D9C23
:104140009187705F66757C8793938A837875808486
:1041500084827F746866717E7F8594A19D8C75666C
:10416000636A7178888F94958F82776E6D737B7F89
:104170007F8A8E878588877B6B64666F7A858EA938
:10418000BAB6AE9C7C52352E3B4F6B8BA7C0C8BFD6
:10419000AB8C6D5F606366738B9C9E9B9181644A60
:1041A000495265819AB3C9CDB9A27E533837496265
:1041B000849DA7AAA7978B877F79777371706D6E9F
:1041C00075818FA0B1B098796456505B718EA7B39A
:1041D000B0A5886248465B738FADBEBEAD92796371
:1041E000535C6C7B8A8E857A6D6E778499ABB6B0A2
:1041F0009F7E5D524D546B88A0B5B9AB90664B3F26
:1042000048627F9FB9C7C4B499724A3C51687E9492
:10421000A4A69E8D7E6E676E7D8C90908A89867A2C
:10422000787D89908E817164626C7C92A5B4BEB3F6
:10423000986F4F393A507297B1C4C4AD8E6F5E58C3
:1042400062798EA0A498856E5F5D67758698A5A734
:104250009F8B7B7370747D84838686867E787D7861
:104260006F737B7F8B91969B9B968F836F65534972
:10427000586E8299ACB9B9AFA08C70595351586C33
:104280008091A3ABAFA69784736C6C6C68697689D8
:1042900098A5A9AFAA9D88725B484041546C88A537
:1042A000BFD4D3BBA48861433A39435F7F9DB5C770
:1042B000CDC4AE916C4B383E4855718DA3B0BBBD9B
:1042C000B09B8B7A69636462636D7882898E929801
:1042D0009694938D827D74645E6474828D9BA7A98D
:1042E000A1938572676362666F7C8B98A3A29F9887
:1042F0008F867A756A605F6B79899BA8AAACA79153
:1043000078583E313C547291AABFCFD0C1A7805B90
:104310003F373D516E8BA1B6C4C1B0998169544DF0
:10432000535B64768D9CA2A6AAA49A8D8378737140
:104330006B6B717479808484878D8E8C9096918755
:10434000837D726F6F7173778696A0A2A49D877527
:10435000665C585D6E7E8B9698938A8173696A75E8
:1043600082909FA6A2958B7E6458584E576F849773
:10437000A9AFAD9C907F64585E6268798A959597E5
:104380009A9A93908D81726E6A5F5E666E79899655
:104390009D9B9C92867F7F7F7C7C7E84868A867CA8
:1043A0007974696A777E7D7E8A8F8C8D8E8B807A18
:1043B000797876717A86888B9196918D89837A6BDC
:1043C0005E5C6062656B768392A3B2B9BDBCB29D40
:1043D0008362463126304B7091AEC5D2CBB18B682B
:1043E0004B37374660809DB2C2C6BBA388786C66E7
:1043F00066696C6B666B767A808A98A3A4A39986AB
:1044000071635E6A767B86919490898279736F7608
:10441000828588887F75706F717177888C91989983
:104420008F8178757171787E797A7E787B78777DE7
:1044300080858B9194938C8D8B7B66554B4E576802
:10444000839DB2C1C9BDA2806044373A526F87A034
:10445000B4BFB9A28A74584B515E6D7D8F9BA099F1
:1044600092868586848A857C7872726B6E7D848B59
:1044700093948A7E6C61636D7C909FADABA19981B2
:10448000655E5863747F8F95898077706D6F8092B9
:104490009DA4A1947C62565B6E7D95A8B1AB9A8772
:1044A000684F494D5E768FA3A9A2927B65656A73BA
:1044B000879CABB5B09D7E6253474B596E85979DE7
:1044C000A09D958C8A7F797D7E786764666D7C8CF3
:1044D0009CACB4AE9E8C6C4B3D464C5F7892A4A8CD
:1044E000A3A296878680827F827B7065595761740C
:1044F0008698ACB6AF9C8D765C51495367798C9B9E
:104500009FA4968F8D766D6E6E6E7277848B8B8E78
:104510009194908379706264646E798494A2A6A168
:1045200094806651484A5E778BA2BBC9C4AF977628
:104530005A453B3B4B647B94A9B5B3AC9887746DEB
:1045400066585E6D7787959C9A96918B7F7A746C8E
:1045500074737B8278716660686E7D94AAB6C0BA07
:10456000AA8B6C56413F4B5D748CA0ADABA092837F
:1045700078696967626F7981858C8C878481828490
:1045800085868D96927D7676654F495964728AA6A6
:10459000BAC2B9A7926B4C413D41557999B5C0BBA0
:1045A000AC9C81645D5B5D6779848B8F9087818033
:1045B0007F79767C8382848A80767A818181848700
:1045C0008F968D827F755D5B6D7273838E969795E6
:1045D0008F7A6A5D606F788697A6B1A4988A7463B3
:1045E0005D6267757E858B838582797C8181808021
:1045F000868A8D9591887F69615D57687F96A9B796
:10460000B4A3896852484C5C7596A0A3A19B89709D
:104610006F7171717A8A9399968A7F726D666B73E6
:1046200075869AA4A49F967756423E4A61819DB5AD
:10463000D0CCB28C6547373F597D9EB7C8C4B6957C
:104640006B4D3D3E495D72889AAAB7B3A6998C77A7
:1046500061554E5A647794ACB4AA988369575C6DDF
:104660007C8A969A8C73605454647993AFB8B2A2E2
:10467000947C6B625B5E60656B6F7C8B9AA1A0A281
:104680009A8972696364727F86857D6757525A750D
:1046900092A7BBC6C0AA8D6B574339424D64788739
:1046A0009DB1B8BABCAE9572523B31384C6A88A203
:1046B000B0B5B0A3958677747273726D675D5960FB
:1046C0006C7E8E979D9D9B998D83787173737373A8
:1046D000788085848A8F877C716C656B717A8B900A
:1046E00092938E816F66676D738089888A868889C8
:1046F00088827F7D7A736B5F576275869BA8A799C6
:10470000846F625B5964748497A3A89E8C776C6AEB
:1047100068747681858C918B826D61575E6E7B8823
:104720008F989DA2A098907F6C585A60646D78888D
:10473000949C9B9489796A6B76818D908C89847C1A
:10474000736253515B6F849BABB4B5AD98866A5767
:104750004A404D5E718A9DA6AAAA9E94856E645EAB
:104760006167747F847F7773797B7D858C949D9B53
:104770009D9D958A7E695C4D414550678099B2C484
:10478000BCA78E786C6262646C7A7F82827E7F8145
:104790008D989D95897C6B6362676F7783878D9118
:1047A00089817C7A7E858488827D7267615D676E8F
:1047B0007A8C9DAEB8B3A29184706359505052590F
:1047C00062718392A0ABB4B3A99889715D504D55C5
:1047D0005F676F7C84909AA0A5A6A59E92806A527E
:1047E000413D465D738BA2A8A69C8F878280858EF3
:1047F000928D83735F50474E5C738D9FACB0B1A9AF
:104800009885746556515A6A77868C979991857701
:10481000726E767C89929795898176737274777BB4
:104820007D7C7672757A868E9193948B7B6D666AA9
:1048300077838E9A9E96857159565E70899CABB12E
:10484000A7957C5D504A586F8093A09E9E998D815C
:104850007C7678797A8183878A85807668656870C6
:104860007E8EA1B5C0B69E8269534747586B7B8A3E
:10487000939A9E9996949598948B82786C646362CF
:104880006A6E72777E8D9A9D9F9FA1A0998F7C768C
:10489000675B574E58697B8CA1B2BCB7A6978873EB
:1048A0006458535F6776848B97989491908A847A42
:1048B0007A83858C8783827E77787A787B7878791B
:1048C0007E858F909296988E7D6F6F6F707C8893A7
:1048D00096907D6E61616570859AADB8B8AA9B832C
:1048E00068514A53606D7B89929C9F938B8D8C8716
:1048F0008382877F7A746C73716F7A8892969899A5
:1049000092867C70676A6F72777A84909795969892
:10491000978F80716F6F6E747B858A847D7B7B7BC4
:104920007F84899095918784837F7E7A797D7E7F4D
:104930007B777A7E77767B848D9294979D998D761E
:1049400067605E677685949B968C7771655E64750B
:104950008A9FA9AFB3AEA58F7B6C584D4647566A68
:104960007B8E9DB1BCB4A2887B6F696E6E798183AA
:10497000847A7373747D8F9FACB3A99A8A755E4BEA
:10498000424E5C6F8293A1AFB4ADA79B8D827161E3
:1049900058545B65758492A0A9A2938775747E8430
:1049A0008F97969185694D3F465A738CA8BDC1B3C8
:1049B0009A826A61687386979F9B92847770615B25
:1049C0005F676D747D8D9CA9B3B3AE9F886A564AAC
:1049D0004F5D6F85939A998D8184858B969A9F9D63
:1049E000886B53484C5A6B81909C9E9B98948D8DFC
:1049F0008C8E9081746052576473859098A3A09AAE
:104A00009287827A7B7E7872696C7276797F8588EC
:104A10008D9094999B9A98938A7A6C534D5C6574A7
:104A20008797AAB2A79779675D5864788BA1B2B8C7
:104A3000AF9A8869524E5060707E909DA09B948B77
:104A4000887F7C868B91938A7F65595756627789D8
:104A50009EB2B6B7AB9C836A5B4D48546274889C27
:104A6000AAB4B1A595837C695B525E6B7D939EA6CB
:104A7000A79F8D7266616978868E9190816B635F66
:104A80006675869DABB3AA97826E5B535662788A31
:104A90009CA3A6A29A88776D676463626C75818C0B
:104AA000949DA2A2918176686A7A818B91908B8184
:104AB00073665F657487989E999182735F575C6A8D
:104AC0007B8EA2AEAEA08C7C6F68696769707C81BA
:104AD00080797A818A919498918D817974616163EA
:104AE0006A73777B82848B93999B9995928C817C56
:104AF0006E64565A65757E8B91989D8E7C665E5B62
:104B000066778497A3A6A4978C83706F6F737B7965
:104B100075695F5763707B8D9EA8ABA196826D63AC
:104B2000616A76848B8F8A817976767F82838989A0
:104B30008B7F766B5C5051647A8DA4B5C2C1AF9601
:104B400078544447537083969C96877668616C7955
:104B50008B97A2A3988974655E637885949D9690DF
:104B60007E6C5F514F5D6D7E929FA19B928483818D
:104B70007E84868A898383796A676160676F7D8AAC
:104B800091969B9893887E716362666E7884919209
:104B90009692857765606067738592979B9285761C
:104BA0006A70717787989D989186766461636E7854
:104BB000818C908D837C756F71727A8482817C7315
:104BC0006E6F757F8796A7B4B1A99D8A735D5A51A0
:104BD000454E5B6C7886929797918C867C777E8524
:104BE000848B8E928E867F756D6F6B716F666F6D25
:104BF0007179797B7B7D83949CA4AEB3B0A59587B6
:104C00006956483A414F6677858D989D968D8C8878
:104C100080797B79747572737B7B8891929290888E
:104C20007D7A716260626A768294A3A7A89E917869
:104C300051494C526D839AAFB9AC9E836353495A24
:104C40006B7B8E9DA29377655853678399A9B4BAFD
:104C5000B7A28A7C6F667074766C6A65686A7086C3
:104C60008C8E8C8C8A7B72787A79849091938D90DB
:104C70008B88828072736C666D656B757E8C8E9589
:104C80009D9B89807B6E6F797E8286838684828CF1
:104C9000858D8B86857260575057696F839998A070
:104CA0009F98978F8F8B837A77696A666978828CF1
:104CB0008F958F867E797575706A6D71797C8A9F04
:104CC000A7ACB2AC9677665041455463708691A10B
:104CD000A99D97958774726A727D87909D9F918731
:104CE000716759626F7B8890978A88816562676671
:104CF0007C939AA8AAA3A297877D72676A696E6E51
:104D00006E6F647283858D8F938E87897E7A81859D
:104D1000868B9190837F7A706E77828287897E6A94
:104D20006867636D8298AAAEB3A085706A5D667687
:104D300079898D8D897C796E70858C8988877A6375
:104D400065686D7B8D9BABB8A7A18B5C5C48465FAB
:104D50007086A5AFB8BCB3A58F7C67584A4E4D5935
:104D600064798791A4ABA29B8F8B807E847A7B76BB
:104D70007B72696C74727982909A9EA69C95877AF0
:104D8000676361676C7A8389928D8E888E99999119
:104D9000908A6E545356515F738191A1B1B4B3B9E7
:104DA000AC98827453382F3A4E6989A3B7C7C2B200
:104DB0009E8A6D747568757F7B7A77737985898F24
:104DC000949A967E8083746B6D736F6F7C838590ED
:104DD00093909196938D90998C827D6B5E45425015
:104DE0005A718D9EB4C4C2BDA8937C685E565D6442
:104DF0006E7C84898E8C898A85878C8981827B7878
:104E00007675748082868F979E948E868678716C74
:104E10005D5C595F68758591A5ACAFA8908E756390
:104E2000696A7085889292837E75807E84949B9651
:104E30007B82745863706D7C817F857E837A7E85EA
:104E400092999D9B94847C6E6760677171858E9D3D
:104E50009D9081716354617C92A9B9BDB39C7C6DB6
:104E60006961747A7D7D73695F66626879859297FE
:104E7000A19888868A82827A7473626A717A888D30
:104E80008EA4ADA29A8678564B505B6C7E98A9A4EE
:104E9000938B867C747C8A91868784715D57656A62
:104EA00078848B9B9C98917F7C666C6E6668707131
:104EB000727C7F858FA1B2C2CCBF9E815E3C2E29C1
:104EC00043617A94AAB1B1A8988A766A69636A6DD7
:104ED0006D738387878E8E918A898E8F837E797595
:104EE0006658575A545D6E7A90A0B2C1C6B8AB945A
:104EF0007B6C60625B5F6F757474787E838B888F68
:104F0000959B97877E6D625F626E7F83919A9E917B
:104F10007B71676D77778288857769656165759044
:104F2000A2A8B2A895826E6C5C5E74879CA7A59DB2
:104F3000977E6561515863758C918B8986775F5F29
:104F4000686F75868F96989D998D8A787B7C797528
:104F50007974746C6C787B79838894928D9FA59D0D
:104F600099978D7E6B64564F505B6D7C8E9BA09B9A
:104F7000938D7E737371726F727069737A84939874
:104F8000A1A19D8D7F6F5A5C63717E8896A0A8A3B6
:104F900098927D625A5C68767E92A0A7A7978B71E3
:104FA0005F5F53545A6C787D868F98A1A2A4A49A0F
:104FB000917E6F62524C535B6D7583919C999A9B65
:104FC000928B7B8079787278767F959FA5A8A89F31
:104FD00087785B5051535F7284959B998F8980725B
:104FE0006866716C7180848583848B938F8A8C81D1
:104FF000735B5C5D5E708594A3A39F8F756F7385F3
:105000008E929BA19081796D6266718998A1A89D0D
:10501000948774666E6C6765676E605A5C6D799094
:10502000A5B1A58F816F6160707985969D978F81FD
:1050300079777B85909695897F6B54595F697D99C7
:10504000B0C0C5B9997F6B4F4E5E6A8192929489C8
:1050500081716F7A888A827D6D5F524955657C9730
:10506000B0BCBEB69E7C62585C657793A4AAAF9D27
:1050700087766E68646D747E7F7F86868386848A79
:105080008D88877F77787F838A8784887D7873711E
:105090006F707987878688888575757F838A8C95F8
:1050A000978A877A695A5B5D667485959FA69E93F9
:1050B000877572747678848E9393918C867A6E6EEF
:1050C00069717E868A90908D8B888C918A807A77A0
:1050D0006B5E5A66747E868A88857E767B838A8C30
:1050E000959A927F716156576270859EADBCBEBC29
:1050F000A690745B4E50606D7B848F94A0A09697B1
:10510000918C7E6E6C6F6668747E8B9293918D87A6
:105110007C7978787D8176696B69676F81939CA4CF
:10512000A2978275696B6C707E88918C86867B7A7B
:10513000808B96A4A5A79279746066708095A19ED5
:10514000A29387725C60666E7E87898883767067BB
:105150006066666D6A727D7A7E878C91968E908885
:105160007E72687074879AA4B2C3C9B7A494847518
:1051700070604F5059636F849198A2A4A896877E5F
:1051800069626C676B6D626B5E6A74768499A7A3C3
:10519000907365524D596B829CB6CACFB8A48E737A
:1051A0005D5B6D7B868BA0A69E9A8A766B6D6A6D21
:1051B00070737779797B8081808486807A77757740
:1051C00079838E8A81807A6F6E71767B8897A0A4AE
:1051D0009C9288817475787C777B83808580848DB0
:1051E0008F87796E66646D7A858C94948A82796FE4
:1051F000655F6C72798B969A95867F6F666A6F7819
:105200007E828E9F9999A6A08E827B756F6D777B2B
:105210007C848981705D5C606A7D8D9AAEB6A28D5A
:105220006F5D56505C6E7E919893928B7D70727319
:10523000756D7074797F85949D988F877877787D68
:105240008A9CA4A19A8C7364606474868D92948BFA
:10525000785F56575F6B79888D8A8A868079838BD1
:105260008C8C8C887564574F4F5C697E8B939797B5
:10527000938E898A96A1A5A5A6A08B6E58525867D1
:105280007C91A0A39F988F7D6B6867686B5E5A6462
:1052900063687B8D98968F816A554E56617A93AE7E
:1052A000BCB6A7896E60606A79879CABB3AA9C8DF7
:1052B0007B6F6A6E7277818784818589898887820E
:1052C0007F746B67574F545A5B64717B82868F97EC
:1052D00097938C8B827B726E6D7077838E98A0A86B
:1052E000AAA499877D746D6E75767A7F82827D77A8
:1052F0007277726A727A7E7D767678726D74717169
:1053000075726A656668778B99A4B1B2A08F7B6964
:105310006362667586949E988C8174767E858A8A8F
:10532000857974615F6773828F8F87735B49454DA1
:105330005A768EA2B0B3A18877747E898C93908AB6
:105340008070686975838C96988D897C736A68779C
:10535000848E948D84776C656266666C6E6C6B6D02
:1053600069727F8A9399948E826F6A686F77879942
:10537000A9B3B2A497887C797570767C787C7273B7
:10538000746E727985909292887D78737478768045
:10539000857E766958565C60707E89979696948F64
:1053A0008A87888F9191877A76747D8C97A4ACA830
:1053B0009D8B70604E4C5D6C7A8D9DA09B92857824
:1053C0006D6A6B6B6F757D82899397968E857D7400
:1053D0006E70747C89919B9C938A767170758191B3
:1053E0009A9E968E80776E6A7172788487857D74B6
:1053F0007477757E8A888C888281756F75777A85D7
:105400008D979D9A918D837C7B7877787E81848738
:105410008B949A9FA1988C7F7167615F6A73787E85
:105420007E786B69656E7C8A959D9C8D7D74726FAC
:10543000767F8A918F87807D7C84909FA5AEA7948C
:105440007D645F5D6270838D9795918A7F787679B0
:10545000818A8F8E877B6C635855626F7D8C94999F
:10546000958585817A7D838E9A999491877C7C7CC1
:105470007E83848B8D897F7A756A6B7381878C8F2D
:1054800091897D747076767C8A9491908882746616
:10549000626B7379879097959089827B797F858EEF
:1054A000908F928E878B8D93979593907F7068578E
:1054B0005B646D7981899291918E8A837E7D797CFE
:1054C0007E807D7E7D7E7D8080807F7F7D7C7E7EF8
:1054D00082858F9B9E9E99917F736F70737E8C9750
:1054E0009A99948C8376706D717475787C7F828ABA
:1054F0008F9296938D847976707072767C7F888C8B
:105500008B847E7976757882828585878989898E74
:105510009695918884807B797A7E858B8D8B827A33
:1055200078777C8287908E8A89817E7D7F868D9533
:10553000948D81746960656F777F888A8C87827E9D
:105540007F7D7E828584868988898A8D918D8A86F1
:105550007C746F6E6D737D89939695939189837F2B
:105560007A7B79797A76716E70777D838B9395915A
:105570008B8379726E7172777C7D807C7D82898F5E
:10558000979DA19E968D827A726C66676A6A707723
:105590007C7E8287909697918E877E7C77737577D5
:1055A0007C7E7E807F7F81858A8C88857F767573FF
:1055B000777A7D7B817C78747980848A90948F8CD3
:1055C0007F7C75797C848E8C877E746A6A6D778027
:1055D0008D979D9E9A8E82756E7073787F898A8969
:1055E000827C7265666F79808485837A757477852D
:1055F000959EA29F998774685F5D677D8F9EA8A71F
:105600009E91816F65655F6373808A96A09E928D7F
:105610008A7F767474727680807C7E818284898AA7
:1056200087847C79797A7D848D8D86848378717680
:105630007F7D818E918B8789897D7A72716E6B6C8B
:105640006F7578818C8D868D8B837F808484818635
:10565000928F868185827D8082757477767B858D39
:105660008D8F959991898171605A595F636A7786A8
:105670008D9097988A76716B61606569717F8E965F
:105680009B9B96938C817C7973737C858A908F87A2
:10569000817F7D828C90928F877D76675C65717546
:1056A0007C85867A716F69686D777B7F86867F7F60
:1056B000807B787D827C7B7E7E7B808B94989793A9
:1056C0009088827E7A7064676B6C748493959396ED
:1056D0009187776C68666E7A83878A8A8378706A26
:1056E0005F5E6A7278838D8B8587857B7675727332
:1056F0007A85919799969187766C655E616B7987CB
:105700008E90908C8785858382817F7C78716B6C8D
:1057100070767F858583817B736D686A6F71757D17
:1057200087897F7C7C777376828E918F8E8475706B
:10573000717478818A9295918F8B89857F79736E48
:105740006B6A6E797979828A89857F7F7C706B6DCF
:105750006D69686B6F6F72797A828C949997928B6E
:10576000807974707A7C7E838A8C868488878A8725
:105770008688857B777A7476797A7A767577737787
:10578000787A7C7A7B7B7E79767677777777797B88
:105790007B7C7F807D7E80878C8E959A978A877DA3
:1057A00068636972727B818C90888C8B7F75706F57
:1057B000757B8585878E877F7A787B7F8086948FBF
:1057C000756964544E60788694A4AAA79B84766D0C
:1057D000626774828280807E77747A808588898E01
:1057E0008B7F716A66666E7B8791999A958F837DB0
:1057F0007C7A8188898C86807B74747680848785A6
:1058000080776C615B606A75808B9194867D78741B
:1058100071737D888C8A877E7169646974818E93C7
:105820009291867B77767E889198A1ABA697918F8F
:105830007E6E6B6563636A757E7E7C7E7C7671723C
:1058400073777E8482817B7777777A8185888A896E
:1058500089867F7977797771727A7C7B818F9A9646
:105860009AA4A1918986827670767B7674797E7C03
:10587000787C8387838180776E6F717A8188919637
:10588000948A848276737776767674767D7E7F8648
:10589000908F8B8E9088848484807D7F7D7B7D7EBD
:1058A00083898E8E8C8D8B827D807F7B7C878C899B
:1058B000878783797577767277838A8B90938D85C6
:1058C000807F7D7A777A81818081817D7B7F8487EB
:1058D000898C8C8987847F7E808384878F8B82816B
:1058E0007E7573777C7E808790939594928A7F7C77
:1058F00079757780898D8E90918D87837F7A78777F
:105900007B7E7D7C8081838891999C9A9282705B5A
:105910004C4E5664778C9DA6ACA998877D757173A3
:105920007982888C8F8B868485888D9196958F88D7
:10593000807B7978797F858887888C8B8684837B48
:1059400073706F6C6E777C80818281807D7F8588AB
:105950008A8A88837C787B7F848B8E8D8883818103
:105960008284888F928D8988847D7E828689888BC7
:10597000897D75706A686D757B7E84878583838376
:105980008789898B8C867C76726B6C7886919CA7D4
:10599000A99A8572686569758492999A9181726BEA
:1059A0006C7179838B918D85807A757377818A90FC
:1059B00092928E857B746D6869737E878E9AA49EA1
:1059C000959188777478787B7F8281817E7C7E7EDA
:1059D0008185837D7A797A7B7C7D7F8182838689CC
:1059E000858486837C787877798086888C92908984
:1059F000878984808388878484847E7676737272B4
:105A0000797B7D828180868987888C8B8383847F64
:105A100074767E7C7B838A868288877E7E87847983
:105A20007B827A737D8789899193897F77706B6F89
:105A30007A83888D92918D827B75716F7880888B47
:105A40008F8F88807A74737B828B91908E8C837B0E
:105A50007D7F7B7E87857A73757370747D8080828D
:105A60008483817F7F808488868483807672777840
:105A7000767C888E8F91928B837E7B7B7873737616
:105A800077787A7E84868A8F95938E89837F7C77D8
:105A9000736F6C6C6F72757D848A929A9C989183F7
:105AA0006F5F58575F6D7E93A1A5A499847166645A
:105AB000676F7A858C8B88847F7D7F818283807BF2
:105AC000767775757E888B8E918F8983807B797BC5
:105AD0007D8184868783807B7573726E6F71737628
