:100000000C9495380C94B2380C94B2380C94B238E5
:100010000C94B2380C94B2380C94B2380C94B238B8
:100020000C94B2380C94B2380C94B2380C94B438A6
:100030000C94B2380C94B2380C94B2380C94B23898
:100040000C94EF3A0C94B2380C94B2380C94B23849
:100050000C94B2380C94B2380C94B2380C94B23878
:100060000C94B2380C94B2385F54545F5F5C5C59A6
:10007000626F6C62574E59646A6F7582989D937D6A
:100080006A6A7572777D8293A0A0989093A6ABB1AF
:10009000B1A6AEB6B1A0856F675C4E4944546C758D
:1000A000726C6A758080807D7D8882725C46444E69
:1000B00054514E57779BB6C1B9AEA89B88756467FB
:1000C000757A7567626C7A7D7D756C7277726A5F1E
:1000D0005F6A727A7D8598A8ABA398959D988A7A75
:1000E0006F758A95907A67676C72777777828D8D56
:1000F0007A645C625C4E3E3B4E6C82908A8582776D
:100100006A5C545C6A77776A626F7D80828890A0AF
:10011000ABB1A08A888A7D6A5951596C828D8882D8
:100120008885776C6467778A9B988D9395887D72B4
:100130006C6A676A625151626259545C6A75889B45
:100140009B95988D7A67595C5F62645949576F82B5
:100150008A90959898A3A088756F6A5F596477888C
:10016000A0BEC4B9AEA38A6A5149494C575C5759DD
:10017000646A676A7585888D958575726F5C44338E
:100180003B4959778D959DABB1A38D888D8A909011
:1001900082777777756F75807D808A8D8A88827285
:1001A0005746515F677A93A0A8B1B6A6887D7D7542
:1001B0006A6259575F6A72758095A0A3A69B887D75
:1001C0007A75644E515C5F6F8A9B9B908275625F0B
:1001D000727A7A80888D908D8D88828D9390959398
:1001E0008D8A8A85776764758595A8B6B6B1A8A00B
:1001F000856C6A6C6A6C6F72757A8895959598951E
:1002000093938A7D6A57412E2B3B516788A6C1D1B3
:10021000D7D9C9A89890826F5F5149464E626A72D9
:10022000889BA6ABABABA8A39D8D7D8088909DA835
:10023000A6A09B9B9B8A828585807D80858280800D
:100240007D7D8A9BA6A69B9388755C4128263644B3
:10025000576C8090A0ABB1A395959B9B9B9595986F
:10026000959DA09895989B98908888858585807A9B
:100270007A7D828A8D93938A85776A758585827A5D
:1002800080909598988D8A95A0A69B8A827D756F9F
:1002900064626C7D8A93909395939388726A6A6A7C
:1002A000645C57595F646C778AA3B3B9AEA09D981C
:1002B00088755F54627790A3ABB9CCD4D4C4A898A6
:1002C0009895886F5F5C595C5F57545F6772776C75
:1002D0006A6A645F575462757D828288959DA3A087
:1002E00098989D989382778085807A6F6C8295A08C
:1002F0009D8A858A90938A7A7D828585776C6A64E7
:100300005F574644596C7D80808A989BA3A3A6B30F
:10031000BBBBB39B85755F513E2E3B57646A6764D8
:1003200072777A755F545F6C777D7D8A9DA6A89BF6
:100330008A90989D9885756F6A6A645F6A809098C4
:100340009BA3B1B3B1A68A777272644E393639393C
:10035000414C5C809DABA895888072644E3B3E57B3
:100360006F7D808595A0A3A69B939598988D7D80A1
:1003700082756A5C545F6F7D7D726A6A5F57545103
:10038000627A8A938D8A9895887D6C676F8295953D
:100390008A909B95908880858A908D7A6F6F6C6C1F
:1003A0006A62626A727A75727A7D7267594E4C4CD3
:1003B0004E4C414C626C72728098AEC4CEBEB1ABF2
:1003C000A08A776A758AA0ABA090939890806249C2
:1003D0003E394449444C5F676F778AAEC6CED1BE82
:1003E000A39380644426232E3E57677290A8AEA341
:1003F000908A9090908D7A758080725949546A7D68
:100400008D887A72675C4E46546A7A889093A6B952
:10041000BEBBAEA6A8A0958D827D7D7A6C574E643A
:100420007D888A806F6A64625949516777858A85B9
:100430008A9093826457626C8093959595908D8095
:100440007582959BA3A3989585725F4E5775889585
:100450009898A6B6B9B193756C5F544E494E5C64DA
:100460006A645F779DB9C4C4B9AE9D8A7254494E1F
:10047000515C6F809DB6BBB398828277624E4444D4
:10048000494E54545C80A6B9C1BBB9BBB19B826ACA
:1004900064757D80828593A0A3A393888A888282D5
:1004A000858D93827564546480909BA6B1B69D7AC5
:1004B00054362E33333133496F90A0A39893A3AEB3
:1004C000B1AEAEB6B9AE9B856F6C7575726C75804A
:1004D0007D6C59443E464E5C6C88ABC1C1BBAEA33B
:1004E000A3957D645C6C807D6F5F5164859DA6A63D
:1004F000ABB6AB8D72574E575C5C5C678095989538
:100500008577777264574C5762574C4446678AA088
:10051000AEB6C9E4E2C4986F5957514E4C5C8AB3E9
:10052000BEB39D8A888A806A54596764574C3E4698
:100530005F7A93A0B9D7DCC6AB93857D6C543E3B04
:100540005777888A85858D908A7D7280938D7254C5
:100550003E44515F645C6A90ABAB9B806C646264A8
:10056000626277909D9D9B9BA3ABABA39598A39B49
:10057000856F62677585939095ABB19872462B260F
:1005800023231D23467595A3A0989595958D7D826F
:1005900098A8A6937A6C6A6F7D808598A6A08D7ABC
:1005A0006A5F5754545C7DA3B9BBAEA3A0A0957AF3
:1005B00057444C514C4436364962778590AEC9D782
:1005C000D1BBA69890857259515C6A757A75726F25
:1005D0006C6C67646A6A5C4633313B546F889DBBC0
:1005E000D7DCCCAE9388857D75676275888D8A80EF
:1005F0007A82939B9590989D9B93806A5C575C62EE
:10060000626C8293958A725C4E463E39415C75827B
:100610008A888A939B9B938D98B1BBB19B82808D76
:1006200098988A8085887D6A5446465157514E5F16
:100630007A8D9DA09BA0A6A398857A80827D7772F3
:1006400075808A90939DB3C1B9A07D67676C6A5C21
:100650005467808D8A806F6F7A8585776F7A807A0C
:1006600064442E313E515F6C8DAEB9BEB6AEB3B6AA
:10067000AE9D8A90A3B1B9BBB3B3B3A68D6A5F6CCC
:1006800072674E33283649575F6C8DB3C9CCB69B21
:100690009395988D776C7575726A62646F77807ABE
:1006A00077889898908582909DA39D959DA6988027
:1006B000625157626257444667828D8A7D7A889577
:1006C0009D9895B1D1DFD4B69B938D9398959BA6B9
:1006D0009D886A4C4141413E363B5972756F6C7D35
:1006E000939895887A85989B8D7A757D828280759E
:1006F0007D95A8A38A7572757D7A6C677D98ABB37A
:10070000B1B1B6B3AB9B8882857757362628334183
:10071000516480A0B1AE9B888D9BA09885777D8A1F
:100720008A7A6C6C7D8A8A806F6F77807A5F49469F
:100730004C4E575F6F90A8B1A38D82807D77757DF9
:1007400090A0A6A09390938A7D6F677288938D770F
:10075000676C7D8890959DABB3AE987D7275756C16
:1007600057444149515146444E57595C5C647A9014
:100770009B9B9BA3A8ABA8A8B1C1C6B99B75594EBA
:10078000443E363649626C6762647793A6ABA6A88E
:10079000AEB1A6826254575C6A77889DABA89D88EB
:1007A000756457493E3B49647D909DA8AEA8A095CD
:1007B000888288826F543B333633363B4C67889D42
:1007C0009D93888080888A8893A0A6A6A0A0A3A0D5
:1007D000A09D8D7D7267574436332B282E3B57756D
:1007E00090A3A8A6ABAEA69D9382808890857567DE
:1007F0005F5754575C6475888D7A62594C49596FBC
:10080000859BB1BBBBAB957D624E4949515C6A6C1F
:1008100067728282828D9090959B9D95888A85755E
:100820006A6F7D90AEC9CEBEAE987A5C4633282BF7
:1008300036464C5462625F6A809098A3A6937A6FA2
:100840006A6467778D98A0AEB1A0958D7759463EC2
:1008500041495C6C758295A6AEB3BEC4BBB9B9A65E
:10086000856A51361D1B2B41597D959890857A6C70
:100870006775828895A0A3A39D988A828893989B88
:100880009D9072513E2B100A1B2B3E5F829DAEBB8A
:10089000C9C1A695888082939D9B908D88828890FF
:1008A0008A858A9085725F513E394C6A82A0C1CE9A
:1008B000C9BBAB957A6C6A6259514C464141464678
:1008C0004E626F8095A09D908585888DA0B3BEC631
:1008D000D7DFD1B3937551332B2B3141596C726AE9
:1008E00064626A809BABB9C1C1B39D856A514C5C9F
:1008F0006F8AAEC6CEC4AEA0907D7262544E545F75
:1009000067676C7D88909598A3B1B3A888623E26EE
:10091000232E36415C7D98A6A39888776F727A88DB
:1009200098A6AEAEA6A6B1BECCD4DCD9C9A88254D6
:10093000331D13131B2E4E7795A3A09D9B9DA09B4B
:100940009085858A939382726F757A808A9BA6A61A
:1009500098774E33313B516C93B6CED9D1C1AE9D11
:10096000887564646F7A776C574444515C646F8215
:1009700098A09D9588828D9B9D9DABC6DCE2DCC4D2
:10098000A69385725F54515759544C4441515F6747
:100990007A9BBBC6BEA88D72646A6F7585A3BBBB0C
:1009A000AB9B887D7D6F594E5467757772727A98CC
:1009B000BBC6C9D4E2E4D1B18859392B1B10183B0E
:1009C0006A8A959D9B8A80776A6A7A909B989393AE
:1009D00093959D9B959DB6C6B99877573B3639360A
:1009E0003B547588888282828A908A7A758593952D
:1009F000939088858A8D9093A3B1A893887A67593C
:100A00005149496290B3B3B1B1ABA8A8A3988A93F6
:100A10009B8562412B202831333B51778A80726459
:100A2000595962728090B1CCCEC9CCC6B6A38D7A2A
:100A3000676A7D7A645C5C5954545C6A85ABBEAE6F
:100A4000988A827D756C676A88B3C4BBB3AB9882A1
:100A50006C5F514C5454443B445467809BB1B9CCB7
:100A6000D7C4AB9B856A51413E3E49626A5F595C7F
:100A700064645C59575F809DA09B989598989DAB46
:100A8000B6C6DCD7B6906F543E33333139546A72F0
:100A9000777D8082858D9BA3B1B9AB937D6C675FB9
:100AA0005C5C626F8590887A6F6759463B3B466A0B
:100AB0008D9DA3A6A8ABA89D90828088887A6A594C
:100AC00054545C6A7D8D9BA093806759595C647215
:100AD000808DA0A6A3A6A8A69885777272756F626E
:100AE0004E413B3E41414951647A807A7267646766
:100AF0006C7A8AA3BBCCCEBEA6907D6C5F57575C48
:100B00005F5F5C57596472829BB9D1DFDCCCB69DC4
:100B10008A7A6454494E5C676F726F6F7775675C51
:100B200059626A6F6F675F677A8D98A8BECED1CC25
:100B3000BB9B7D6449332B313E46494E54545F6A1A
:100B4000728098AEB6AEA39B989BA0A09DA0AEBBB2
:100B5000B3A38D7259514E49444E647582939DA042
:100B6000A3A69D9598A3A69890887259514C464C7F
:100B70005C6C6C625C5C59595F646F88ABC6C6C6BE
:100B8000C1B3ABA8A08A777575675754514E5967A2
:100B900067676F828A888A8D857D7D80828DA3B903
:100BA000B9B6BEBEB3AB9D887A7A82755C4C4136CD
:100BB000394C5C6A85AEC1B6A3988D80776C59516B
:100BC0005F727775777D7A7777756C6F756C595131
:100BD0005C6C7585959DAECCE7EAD9D4CCB18D72AD
:100BE0005441495C6254494E5757595957647D9056
:100BF0008D7D7D8585889090909BA6A0857275726D
:100C00006764625F626C726A64758582858D909B91
:100C1000AEB6AB9382888A8888807A808A8A755C2F
:100C20005451443B39415985AEBEB3A8AEAEB1B3C1
:100C3000B1ABABA08D6A4C443E33363944576A722F
:100C40006246414E54514946577798B1B3B6C9D11F
:100C5000C6AE93807D80775933283646596A7A9894
:100C6000B6CCD4C6B9B3A68A7564646F777A6C5C67
:100C70005F6A6F6C64626C6F5C3E1D152E46596A2C
:100C80007795BED9E2CCB3A8A09077594E59626748
:100C90006251494C494944465C7A8885725F596281
:100CA0006C778095B3BEB9A6908A8A806A514659FE
:100CB0006F77725F515F75888A8898B1B9AE957DFC
:100CC000777A7D7A675C6A726C5F442E2826231BD4
:100CD0001B36597588939DAEBEC6BBABB1C1BB9DDB
:100CE0007244313949627288AECCC4A377574C46FE
:100CF0003E31232E578098A0989BA8B6BBAEA0ABE0
:100D0000A88864442E2B2B33393E5F8DABB1A89B52
:100D100093887D75676F8DA09D90807D85857D6FA3
:100D2000626F82826A493126314E6A758DB6D4DC93
:100D3000D4C9C9C6BBAE90726F7D80776C646A6F90
:100D400072726F7D939580624C4C515C6F727DA680
:100D5000CCD1BB9882776C675C515F7D8D805F4C96
:100D6000576A808D8A93AEC6C9B99B88828595A340
:100D7000ABC4DFDCBB937A6C543B28182049758DDB
:100D8000939BAEBBBBB9B3B3C4D1C195644C4C54B7
:100D9000626C6F88AEC6C19D77624C3B3E3B3B5454
:100DA000778D9390A0B6BEC9CEC9C4C1B693624137
:100DB000393336445475A8CEDCCCB6B6BEB3A89849
:100DC000858AA6B6AB908082858A9398A8BBC4AE6C
:100DD0007741281D182B41597DA6BEC4BBB6B19BD7
:100DE000887A758093A0957A72858D8A857A7A88BB
:100DF00093958062595F6467728DB9E2F7EAC9B171
:100E0000A69885725F5C6A7D8D827272726C728048
:100E100093A8B3B195756A757A808595AEC1C4BB48
:100E2000987A7264513E333B576F77726A758D9B27
:100E3000A0A3B1C4CED1BE906C5951545F759DC46E
:100E4000DFE4CEA6886C51392B31445C72808A9DD8
:100E5000B3BEBEB9C4E2F2EAC9905941362E262883
:100E60004467889DA3A0A3A69D8A67576777888A51
:100E70007A727A808A8D8DA0B3B9AE95775C463B45
:100E80003336598DB1C1BEB3B9C1BEB198909DABD7
:100E9000A69B857A7D807D6F646C828A82674C44D4
:100EA0004149575C729BB9C1C1B6ABA08A755C4C15
:100EB0005972828A85807A6C645F5C7595A09D8A80
:100EC0007572726F6C676A8DB9CECEBBB1A6989001
:100ED0007D6259595959575C6F7D858A858AA6BEAE
:100EE000C4B99D856F594E49516F88909085828213
:100EF0006C543B1D1B31465154596F889BA8ABB3B2
:100F0000CCDFDCBE957D675149464662859DA69D36
:100F1000959B95887D6F676F777A756F7A80756C12
:100F2000646A859DABA893857759361D1323445F6A
:100F30006A6A6F85959B9B8D889098A09D8D8A8A03
:100F4000755F54546775756C594E575451515767B6
:100F50007D8DA0A09DA6A69B8875727A80807A75EB
:100F60008095988A7A6F77828D93806A6254494619
:100F7000495C7A8D9B9B8A85887D6C594E4C464195
:100F80003E33313E464C515F809DAEBEB9A6A0981F
:100F9000826F62677D909DA6A0A6B1A68862464634
:100FA0004C4C4E4C4E647580807D8895959B9B8DF6
:100FB00082776451444C6A7A7D7A6C6A757D7D7261
:100FC0006A6F72645F5C5C6C7772645762889DA321
:100FD000A08D858277674936414649575C6277889C
:100FE000959D9DAEC1BEB9B3A69D958577625F758F
:100FF0007D7A75645C574E463B3959808A8D887D71
:101000007D80807257515C5C595C5F6F8A9B9D8DBF
:101010007A8290909080726F67625F5F72909DA3FA
:10102000A6A8B6BEBEB3907D8A8D77624C41464C71
:101030005457577290938D8580888D8A806C6C850B
:10104000959B937D7A8080827A676A6C5F544C4E60
:1010500064727A7A727D9DABA89B8D887D6A5C4CA8
:101060004E729098958A8A9DA3A39B8A90A0A09384
:101070007D727A808282777793A6ABA89D9DA39B91
:1010800090724E4449443E363344515C676C829DB5
:101090009D90827A8DA3A8A6937D8898988D72647E
:1010A000645C54575C77A3BBBEAB959DA3A39B85A3
:1010B00075808282776A6C808A959B98A3ABA08D9D
:1010C00075676A645C514C5F829BA39D939BA8A04B
:1010D00093857D88959382624C54595C574C546F2C
:1010E0008A9B93858D90827A72758A98A09D8A8555
:1010F000939BA0A6A09B8D77675451677A82888ABC
:101100009DBBC6BEA680727A776A594E5975909B70
:101110008D7D7D807A6F6C7D8D908A724E4C5C6483
:101120006F778095A0A8ABA098989382777D939DC8
:101130009B9375575C676A6A64728D9B9D958080EE
:1011400098A6A0908A959DA09B80625751494141E5
:1011500057778DA8B1A39BA3987D6A646A6762598B
:101160004644576C82909DB3BEB3A68A6F6A6A5C90
:101170004639466F909D9B8A8593ABB9B6B9BEB68A
:10118000ABA3937A72726C5F596C8895A09B826C4A
:10119000645F5751596F808A908A82827D6F5F5950
:1011A0007280755F462E31495C6A758DABC1C9C1CD
:1011B000A890857D6A5146597288A0A6A0A3A3A3D2
:1011C000A0939398938A7D6C646467645964809556
:1011D0009B988A827D756C6A7590A3A3957A5F57F8
:1011E0005C594C41495F77857D675C5F6A80909868
:1011F000A8B1AEA3907D725C443126365C8098A382
:10120000A8ABA6A09D95959B907D67514E596264B1
:10121000677598BED9DCC4A6907A645444414C5F8B
:101220007780777A8080807D7A828A887D6A646719
:10123000645C59627582888A827A828272645757A6
:101240006A80989D98989D9D989395A0A8A8956769
:10125000443B414E59627793AEC6C6B19D825C4411
:101260003E495C6F80827780959D988A82888A90BB
:1012700095826C6A64544C4E5C6F82939385858D25
:101280008A7A6459647D9BB1A3959385726A6A7763
:1012900082888D88777780807D8295A8B3BEC1B122
:1012A000A098826241333944576F7572859DA09B27
:1012B00098958D827A644131363639445F85A6C669
:1012C000DCD1B9AE9D8877645F62677A8D90939028
:1012D000806F6F859DA8B1AE937A7D827D757277A0
:1012E0007D8593938588856F5441495C6C808885A2
:1012F00088959D9D958D8A88858A806454493E395C
:1013000049678298AEBEB9B6B198775C4E4C4E57DD
:1013100064676F8590989DA3B3BEBEB9AB958A8A6A
:10132000888280858D8A8D9895908D857A6C676C82
:10133000728098A0958575645C5C5C59595C5F5CB3
:1013400062645C4E4C5F82A0B6C9C9B9A89B8A7A18
:101350006759545462778A9BA6ABAEABAEB6B6B1B2
:10136000A68A6C544644495159677A98B1BBBBB1BF
:101370009B826C6C7275777D828588827D777577AC
:101380008082888A857D756F727A7D80858D908A4E
:10139000857A6F6C6C67676C6C6F77808A8D9095BF
:1013A0009DA6AEB3B1A89B85674E464E5C728898E9
:1013B000ABBECED1C6A8886A544C51596467625CF2
:1013C0005F6F808A8D8A88888888857A6F6A6A6F5D
:1013D0007D888D8D8D857D7A828D8A8580828D9D9B
:1013E000A89D8D857D756F6F727275756F6C6F724C
:1013F00075757A85909BA8AEA89885776F675F5CB6
:101400005C5F676F778295A6AEB3B1A395856C5488
:101410004139393B414C5C758D9B98887A7A7D7A4D
:101420007D7A77777A80828077726C6C758293A3ED
:10143000A8A0938D959DA39D9088888A82756A5FE8
:1014400057494146515F67625C595F7285857D757A
:101450006F6A6A64544136393E4C648098ABB6B9C1
:10146000B6B1A6937A64595759595959626C80900C
:101470009598A0A8A3958A807A7D827D7A7A7567EF
:101480005F595957596772757D8893989B93806F00
:101490006F6C67625F625F5C5F5F5C57544941518C
:1014A000728A959890807A80857D6F675F575967BB
:1014B00072778598A3A6AEB9B6A6907A62545759AA
:1014C000514E57646F7D90938A8A8D82778295986A
:1014D000908A8275726F5F4C444C545157646464B7
:1014E000728590939DA39B938D8075727A7A7577A0
:1014F0008080726C6F6F6F808D8A85939D9B938DBA
:101500007D6251545C627793A0A8B6C4BEB1A8981E
:10151000775F595C57575C54464C627580909B9836
:101520009393958D858A887D77808A857A726251BA
:10153000576772778082808293A098939BA39B9B2E
:10154000A3AEA8A6A3938080827A6F6C77808288EE
:101550008A807A858277727A7D756F6F64678095ED
:10156000A0A8B3BBAE9B8D7A5C51575751515964BB
:101570006C7A85827D82909BA3AEB9BBB6B6B1A3CF
:101580009D9B886C5F6775777A7D6F6A7A909DA85E
:10159000B3B3A8A0A095807D85857A72777D7D8084
:1015A0007767626F808A8A88887D75726C5C575F06
:1015B0005F5F6A8AABBBC4C6B9B1B1AB987D6A62E2
:1015C000594E4C413B4E6A808D98ABBBBBB9AE9B2C
:1015D000939BA8B1ABB1BBB3A0937D67646A675F0F
:1015E0006275828285857A75778082858A908D8200
:1015F0007A6F646A726C5C515F77858A8D807580C2
:101600008D908A8D938A7A77726F809BA3A3ABBEED
:10161000C9BEAE987A67676A67625F5F5C595C5F54
:101620005C6A80858088A0B6BBB9B1A0989B9B8876
:101630006F6262594C443E3B516F7D828DA0AEA8D3
:10164000A090776C75808280828A887D75675F6FD5
:101650008895938D9395887D725F545C646A728AD5
:10166000A8B9BBC4C4BEC4BEA07D5F5C5F54493E84
:101670002E283E576A757D85857A756F6C8098A097
:101680009B98A3ABA6A08D7262676A6F6F7782800A
:101690007777777A8893939093A6AEA698887A778F
:1016A0007D8077645C6A75757267647280827D750F
:1016B0007D85807A6F646C8298ABB1BEC9B9A08A0F
:1016C00072676A675F5954595C54515151575C674E
:1016D000727A8DA8B1AEA8A3AEBBBBB1957A777A6A
:1016E000726A645F647790A3AEB9C1B9AB9D8D880F
:1016F000857D776F6C77776F675F595C6A7A8A88C8
:1017000085806A57443B444E575C595F809DB1BB0E
:10171000C1C6CCCCC6B6988882726251464C515F25
:10172000727D8290908A827A7A808A9DAEABB3BEB7
:10173000B6A390807A777572625C6A6F6F6C6C6F1B
:10174000757A888A8A95A0958577778288857A6266
:10175000545962676A6A6F6A6C7D82777A7D7267B4
:101760005F64778AA0AEABAEBBBEB6AB9D908585FD
:101770008A8275726A5749444954575C645F6A8526
:101780009BA6A8A8AEB1B1B1956F5C544636282E81
:101790004154728582889DA8ABA398908582857DEF
:1017A00072808A8272646A778593988D888A7D6751
:1017B0005146494C51594E4C6A8A959595A6BEC6DC
:1017C000C4A67A6A6F726F625C625C5C645F626C12
:1017D0006A5C494151677582857D859395908882C1
:1017E0008277726A595462645C4E4C6282909B9517
:1017F000828A98A09B8D8D9DA8A89B7D6A6C727231
:101800006A626C726A6454464E5C5C574C4E5C640F
:101810006A6F6C778A958A726A859BA0987D676AE1
:101820006C675744465754463631466F939D989D92
:10183000C1D7D7CCA6826F5C51413349676A6764D0
:10184000647A939D988280989B886C4E4E62727DDC
:10185000756F85959385777277756446282E4E5CF3
:1018600057463E465467808A93B3C9C4AE9382807C
:101870007D7D725F6C9093826F5F5F646464595C7E
:101880008298988D858DA3B1BBAE9398A3906F4E2F
:10189000444E575F675C6A90A0957A625F646A6C99
:1018A0005C51729DABA38A7A6F676C757585A3A333
:1018B000825C4E596A757A6C64829B9585777D88C7
:1018C0008588858098BBC1AE989098A09D8D6757FC
:1018D0006A725F3B202841597A909DC1E2E4CEAE06
:1018E0009D957A624931395F756F5F6277858A931A
:1018F0009090ABB69B6A444154677D888595BBC97F
:10190000BBA3959B988A806A647A8A82644C5162F0
:101910006F858D90AEC9C4AE938A8A807572728AC3
:10192000B1BEAB825F59595754443E5980908A806A
:101930008898A0A6A8A6B6C9C198674C54677A88AB
:101940008285A3B3AB937D7D82776A5C6285AEB9F5
:10195000B19B90989B93887A88A6A8936A494C5922
:10196000626A6C80A8BEB99B756C757A776F6F8858
:10197000A8B3A6938D9BA39D908285989880542BA5
:101980001B20334C5F7AA8CED9D4C4BBBBAE936CBA
:101990004E62889B9D93808598A6B1AEB6D1D1B694
:1019A0008A59444E595F5C6793BBC9BE9D82808251
:1019B00082776262727A776A595C6A75776C7AA606
:1019C000C6C4A885757A8A938D88A3C9D1C4AB9300
:1019D0008A8A8062414467828A85756C7A8D98987C
:1019E0009DBED7CEAE825F59626C727293BECCC47C
:1019F000B193857D6C593E3E62828D8880889DA81A
:101A0000A6886C7D9DA89D7D594C464E595C729B65
:101A1000B6B6A893858588856C6482A3B1B3A89D6A
:101A2000A0A6AEAEABBBCEC198673B28282E2E2E0B
:101A30004477A8C4C9BBB1AB9D90725451646C7219
:101A40006C676F80959D98A6C1D1CCAE825F4944EA
:101A50004E54648DB6C6BEA3908D95937A5F627A1C
:101A60008A857564626467645C6790AEB19D7D67CA
:101A70006A77827D778DAEC1C6BBAEA69B856A5460
:101A800057676C6A5C4C515F6A75727A95AEAE9B13
:101A90007D67574946495980A6BBBBA89B9895933B
:101AA000826A64727D8A908D8A8D93959093A0A8A6
:101AB000A89B7A59463E44444457728595958D8833
:101AC000775C44313144576A7775778290A0A3A838
:101AD000BECCC9B99067493120150D2044678A985A
:101AE000989B9DA6A38A776C626467676C757A7D04
:101AF00077809DB9C1BEA88A6F5C4C3B364C6A802A
:101B0000959B959B9B8D775C515F6A6F725F494196
:101B100041494E546A7D858A82776F5F54514E6485
:101B200085909DABAEB3B1A0907A7277756A645917
:101B30005C625F594E4E6F95A8B6B19B80644E446F
:101B40003B44596C7A8A93989B9382645457514CC6
:101B5000575F646C6A6A6F7D95ABA3958A75675C05
:101B60004C4136415C6F80909093989088725C599C
:101B70005F59646C6C778288858093B3C1CECEB692
:101B800098754E311D203949546775829DABA090E0
:101B900080807D6C625C54514E4C494E6790A6AE7D
:101BA000B3A393908267463141515F778A95A8AE7F
:101BB000A390828A938D8A8A828282725F5157753E
:101BC000828593959085725C4C4E6A7D7D8088906D
:101BD000A3B3B3A0857D806F62645C545C574641BB
:101BE0004E6F8A9BAEAE9D9588725C515F75758213
:101BF0009BA0A8B1A08A7A758280777D7A77858D3F
:101C000088756C85A0A6AEAB9893886A46313B5C1C
:101C10006F7D88858295A39B856F6A625759626242
:101C20006C776F676A88AEBBC1C9B6A6A68D5F3BED
:101C30002E3B444149515F88A09B908AA0B1A8A047
:101C40008A6C6C807A6A5F6F93A8B1BEB9B1AEA09E
:101C50008267626F75727A756C80939385777A85E7
:101C60007D72726A72857D573E3E5975889893825F
:101C7000888D7D6C626C858D959B8D98B6B3A39590
:101C80008D93989898857580827A6C5C5F6F778564
:101C90008D8895A693755F5C7795A0A0938DA6B16E
:101CA000A08A7A77776F675C516780756A646A8506
:101CB000A0B1AB8D7D887D645449597788887D7A41
:101CC00095A0958D85828D909085757A90887D7D83
:101CD0008095B1C1C4BBBBC4B38A674C414C595F4A
:101CE000574C5C72757D807A82908D806A647D82AB
:101CF0007567595F7D9DB1AE9DA39D8885857D8863
:101D0000938D7D6C758A8A85887D7A8D9D9B88826E
:101D1000959D958A6F596272756A5F6C827D726C4F
:101D2000626F93AEB1A393989B9BA09B909BA3954E
:101D30007D6C757A6A646254596C726F6A6A756FE9
:101D4000625F575C7D95958D8DA6B6B1A68D777D2A
:101D50008A8D88858D9B9895958D8A9DA8A0959054
:101D6000938A807564575F727A7D77757A77777713
:101D70006C6C776A5144465C6C6F6F6A6C88A8BE65
:101D8000C1BBB9B6A698856C6C756C6257545C641F
:101D9000676C6A6C808D908D85808082857A6F807B
:101DA00093989895939D9D93857D859BA09B908509
:101DB000807A726459596C7775757277888D887DD1
:101DC000676262595959575C5F5954515F7A888AE2
:101DD000908D93A0A6A69D959DA09B9DA098959360
:101DE0008A7D7A859088776A5C5C64645C575C6AFB
:101DF0006C75888D88909B9B908885806F645C5102
:101E0000596C777A778595959BA69B887A6C5F59F4
:101E10005F727A7D888A80808280726C7A7D6F6C36
:101E20006F64626C77756A6F829098A8B1A8B1BE32
:101E3000BBA89B9585726F6F67646F6F645C6A7AED
:101E4000756C726A5F64675F59677A776F7A8282AE
:101E5000828A85756F88A0A09D988275808A82721B
:101E600075827D77889390939D9D9398AEA8938873
:101E70007A625757544C4C64776F6A7A82828A90A0
:101E80008A828DA09D959390807575756A6275881C
:101E9000858A9385726C6A5C4E515F62647782803A
:101EA00082909BA0ABB9AE8D807A6F6C727D82827E
:101EB00090A0A8ABAB9D8A858A8275778280777760
:101EC000757277858A85808A9595908264463E3BB7
:101ED0003941576F7D828D95A0ABAEAEABABABA653
:101EE00093826F5951575C646F82939898958A8852
:101EF000857A6F626475859095939095958A858AA9
:101F00009095938D88808085888A9093887D7A7259
:101F100062595C5959677D909D9D95887775756A62
:101F2000646A6764676C675C626F777D8A9BB1BE29
:101F3000B9AB958588887D7D82828293A3A39385A2
:101F40007A6A626A726F6C6C6451516A7A7D8AA097
:101F5000B1BBC1B6957562543E33445F7790A09B88
:101F60008A8A958D7D776C5F5F64645751647D804C
:101F70008598A0A3ABB1A0887D755F4E545C676F58
:101F80007D857D8095A0989BAEBBBEB69B6C494479
:101F90004949516C8285858D856A5754493941512B
:101FA000596C828A7D757D8882828D8A8280858542
:101FB0007A7D857D77889BA6A8A08A6A515157545F
:101FC000596C808D9DAEA38A807D6A5C5F6262677A
:101FD0006F6A544C59676F809398A0B1B19D857D0D
:101FE0007A6A59595F6C7A827D7575807A6C6F75E3
:101FF0006A625746362E3B515C6C859BB1C1C1ABC2
:1020000088756C5C545F728AA0ABAEABA8A69D8845
:102010007A77777772644E3E3B465467859DA6A6D5
:102020009D938572644E362E39465F72757775754D
:102030007D8895A0A3AEB3AB9B856F675F595F6A40
:102040008098A0988572625951545C646C757D8546
:10205000828080858D908A909590827D7D80889306
:102060009DA8B6C4BEA380644C4139333946678D00
:102070009B9B98887D756C6C6C727A6F574C46464A
:102080004E5F6F8090AEC1C1BBB3A0938885888D31
:102090009BA6A398989B9D9B907D6F7280826A51AE
:1020A000463B363E54728DA3BBBEB3AB95776457A7
:1020B000494654728D9DB1BBBEBBB6AEA398958800
:1020C0006F5C544C4C576A7A8AA0B6BEB19D8A8028
:1020D00072675C545C6F7A7D7D7A777D8A989DA665
:1020E000B1C1C9C4B39D85756F6F7285A6BBB6A318
:1020F0008A776F64514139496775757777777A7A4E
:102100007A8093A0988575676777888D93A0BBD4F4
:10211000D9D1B99B826C51444E678598A3ABABB1C2
:10212000B1A6907D757A8077645446464C4C5775BD
:1021300093ABB1A8A3988D887A6C727A85909595A7
:10214000908D9BA095908D8D90826C51332B363B5A
:10215000445C82A6C1CCC6B198886F5449576C8242
:1021600098A39D98A6B9B9AEABA69D98886F595112
:10217000514C445477A0C1C9BBA0887D775C3E36E2
:102180003946595F5F5F67777A6F7D9DB3B6B6ABAF
:10219000988D88826C626F8093ABB3A89B8D826AA6
:1021A00049495C626F776C67728290857D909893E5
:1021B000907D6759545C5F5F80A6B9D1D9C6AB8A60
:1021C0006F54362E3B46546A7A8593A0A390808242
:1021D0008A888A826A4E3B363931395C7D98B1B142
:1021E000A39B95886F5F758A95A6A3938888939D16
:1021F0009595988D8A886F5F4E4139282846729D43
:10220000BEC4B9AE9B8A6F46393E465964646F803E
:1022100093A09D9DAEB3A89575513E3636393B5778
:1022200082A6C4CCC1B9AB937D64575F646C6F6404
:102230005C5F5F676C6F859BAEB6A898989082755F
:10224000625F6F859DABA8A38D6C5C51444449547B
:10225000595757626A7A8885828D98A09B806A59FF
:1022600049515F647798B6C9C9BEB69B826A4E4130
:10227000495F777A7580888DA0A8A09B9D9D9072FC
:102280005F5446413E36395985A8ABA39B8A7D7D74
:10229000726267829B9B888085858A959598A6A89F
:1022A0009B7D6251362323232B4C77A6BBB9BEBE40
:1022B000A8988562545F75827D7A88858A9DA6A6D6
:1022C000B3C4CCAE826F574144443B4C729DB9BEFF
:1022D000BBB1957D7564595C6A6A5C4E5157596A09
:1022E00075727D95ABB1A0908A808088807D90AE1C
:1022F000C1B9A6A0907A725C494E627577675F5F3C
:10230000596F8A939BABC1C6A88575645C625C5F9C
:1023100077A3C9D4C9C1B39882674136465F6A5F63
:1023200051596A80959898A3ABA895725C54443E25
:102330003B36496A90ABA69DA39B938A776F7D95A8
:10234000AEAEA0A0A09BA09D9DABBBBEA6775449FE
:1023500041392B20284162889B9DA0A0988A7A6AE7
:102360006A6F7A7A6254627288989DA8BBC6CCB1B3
:1023700080645749443E445F82AEC4B1A6A39B8D9E
:102380007562677582886F514E51515757627A95C1
:10239000AEA688808D989B938A90A3BEC9B9A09D54
:1023A0009B8867463E4E626F644139495459627258
:1023B0008898A09B775F64645C57596F8DAECCC4DE
:1023C000ABAEB6A8937562626A7D806A64758290CE
:1023D0009393A3B3BBB9905C51514C463E3E4C5CC9
:1023E00075807575827D6F6259647A93AB9B859019
:1023F000989B9D989DB1BEC1A67257574E412E1D08
:10240000263E6A857A7793A09D93807A808D9888FE
:102410006A6C7D858D8A8A9DB6C9BE9882858077D3
:1024200067545462778D8A8093A69D8A6C59678021
:10243000958859464E4C464441546A777A62576CA7
:10244000808A95959DB3C9D9C9AEABAEA08D756292
:102450005F677A77625962625C59515F7D9BA38D99
:1024600075757775726C6A758DA3A89B9BA3A095F3
:102470008264595F6A7A6F5F67727782888DA0B1D4
:10248000B9A682726F676A644C49576C7564627250
:102490007775725F5C728895908893A3ABB3A89DA3
:1024A000A8BECCC4A38A80756C624C414954574E77
:1024B0004C5F7782887D6F778A98907D75756F6F96
:1024C0006C6C8098A09B857A8082807D6A5F6A7739
:1024D00085858595A0A3A3938585909DA398938DCD
:1024E0008075674E414C59625F5F646F808D909834
:1024F000ABB6B6AEA8A8ABA8A6988075726F6F6A87
:102500005F5F64645F5454626F7A756F6F757D8826
:102510008275778593A0A6ABAEAEABA08A80858589
:10252000827D77757A828A858A9BA8B1B6B1A6A08A
:102530009B93826F6C726F6A645C59626C6C5C51C5
:1025400059646C7A828895A3A39893A0B1B1B3B370
:10255000ABA6A39B8872645C544C4E515C6C7D8529
:102560008082939DA0A6A3A0A0A0A09388888D8D13
:102570008D93939093A09B8A858A887D776F6C72E8
:102580008590959393938D909B9B9898907D675998
:102590005957575C59545967777D8090A0A6AEB6BD
:1025A000B3B6BEBEAE98909393908A8075757A7DCF
:1025B0006F64676A6C75777A8598A39D908D939800
:1025C000989DA0A6B1B6B19B887D726A645C5C6779
:1025D0006F726C676F8593959593959DA09D93857C
:1025E0008580776C64646C75807D72757D8085886C
:1025F000888D959DA09D989BA3A6A6ABB6BBBBB3AB
:10260000A085776F6451443B3B3E4E5F62626F82B0
:1026100088888A93989B9D907A75808D938A88820A
:102620007D8590827275776F64626C7585958D80FB
:1026300082939B95939DA6A8AEA07D64625F514452
:10264000444E5C6F7A776F7D95A0989395989DA87E
:10265000A68D828D8A7767676A67676757444E5C85
:10266000594E4E5759647A7A6F7A8A8A807A889B53
:10267000ABBEC1A6909093887A7D7D7572776C59B8
:102680005F727D777D8A939BA6A3887A807D6C5C40
:1026900057514C54625C54596762595C676F7D9026
:1026A0008A756F809095989DA6A8B6B99D80776F22
:1026B0005941333136495F594C5467757D7D828A63
:1026C00093A3A08A8088908A807A7D85959B908547
:1026D000888D887A6A5F595F6A67595F7277756F0C
:1026E0006F778A9B95775F59574E463B3E444E5CC9
:1026F00059576A7A8082807D8AA0B6B9A8A3A6A31A
:10270000A3A098938D887D644E4C4644413B414E36
:102710006475756F727777777267677D95A6A098F5
:10272000958A807A675C626F776C5C5C5C5F6F77C0
:10273000727D8D98958885857A776F574C54646C37
:10274000625C67676A726C6A77888D827272777A68
:10275000888D8590ABC9D4C9BEB39B8D82674E4C22
:102760004C44362B364146545F5F6F8595907A72A4
:102770006F676F7772778A98988D888D8880806F61
:102780005F6777807D7A82827D8A95939BA6AEABC8
:102790009D9080675C574C4654646A6C7277726F88
:1027A0006F6C676F809093989DA0A0A6ABA398983C
:1027B0009890806F5F4E494E4946546A726F6C67BD
:1027C0005F5C676A6262728595A3AEB1A8ABAB9D90
:1027D000989DA6A093806F62646A64647A98AEB68E
:1027E000BBBBAEA09B90776C727267595146414E4D
:1027F00059575C6F82827A756C5F5C64646782A8EB
:10280000BBC9D7DCD1BEB19B776767675C575C5F9C
:102810005C6A77777D93A8A89B90826A5962646707
:102820007D9BA8AEB6BBAE98989377676C77756FB3
:102830006F67575C6F7A8090A6AEA3A09D8A75756E
:102840006C595464777775776A5457625951627D31
:102850008A8A959D9595A6A69BA3BBC9BEAE9B777C
:102860005754574C49628090939895857D806F5757
:10287000576F7D7A7A888A8A9DA89D9BA8B1A38587
:102880006F59413E4941394E7798A6ABB3A89D9DFB
:10289000957D75828A806F6C6A62677D7D7A8DA670
:1028A000ABA08D775944464C516C95B3C1C4CCCE86
:1028B000C9C4B995756A6F6F675951413E4E5F62E1
:1028C0006C85989585756251515C5C6482A6C1C423
:1028D000BBAB95827D72625F67757A726A6A6A774E
:1028E000888588A3C4D7CCAE98887D7A6F62647AD5
:1028F00093988A7A756C6F756454596C7D756767A7
:102900006C72808D95ABC9D7C69B725C493E4141C4
:10291000496488A3A090857A675C51465167808599
:10292000778098A6B6C6BEBBC1C9C9A67A5C3E2848
:102930002B394C678DB3BEAEA8AEA8A0957A6A6C51
:102940007D857257544E4C5C677285A0B1A37D5F44
:102950005141414946547AA8C6BEAEB3B3AEAEA00B
:102960008A8082857251464E54646F6F7A93B1B6F5
:10297000937267574E5157678DBEE4DCB9B1B1A36E
:10298000988A75676F80806251575759676F7D9D30
:10299000BEC9A8755F595151514C5F80A0A8908065
:1029A000857D6C645959677785755C6C8895A3AB98
:1029B000ABBBD7ECDFB18A72513B393E517295A661
:1029C00093807D7A6F6454464C5C727262647D9031
:1029D0009DABB1BBCCD4C695644E3E363E465475D5
:1029E00095B1AB939098908A806F6C7A8888674E87
:1029F00057676F777D90A8C1CCB38A776C57463BF9
:102A0000415C88AEBBA89DABBBC4C4B6A8A09B88E4
:102A10006446414646444657758A90826246464916
:102A20004C4C546C8DAEC4BEB3B3B19D85726C7505
:102A30007D827A6A6F85959D9B9BA3B1B6AE957595
:102A4000645C59595F7593A6AEA38D8282807A6AC1
:102A500062676C6C6759545C7280858A9DB6C9CE7A
:102A6000C1A68D7D72675454677A85857A6F6A6CCA
:102A70006454464C5762676462677790A0ABBBCEE4
:102A8000D9D7C4A89080756A5C5C7593A8A8A69DE8
:102A900095959B93827A77756C64625C5C64645CE8
:102AA0005C6F828880776454545146414C5F6F7AE2
:102AB0008898A0A6B1B6B1B3B9BBAE9888776A6A58
:102AC0006F6A6C7A888D827A7564575C5C5964751C
:102AD00080858D9B9B939593857A7A80807D828873
:102AE00082858A82777575726F72776C5F62676AAA
:102AF00075828D8A888A82726F72675C5C5F64649B
:102B0000676F6A6A727A8595A3AEB1B3BEBEB3AE83
:102B1000A0886F625F625C677A7A777D807A726C78
:102B200062544E59625C57575F6C7D8A90939B9BB1
:102B30008A7A726A676C7577777D8D938A857D7ADC
:102B40007777756C6C7D90908A827D7D7D7A7A7ABC
:102B5000808A887A6C6764625F595459758D939343
:102B60009095A0A8ABA8A0A3A395806A57545454ED
:102B700054576477808075625F645F59514E596C19
:102B80007A80828A9390827775808D989582777A01
:102B9000808082828895A0A6A08D858885807A779E
:102BA000808D9590807575726C676262676A6A5FE6
:102BB000515464676C757D8DA0ABA6907D7A776764
:102BC000595762758A9593888A8D806C5C57596ACB
:102BD000776F5C57677582909DABB6C1B39885825D
:102BE000806C59545C7285908D80808D908A888825
:102BF0008A9398907767676757494C5C728893858A
:102C00006F6F72645751545F72858882828D939082
:102C10009093989DA3987D646267676C7D90A6B63B
:102C2000B9A07D6A675F4E494C576C8D9D9D9DA3F1
:102C3000A69B958D888D938A72595962625F626CEA
:102C40007A90A6A6907A756C62646C758293958270
:102C50006F757D756A67676F859388726F75757A12
:102C60008A9BA6B3BEB9A0908D8A7A6A625C67809F
:102C700095938A888D887D7777777D806F544C54C3
:102C800059596A8090A8C4C9B69B8A7D6757596212
:102C90006C808A857A8093938D90908D9095907AB0
:102CA0006A6A67626C808D98B1BEB19B90887764C8
:102CB00062626775889895989D989095A0A3A3A641
:102CC0009D826A625F57596A758293A39D826F677E
:102CD00054444C59677D939D9890989D9B9B9D95DE
:102CE0009090938D7D7D8077778895A8B9C1BEA897
:102CF0009890806C646C727A828A887D7D7D75770D
:102D000085909BA6A69D826F6C62576275889BA872
:102D1000B3B6AEAB9B7D6F75777D8080807A7D8208
:102D20007D7A82827D7A6C67645F67675C6A85A062
:102D3000C4D7DCD9C4AE9B806C6C6F7782889BABA8
:102D4000ABB1AB9DA0A8ABAE9B8577675C574949FB
:102D5000545F6F7577858D88827262676F778A8D11
:102D60008A9088888A88909BA8B9B6ABABAB9D93B4
:102D70007D6F727D8DA3A3A6AB9B85725951545F65
:102D80006F726C7D888A90908D95A0B1B69D8D8A6A
:102D9000776A6762626C80959D9DB3B9AB987D64DC
:102DA0005C5F6F776467756C6A6A646C7D8D98850B
:102DB00077888A7D776F6C7285A3B1AEBECCBEAECC
:102DC0009D8880828D907A728280757572727A8504
:102DD0008877626A6F5C514E4446576C7D7A859D58
:102DE0009B8D826F5F5F6A808280939B8A8A8D88C9
:102DF000909BA6A0888A95857A7764595C647577DC
:102E00007A9398857D6F5C5F646A6257626C6A75BD
:102E100082828A9DAEBBB3AEB3A082775C41444C44
:102E200057595F7A908D8A775C515454544E576A43
:102E300064626A62627A8A8880778080777A726256
:102E40006A80909BA6B9C9BEB3A07D6F756F6A6A90
:102E50006F7A77727262576775726F6C777A6C648B
:102E6000513639464649596F88939DA69588908A70
:102E70008080807D7267645444546F72777D828550
:102E80007D80775C515F5C57677D939DA3A3856AC6
:102E90006C6F64626A6C6F778A887A859D9D9BA34C
:102EA000A093888072513B44463E495967728085A1
:102EB0007257575C4E464C4E57626F6C5C62809006
:102EC00093A0AEAEABABA68A6C6C6A5F6272809365
:102ED000A6B1A3806C6C6257595C5C646C6A5F62DB
:102EE000727D7A7D85889090856C4C44494649571F
:102EF000627590A0A39B908D857A77777A82807592
:102F000064515159626A757D8D938A826F5C5959FB
:102F100057596A88ABBBBEB9A89B958A827A757AE5
:102F2000776C675F59677D8D9390989D8D7D644424
:102F300033363B414967909D9B9D907D77756754E3
:102F400057728580807A6A6C808D8D8A9DB1A89D2C
:102F50009582757A827A6F7DA6B6AEAB986F626401
:102F60005F54516A7D6F676C6A7293A6A398A8CC70
:102F7000C6AB9D7A5146463B2E3664858898A3930E
:102F8000888D8A6F5762776F6467594E67858D8A1F
:102F90009DBEC1ABA093756A726F5C628DB1B9BB07
:102FA000BEA69090938272779093827D72626F88B2
:102FB0008D7D778A958A82755444494C4444649542
:102FC000A8AEB6A89BA3AB9B7A728A958880725CE8
:102FD0005C6C77727288A09B8D80675C6C7A72647F
:102FE0006F95B6C1C1AB90888D82726F829B958AB6
:102FF00080758098A6A09090A6B1A3907562626437
:103000005C4E4C678A959082727577756A575C77CB
:10301000807767545C758D9BA0A6C1D9D7BEA3905D
:1030200090908875626C95ABAEA393908D7D6F592F
:103030004C5F756F5C4E547593ABB19B9BB1B3A065
:10304000856F6F6A62594E4E7AA0A393807D8890F7
:1030500093886F7A9BA09072626A727777675F80BD
:10306000938A7567758A9398886C7DA8BBB39D9584
:103070009B9D9DA09090B3C4AB856A72858D907D19
:10308000627593886C4C414C4C494936417AA0A6F4
:103090009888909895957D647D98907D646A8290DB
:1030A000A0A08D95B3B9A3887D88939593776A88FE
:1030B000A8AB9B827A7D6F6454394975806F544602
:1030C0005C7A9BB3A395B1BEB3A085808885856CDF
:1030D0004C628D95907A6C778082755149647267E5
:1030E00051363E596C82776782A6A6987D728AA077
:1030F000A89B726C95B1B19D8888909395827795C5
:10310000B6B19B776272828A8264647D7D6A513E29
:103110004C646C64442E5172808272728DA0ABA399
:103120008A95B6B9AE906F778A95957D6F859088B0
:10313000755149626F726751628898A0988890951E
:103140008877574E758D9085676A93B3C4BB9DA3EE
:10315000A898886A54677A807A5C5472858D856AEB
:103160006777776F543E4E6A726A4933465C6A6F7E
:103170006777A0B9BEB69DA6C4C9BEA0808AA0A626
:103180009D82758A958D7D5C59777A7257333B594C
:1031900067777775909D9382625772807A6744490A
:1031A0006A7D8D8A77889B958D7A7593A6A3957293
:1031B000647A888A826F72888A82674E62808A8A7D
:1031C000755F6F7D7D7A6464828D8D827280A6B614
:1031D000B9A0828DA6AEAE93829090826A41395793
:1031E0006262513B4C6C808A807288958D7D6259F9
:1031F0007A8D8D7D5454778D98908093ABA89B7D6C
:103200006785A3A69D85809BA8A8A0828AA6A6986C
:103210007757647A7D77543649595F6462779BA605
:10322000A38D6C7A9BA0906C5462778A937D759B7A
:10323000ABA3937772888A805F333E5C6A6F6A6A59
:1032400088A0A6A07A6C8D9DA09B807D959DA39063
:103250006C80988A755C547A9BB1AE8885A8B1A8B9
:103260009D888D9D9B8A592E49727D775F4E596A44
:10327000756A49547A857D756C82A8BBB68A6C885C
:103280009D9893858095A6A3885F6C9393826F5FCA
:103290006F88938D6C6495AEA08A6A5F778D9880F5
:1032A00057648288909390A3B1A8884C3B64756F53
:1032B0006754546F88958A7D9DB6A6937762728510
:1032C000856F3E365F6A6262546288A3A88A7595EC
:1032D000B1AEA8958290A3A69572759B9D908064CF
:1032E0006C88958D64465C6A625C545C82989575C6
:1032F0004C5F8D9B9888676477807A5F577A887A6D
:10330000674C4E7A9BA38A646F8D88827262758D3A
:103310009085645C829595938282959588674962D1
:1033200082827A625772909D9B807D9BA6A098882E
:1033300090A6A08A5C363B515146312639516267CE
:103340005F6C95A0957D6467808A8A7559647D88D5
:103350008D82829BA69D8A645C77888A806F809527
:1033600098937A647A959382675C6C7A85856A64AF
:10337000777A6A5446596F75755F4C6A93A0957A4F
:103380006F7A7D80806F72909B8D7A6F8088827A51
:1033900059394451493E3949677582887785ABB6BA
:1033A000AEA39BA39D9593776A8090886F5C5967C5
:1033B000758D9580829DA08D80777D7A7572543E43
:1033C0004E626262646A726F7A75595F756F5F5799
:1033D0005767778DA08D85A6B6ABA39B9B9D9DA0BF
:1033E0008A6A6F828072645959626F72595472800E
:1033F0007A776F6A6F80908D8293A3989090959B57
:10340000A3A69572677A7A6F6A625C626F756A6466
:1034100082989088827A7A82887D5F5C67574E4E68
:1034200046465972888D93B1BEBBC1BEAEA8AEAE42
:10343000A098A3AEA39D9B90858D9388756C6F67B4
:103440005451493B4C676F675F626A6C7A82757250
:10345000889395959DA8A39B9B826A75888A888886
:103460008D8D8A938A7272888A8588909593989BAD
:103470008880989B82756A5F5C5C62594C628A980E
:10348000A3AEB6B9BBC4BEA39BB3B3A39D95857AC7
:103490006C624C3644544C4C5F6A7582938A6C6CF7
:1034A0007D756A72726C6C77828088B1C9C9CCCC28
:1034B000B9A8A39880676C80828595959098A6A8F6
:1034C00098909B988A8D8A7772756C57464959599E
:1034D00064756C626C7A807A7D8A9093A6A6A0AEA1
:1034E000BBB6A393939B9895937A6A6459494146D6
:1034F00057677785807D8D9593909095A3ABB1AEFE
:103500009B9BA39B90887A7D858A8D8A8D9B9895BD
:10351000958A858D93938D82827764625F576472FA
:10352000756F676C72676462575464727A7D8085C8
:1035300085889DA6A3B9D1D7CCBEB9AB9590886C30
:103540005F6A6F727577776C6F80755F646A5F62B0
:103550006C8085889BA3939DB9BEB1A09077595488
:1035600057413B5C777D859095959DB1A88D909B4B
:103570009388857D6451545441415F6F6C77888D89
:103580008890A8A38A909D90888D938A889BA39009
:1035900095B6BBABA3A08D7A75724E313B4C4E5C99
:1035A0006C644E4959645F6C888D8A989D9898A385
:1035B000A3886F6C675759625957647A827D8DA3CF
:1035C000A3A0A69D8D9098958277828D93989077F1
:1035D00067676C624E4C575C6A7A7777889BA098D5
:1035E000909BA6A8A89B8577726C5C4C57676A6A0B
:1035F00064575C6F777A6C5C57595F625F5F6C777A
:1036000080807A8AA8BBC1B3A39D988D856C5762D0
:103610006C757772777D859093939DA8A89B888021
:1036200082807D7254444E5C64625C5959595F5C7F
:10363000545F72756C6A6F7D8DA0A898909DA6A04E
:1036400093827A726A64513E4E646C6C6F6F6F75D0
:1036500085887A809BA8ABA6989090989B806A7783
:103660007D756F6C6A778D9D98807A827A6C6257CF
:1036700054595F5C4C547A9093908277808888721A
:1036800057545C595C625C626F7A7A6F80A3B1B602
:10369000B9AEA6AEB6AE93777A7A675F5144495910
:1036A00064626275857A6F6A5C64809395858090A8
:1036B0009DA6B3AB938A88775F4C515C5F6C726A4E
:1036C0006F8088857A77807D7575645C6C7A777297
:1036D0006A7582858D88757A888A857D82939593AF
:1036E0008D726C80939893909BA3AEB9AB98A0A673
:1036F0009B826754463E39312631444946465777C6
:1037000093A6A8988D9BA6A6A3958D8D88806A59AF
:1037100064778282808295A09D90756C777D82828D
:10372000828A9BA09B908A9398938A7D7777726711
:10373000574C5C757A80828593A6B3B3A6A0A3A3E9
:10374000988A7A6F6F756F5F54575C626C6F6A729C
:1037500075674C3636495C6F828893ABBEC4BEC178
:10376000C6C4BBB9A89595958A75646A757A807A3E
:103770006A6A7D8A8880859098A3AEA3908A826ABF
:103780004C3B444C4E595C5F72939B8A7A777D82A6
:1037900090A0A0A0AEB9AB9895A0A09895886C6AAF
:1037A0006F67514C54595C64676267808A827D8878
:1037B000939395A3A6A3A8AB9B82808D95959DA37B
:1037C0009B98A6A3826257493B3E4C5151647D852C
:1037D0008598A8A3989B937767624C2B233141511E
:1037E0006C889095ABBBB9B6C1C6B9B3BEB6A8AB31
:1037F000B3A388776F6767757A6A5F676C5F5151AB
:103800004E49576F726F7A857D757A8D9395A0A01A
:10381000938D95907A6F77776F77806F646F776FFE
:10382000676F7D828D9D9B8A8A9385726A6C675FC4
:103830006A6F646C8085807A7D7D757D8D9093A0A4
:10384000A39893A0B3B9BEC6BBA0958D7A62494434
:103850003B36414C3B333B444E5C7282888D9D9895
:103860008A93988D827A7A75778A989090959390BA
:103870008D8A82726C726A677D939BA0A6A6A0A3B4
:10388000AB9D827264574E46464951677A756C7596
:103890007A7D80858A90959D9890959B9B98908A3B
:1038A00085808077645F6A6F726F67574C494941C2
:1038B0003E4C5C6A77889BAEC4D4D4C1B6B6AB9D8F
:1038C000907A6A6462676A6C757A7A808A98A8B31B
:1038D000B6AB988D908D85775F4E49464946444EEC
:1038E0005C6A77828280776F64595F6F808D93986E
:1038F000A3B3C1C9C4B6AEA393887D72726C67626C
:1039000054515F6A72726C757D80857D758293A358
:10391000ABA3A6ABA6A0957A6F7272726C6A6C6448
:103920005C5954576A7D888A8A98A09B958A7777D4
:1039300085857D6F62625C5457544E5F6C727582F0
:103940009BAEB6B9B1A3A8B6B9B9AB9D937A6A6A72
:10395000676A7A8282808085775F4E3E33415767FF
:103960006F728090939BA398939DA39B8D827A6A9C
:103970005C544C46546A77808088908A8A8D828015
:10398000858582808085888080808090A3ABA39588
:103990008D7A5741393141627D9098A6BEC6C9C91A
:1039A000B9A39B938872625C4E3B3B4446515F6473
:1039B0006259626C67626A6C778DA6B3B1AEAB9BDD
:1039C00080726C64677277777D90A0988A82756F39
:1039D0007D8A8D85808075677282888D989B989589
:1039E0009D98806F6A62595757544E57625F5F7255
:1039F000808893A0A8A8ABA8957A676259575967A1
:103A00006A6C757562514C494144515C6A7A8D9378
:103A100098ABC1CCCCCEC9BBAB9B8059443E414690
:103A2000576C7A829098938A8A887D6C6462626708
:103A30006F6451515C6A777D8282858880675449C2
:103A400046464651678098A6A0989BA6B3B6AEA6F8
:103A5000A3A098856C5F5F64675C5457595F5946B3
:103A600041516A828D8D95A8B9C4B69D98989B9D49
:103A7000908080888A7D675C59595C51444C5C6CAD
:103A80006C5C5762728893888293A3A38D6F5F6288
:103A9000676C5F4E54677572676F8AA8C9D9C9C4CD
:103AA000CCD4D1B6938075757A6F64728898907A09
:103AB0007775676246201D3149594E4C6480A0BE1F
:103AC000B6ABB3C6C6AB8877757A8A826C6A7785DF
:103AD000806754596275806F647A98A39D8D8D9527
:103AE0009DABA08882909B906F5C626A7272574C0B
:103AF0006F98A89D8D98B3D1E4D9B1A6B3B1986C55
:103B00004C494951543933576F67492B314E6A82BA
:103B10007D646F909B95858298ABB1A68582ABC181
:103B2000BBA69098A8ABA68259627A7A6A49445F8C
:103B300077909B9095B1B9A88A727A858277513136
:103B400041575C57464E6F8AA0A090A0C4CCBB984A
:103B500080889BA8A68A778893907A5C5F75756A3F
:103B6000461D26495C645C577595ABB6A6A8C4D1C2
:103B7000C9AB82859BA3A38A75859593805F577A8D
:103B800098A698756C7D888877626A7A776C5149B7
:103B900067808275574C6A808272544E5F676A6490
:103BA0005F82B1C1BBA6A3B9C6C6B9958DA6AEA3A7
:103BB0008D72727D77643B1D314E5C67646C8893B7
:103BC00095907A88ABB3AB90757D8A9095857D9BF7
:103BD000AE9D80594C595F625133416F8A9DA0A0C0
:103BE000ABABA0906A59727A6C573E3E576A7D77AC
:103BF000677A98A0A398909DA6A69B7D82A6B1AB5C
:103C00009D8A90A0A39D826A85A0A08D623B2E2BE9
:103C10003333283B626C75726F8AABB3B39882956D
:103C2000A3A39D8A7D807D77674E5F7D807D6F5FDA
:103C30006F85939B8A90B1BBB3A382727A7A7259D3
:103C4000495C77828D806C7275726F5F6A88939819
:103C500095828598A0A39B98B1B9AB956F57595F92
:103C6000594C33364954676F646F8080756767823B
:103C700093958D6F647A90A0A6A6B3BEB9B39B6FDF
:103C8000645C4C443B496A80959D9095AEB6AE9578
:103C9000888A8A88805F44464E5151515F6C7275A4
:103CA0006751576C72726F758293A0A3958A95982D
:103CB0008D827D858D8A85673E3336363949627DB2
:103CC00090A0A69593A6A8988A8588909BA390809B
:103CD00088908882807A756C6A5C494C59626775F5
:103CE000889BA8AE9D7557514C494E5762728AA069
:103CF000A0908880674E46464E5C6A675C647D98FB
:103D0000AEC4CECED1CCC1A0807264514646464CE2
:103D100059645F5764777D85909598A0ABA3856FB4
:103D20006C6C6C809098A8B9B39B7D6C5941393EFE
:103D30003E465C7275727D8D9598A3A09593907A9E
:103D40005C49494C516C8A98A3B3B69B82807D6CC8
:103D5000677272758DA6ABA3A3A39893A6B1A8A012
:103D60009D8A6A51493320283941516F827A6C6F9C
:103D70006A5F64808A8898B1B1A8A8A89B93989537
:103D80008275756F5444413E415F8898A3B9C6BEA1
:103D9000AB9D8A6C5F6A6F6A75909D98989B8D77D2
:103DA000777A6C6A7D887A6C6A6F7288A8B6BBC6AF
:103DB000D1C4A68D754E3B4146444654594E4E578C
:103DC000575C6A8085828D9385776F64595F7D9B90
:103DD000B3CEEAEFE7D7BEA07D64543B313E4E54EC
:103DE0005F6A757D90B1C1BEBBB6A3886A4E36319D
:103DF000445F6F7D8A887D75644E464C5C6A778D22
:103E0000A6B3BBBBABA09DA0A098938A80776C544F
:103E1000443E414E596475828A8A7A625C626F8040
:103E20008A939DA3AEB1A8A6A3A8B1B6B6B3A89B2A
:103E30008257363139495F6F7D88939D95806C62DA
:103E40005954575C646C808575676F7577777264B9
:103E50005F646F6454596C82A0C6DFEAF5FDE7B673
:103E60009888756A645F57515F6C5F51575F6C80CB
:103E70008D8D85858A7757494E597290A8B3BED7E4
:103E8000E2C9A38D77625951494459757562626FD1
:103E90008098AEB3A69BA093674641414E6A808846
:103EA00090A8BEA87D6A646A7A85888290B3BEAB0A
:103EB000A0A3A8B1B6B9B3B3C6C69D6C544C4C54BC
:103EC0005446394967674E3B3B445767727785A62E
:103ED000B9A68D909BABBEC4B6A3A0A082543631C8
:103EE0003B59778D9DB9E2F2D4AE9B88827A6754B4
:103EF0004C627D82726F7A90A39D8A7A7790936AE2
:103F00004439467298ABB9C4DCF2E2B6958885852F
:103F1000776A677593956C493B44626C625C5C722E
:103F20008A7754494E6C8A8D93A3C6F5FAD4B1A012
:103F3000A3A8936C51465C776F5C62779BB9BBBE5C
:103F4000CEE2EACE884C3639494C444E67889D858E
:103F50005F545C676C544657759BA682758AA6C4ED
:103F6000C4AEB1BBD1D7A8756262727D6C6A7D8D1B
:103F7000A698674E515C6C6459647D9DB398828DA0
:103F8000A0B9BBA3A0AEBEC69D573331445F6264E7
:103F90007A98B3BB95777780887A54465475938224
:103FA00064626F80907D6A6F778575412831466CB9
:103FB0007A7A98C4ECFFDCB1A6ABB9B99075727A85
:103FC0008D7D54464E5C6C64576C8AA6A87D4E4429
:103FD000465C6A5F64809DB9AB8D8A93989D7A51E7
:103FE0004954676A5146576A82908A98B1C4CCA6F0
:103FF0006C4E444C625F5F7DA3C6CCA88D827D80F1
:10400000724E414C627A7267778DABBBA898A6BBA3
:10401000D4C9956C5F5F6C6754545C6A6A4C3133E9
:1040200041515C4C4C6488ABAB8D8082889085722A
:104030007A90A6A88054464654594E597AA0BBB1EE
:10404000959098A3A3886C5F62757A64596F859385
:10405000958D93A3B1AE824C362E2E2E2E41648DBB
:10406000B3BBA098A3ABA893756464727A62464E02
:104070005759574E5462728D8259494E57646F7D1D
:1040800090A3BBC6B1A0ABAEA898887A6C6F7762DC
:104090004449626F6F6F7D8A9DB9B9906F6A6454AD
:1040A0004E575F647A8D7A5F626F6F645C595159C5
:1040B0006F725F6277807D8295A0A8B9BE9B7D7785
:1040C0007A72646775778293805C596F72645C6200
:1040D0005F627D8A7A728595908A9DAEAEBECCB3C2
:1040E0008D7D7A644946575964777A67647A857218
:1040F000626A675C5F64544E6A857D728295989BA4
:104100009D885946464139466C889BB9CCC6C1C981
:10411000C9AE959895827A7A6C62646F6A596277B3
:104120007A7D887D62545C5F4E546F7A7D888A8286
:104130007D8595908898A09B9B988872676762514F
:10414000596A6F7A85857A6F6F6F5F5F72858D951B
:10415000958D8A98A39B8A8882756F6C6462677557
:10416000808598B9CED9D9C6A898908875646A6CAC
:104170006C726A5F5957544E44494C4C54574E54D4
:104180006A80888893A0A6B1B19D90908D82727745
:104190008A98A8B3A690909B9B9088857D777D7523
:1041A00064626F77726C7A8A95A3A893776F6F5F5A
:1041B0004C4E5F646C77776F809BA69B95A3A8A6F7
:1041C000AEA68272808A806C6F776F757D67514E64
:1041D00059544449626F809B9B888090A3A0A0B1F2
:1041E000B3A8ABA89085939D8D7272858D9BAE9D73
:1041F0007D7580806F6A7780808A82625464776F71
:104200005F5F6259626A513B4C677775829BA6AECD
:10421000BEAE8D85908D776C8095A6BEC19D8D9824
:10422000A6987A6C6C5F5C593E2E416A827D8093C1
:104230009DA8B9AE88727A827D7A8DA0A8B1A68039
:10424000676F7D77645C6A6F77807259647D857A69
:1042500075808D9093805744515C5444495C6A82C8
:104260009382778AA3AEB1B6C6C4BEB99B7D7D9357
:10427000A098939BA3A6AEA380645F5C4C3B415483
:10428000647777624E5C7780757277757780755F3B
:104290006280959B9DA3A6A3A38D62464E5C5F5C46
:1042A0006A8095AEBEAB9395A09B8A80807A726F30
:1042B00054333357757D80909DA3B3AE8D777D8544
:1042C00080757D93A3B6BB9D807D888A7A726F626C
:1042D0005C5946312E465F646A80939BA39B775F4F
:1042E0005F676257627A889BA393808293988D8AD6
:1042F000939390907D5C576C858D8D98A6ABB3ABF6
:104300008D756C675C49495C646F7A6754596A754E
:104310007577888A85826C54546A8085889BB1B988
:10432000C4B68D6C5F574C3E414E5C7588827A8571
:1043300098A6A09D9D9B9393805F546477808A9DEF
:10434000AEB3B3A680626262544C576A829DB1A03C
:10435000828088887D726F6C6C6F5C362E465F6CD5
:10436000727D8A98A8A8886A676C675C5F6F80987E
:10437000ABA0888AA0A8A0A0ABABABA88A54363E5D
:104380005154576C8298B6BEA38885908872676A2C
:1043900072889D987D75889388808A8A888A7546F8
:1043A00031415F6C758DA6B1C1C4A37D6C6C64494D
:1043B0003B4654759B98807A8898988D98A0A3AEB8
:1043C000A67A595972858895ABB3C6D1B6908080CC
:1043D000806A57595F6C8A886C5F6C8080777D88B3
:1043E00090A3A07A574E62777D8095A3B3C4B1881D
:1043F000726F6F6449414C6490A390828A98A09830
:1044000098A6A8B1B3885C4C51677272829BB1CCFC
:10441000C6A3909095988072757D9BA8938288938F
:104420009D9888888D9BA3804C312B39494E5C7AAE
:1044300095B6B99B8885888D7A625F6A85A39D93BE
:10444000959DABB1A6A8B1B6BBA372544C59727A74
:104450008095ABC4C6A688807A7A755F57627793D9
:10446000907D7A777D857A6F7585A0A68872676260
:1044700075808093ABBEC6B39B8D828282644C49AB
:10448000596F7567676A7588908D9DB6C9CCAB8585
:104490006C5F6A7772778DA8C4C9B9AEA098958011
:1044A00067626777857D7575758082756F7D8A8D8A
:1044B0007D5C463939464C577A9DB3B9A6908075D4
:1044C0007D7A5F5762728A9B9B9D9BA0ABA3A0AB3A
:1044D000B3B6B1936C4C3B4149495972859DA69D39
:1044E00090807D7D6C676F77828A857A727A8A90F8
:1044F0008A9098A3ABA3805C44414C4E5F7A90A312
:10450000B1A0806A676A5F4944464C64726C6A6A0B
:104510007A888895A6AEB9C1A67D6462676C7288F8
:104520009DB3CED4BBA0938D826C625C575F6C5FF1
:10453000464451676F6F777D8290885C3B3131369E
:104540004462859BBBD7C4A093938A7A6A6254570E
:1045500077887A75829093959DA3A0AEAE855441DD
:10456000444649596F7A90B3B390756F6F6A6C7512
:1045700075758DA0886C6F858D909390858DA395B2
:1045800062413933313E5464779DB6956C6A6F67EA
:104590005F595144517775595F778A95A3B3BBC46E
:1045A000DFDC9D624E46444E627285B1DCCC9B8856
:1045B000887D6F645C4E4E6A724E3E546A72777D9F
:1045C000776F82987746393B3B445F7A93B3DFDC61
:1045D000A382827D756F64544C67887559627785B4
:1045E000909B9D98A6BEAB673E393B4454626F8555
:1045F000B3D1B38D8A9090908A7A6C758A80574E29
:104600006A808D938D8588A3A6754139393B444CCA
:10461000596F98BEAE7A646A6C6C6A62595F808A20
:104620006C5C6F8DA3AEAEB1B9C9D9B67A625C5C71
:104630005F5F677A98BEC49D807D8280725F5454AC
:10464000677D674654728D9B98939395A69B6A46A7
:1046500041444C546280A0C9E2C6988580827D6A3C
:104660005F5C5F726F57577293A3A09B9DA6B6B90C
:104670009367575C676A67778DA3BEB9957D829310
:104680009890888A8D95987757597285827A7D821D
:104690008A9D8A5C41414C514E597A98B6BE9B7DA9
:1046A0007A8A93856F6A646772644C51759DB3B35F
:1046B000B9C4C4C9BE8A594C54574E516F8DABC151
:1046C000B69588909B907A727777828064546482E2
:1046D0008D8888908D8D8D6F4941516464647A9383
:1046E000A0B3AB856C6C7777675F6A6C727D6F5F28
:1046F0006788A6A6A0A6ABA8B1A37A5F5F67645C33
:1047000067889BB3C1AB8D8593958877756C676C13
:104710005F44415C7D88858D9898988D64414154B3
:104720005C57596C8295A89D857A828D8275777ABF
:1047300075756F59546A889B9DA3B1B6B9B69872C6
:104740006262625C627A909DAEA88A77808A8D826E
:1047500080827D7A77624E5C778A93959B9588807C
:10476000643E2B2E39444E678293A3AB988A8A8A83
:1047700082756A6C6C6F726C626780939DA3ABAE3E
:10478000ABA69B7D6A6A6C6C6F77858A8D8D7D6A1E
:1047900067757D82888D8A827D726262727A808579
:1047A0008A90908D886F59595F626775828D9BA042
:1047B0009D9390938575675C544C46443B3E57727D
:1047C0008AABC1C6C6BBA8907567625757647A8A20
:1047D0009BA3A0959098989395958D85776C64642C
:1047E0006F726A6A757777756F6254575C575C6F42
:1047F000808A908A827D7D80776C758085888880AC
:104800007D7A80858593ABB3B1A89582756A67542C
:1048100049576A77828580808088888590989388B8
:104820007767646C7A827A7A889095958A7D7267C8
:1048300062544C5F75858A857D777780776A6C7A5C
:104840007D7A725F575F6C75727A90A0A8ABA0906A
:104850008A9090857A82939BA09D9390989B95884F
:10486000828888776A54414C626F6F6A7582858846
:10487000806A62675F4C3E466785939B8D7A889518
:10488000938D8588908A8577626A82888580889BE7
:10489000A09D9B827A90988A7A727D8885806F59D4
:1048A00064756F67677A95A3A8A088889DA3988D83
:1048B00082888A858272626F755C4941516C7D88FD
:1048C000826A6F82827D75757D7564573E3B678015
:1048D000828A95AEC1C4C1A88A93A0937D6F6F826E
:1048E0008D989B858AA39D8A82808A938D82645449
:1048F0006C80776F6A6F776F675744546F6A5F6237
:104900007293A8B1A88D82989B8A82808A8D8272C8
:1049100057466785827D7D889598988D757D98909E
:10492000776C6A77858D8A7575959D8D858895A03C
:104930009D9072596F908A82828895938D775C6280
:1049400080806C62677A85888267576F7D6A5C5F5A
:104950006F7A776F594C6795A09DA0ABB3B1ABA0B0
:1049600085829D9D806C6F808D93907A6C859B88ED
:10497000726F7A807A75593E517785808595A6A3A6
:1049800095805C51676F5946496275808D827A9532
:10499000AEA6938A9398887A6446517A8A827D85F6
:1049A0009590887D646282958A777288989B9B88AF
:1049B000727D938D808095A8A69D8A6C6C85908A67
:1049C0007D80938A7A6A4E445C6F644E4C6477773C
:1049D0007D756C829B9D90808290826C5736365795
:1049E0006C757A88AEC1BBB6A093A6AEA08A77825A
:1049F0009595988D7D859388776A728A8A7A6449BD
:104A00004C728A9390909DA0937A594C5F6A645F30
:104A1000596A859090887782938D82756C7A8075BB
:104A2000644C4C67757A8088A0BBBBAB93808D9B30
:104A30008A7D6A626F77776C5F6C888A888A90A6B5
:104A4000B9B1956C596F7D7D8585828D8D80675755
:104A50006475675F5957677A80776267858A808057
:104A60007A7D8D988D6F596C7A72777D82909B9844
:104A70007D626A85827D8075778A9895827D98A00F
:104A800093908D8A9398885F3E495F5F6A7D808AA4
:104A9000989882625F77725C5449496480887A771B
:104AA000959D8D8D887A8088826C51576F6764726E
:104AB000758095A09377759098939B989095A09BFF
:104AC000826C7A80675C5F5F6F858D806C6F82829D
:104AD000808A8A8A959B937A72888A756759464C30
:104AE0005F645F57627572758285889393806257A1
:104AF000645F545F647593A8A89D95A0A69895934C
:104B00008888908A7D7580908577726C7590A09D5D
:104B1000908A989B93989382827D6A544651574914
:104B20004649495977828588939D938588828295E5
:104B30009585726C6F6F676767677D9393888895BB
:104B40009D959390807D88827A757D8D90888A82EC
:104B500080939D958D8A90887572726C7A887D722B
:104B60007280908D857D6C6A808A828082857D6C62
:104B700067625F7280756C6A6F756F6C6A626F8D49
:104B800093909BABB6B6B1AB9B909893807D828D92
:104B9000938A80756C80938A858585858077726C11
:104BA0007790908882828582776A574E626C6A72AB
:104BB000828D908A8077778A9D9590939595989825
:104BC000908285958A7A7A828890908575778A9383
:104BD000888288888A8D85726A8095989DABB1ABF2
:104BE000A39580727A909082828885888D82675999
:104BF000626257596775828D938A889DB3A8958D97
:104C00007D6F6C6C59465172808290A3AEB9C4BE60
:104C1000A698A8AE9D959B9B989D987A626C858579
:104C2000828A8D8A88887D62648082726F726C75D8
:104C300082856F647A8A82777D828A9095856A6F91
:104C4000888D888A8A827D7A7257516C7D7D8595A0
:104C5000A3ABB3B69D8285908072727272757772C3
:104C6000626A8A98959DABAEA8A69D80728898903E
:104C70008885828585857A62626C5F5154595F624E
:104C80006464595C7788889095958D7A6F594457FC
:104C90006F757A8A9BA8AEAEA6908A938D7D777A3F
:104CA00082807D827A7793A8ABA8A39B907A6C5F71
:104CB0004C4C5F64676F7D8580777567626F726A41
:104CC0006A72808A82807A6C778D93959BA3A38D7C
:104CD00075624C4451595757647D8885909893A0CC
:104CE000AEA89D95908872625F59647D8D9095A065
:104CF000A89B7D6C5F5464726F75859DA89D90889C
:104D0000726A6A5F4E464E5F59545C646C8898982C
:104D10009B9DA3936C51463B49677A8598B6C1B178
:104D2000A0A09B989B8D7A6C728075574949496207
:104D30007D888D9DB1AE93776F62626C6A676C807F
:104D4000938D756C6A626C756C646775755F545F82
:104D50006A82A0B1B6BBC9C4986449332E41515789
:104D6000627A98A0908A8D8A93988A777582856CEA
:104D70005754596A8AA6B1B9C9D4BB886A594C51EB
:104D80005C5957678895827575757A8582756F7AD3
:104D9000826441394454758A9095A3B3A8774C3600
:104DA0002B33495C677AA3C4B9A8A8AEAEAEA68D72
:104DB0007A7D8D826251545F6C8AA0A3A8B9B182BA
:104DC000543E3E49596A75809DBBB3907A7A7A7A8F
:104DD000807D6C6777774E2E2E41577593A3ABC4B9
:104DE000D7B9805C4E46444C54576F98A68D7A884C
:104DF0009DA6A6A3907D85886233283B546F98B901
:104E0000CCE7FFEAA0624E514E54625F678DA898CE
:104E10007A757D7A6C6F6A595F72643B2B4C72882D
:104E2000A3BBBEC1D1C98D4E36393633465C6A8DBF
:104E3000B1A0776F8DA6A3A6A69598ABA06C3B36C4
:104E40004C59678DA6B1C9CEA05F4451594C4E59FB
:104E50005C6F8D90725F75938A828A857D8A8A5C89
:104E60002B2B516C7793A8B1C1C9A86736333B315E
:104E700036516480ABBEA88D90AEAE9B9B95807A78
:104E80007A572613334E576F98AEC4D9C993625CD4
:104E90006F6A5962676A82938267678895807A7AB7
:104EA0006F72755923021844516790ABBED4CEA0DF
:104EB0006C576259444C5C6F8DA69D807795AB9B77
:104EC0008D908A8A90805C3E4C6F7A7D95AEBBC98E
:104ED000C49B644C5C5F4E4E5C6475827A62516A1E
:104EE0008275646C7A8A9B93724C466267647A9886
:104EF000B3C9C4A377596262463639465F777A6F81
:104F00006A88A8ABA3A6ABB1AB93673E364C5757A4
:104F10006A8AABC6CCB185646464544C516785958C
:104F20009D95909DAE9B7D6F6F757A6F573631461C
:104F300054596A82A0B6B19B75595C62544C4E625A
:104F40007D90958D8595AEB1ABA3A8B9BBAB8A62B8
:104F50004C514E494E648DB1BEBBA698A0A6988018
:104F60006A6C7A7D75645462777A726C7288938DFC
:104F70007A5F54626A6A7588B1D1D7C6A385828088
:104F80006C5F515F757D7A77778A9D988A7D7D9574
:104F9000A39D8A726A727572727A9DBEC9C4B1A0ED
:104FA000A6A38D7A64647A7A756C6A778A8A827A23
:104FB0007793A0988A72646A5F5451577DA6AEA613
:104FC00093808280726A595C7782858890A8C1C478
:104FD000C1B3A6B3BEB3A38D807A6C5C595C779BDA
:104FE000A095827A8280756F625F7785807A7780FC
:104FF0008D8A8580778AA3A69B857A7A6A59544CD4
:105000005F88A3A6A3A0AEB1A39B908285826F59AF
:10501000516A85888A88808DABB1A38D8080725F4C
:105020005C5C6F98B9BEB1A8B1B19D938577829051
:105030008A8077829385756757596F756759596F5D
:105040006F676F7585A6B9AE98888A8D7A6C62593C
:10505000647A7D72677590989B9D989DB3C1BBAE35
:10506000A8AB98755F51516F8D938A828D98908D02
:1050700088756F776C5C545F778282888890AEBB4E
:10508000AE9B88858272675F576C888D8882858821
:105090007A6C6254576C726A67728A989B9D95907D
:1050A000A0B3AB9D98958A725F51495C82939093AF
:1050B00098A0A6A8A89D98A8A688756C6C6F6A622F
:1050C000574C5F77776F6F6C6759514E444E7582BE
:1050D000808A959DA09B93857D8D9D938A909393C7
:1050E00093938A7A7A88806F757A7777756F6C7206
:1050F00095B1A69D988A7D7D80776A6C7A6C5C629A
:105100006462676C6C646782908A93958A827D750D
:10511000675F6A808288989B95958D7D6A646A62D4
:105120005151514E5C6F82909DB9CECCC4C1A893B1
:105130008D80726464727A808A857572726A67671C
:105140006F777277808088938A806F676A6A6A6CEB
:1051500067626A6A6262646A757577776C6F777581
:10516000777D8290A0A6A0887A7D80889393909581
:105170009898958A887D6A62574C5464727D7D8ABE
:105180009BA3A6AB9D9398958A7A6F6F6A64675CC0
:105190004C546262594E545F6472807A80A0B1AB05
:1051A0009D8D7D6C62645C4C596C6C6A6C757D8203
:1051B000939885829593827A7D888D9393806F8270
:1051C0009B9B9595959390908267677A72594E460E
:1051D000495462726A67859D98938D888885827725
:1051E0005F64776F645F595F676767595C7D8D8027
:1051F0007A777A8D9BA3958088989088888895A0E7
:105200009D8D6A5C6F756C6C625F6C757775728A68
:10521000A6A69D8A777D85827A676272726A6259D4
:105220006477776A5C5162777D807A7790A39D93EB
:1052300082808D9390826C7A93958D82777A807A32
:105240006C57597A8A827D757790A8B3A38D909513
:105250008577777785989B8A6F6C82826F645444D8
:105260004C5959494C6F9093908A7D7D909B8872E0
:105270007A908A7A72675F7285775C546C80858DCC
:105280009B9BABCEDCCCB6B9BEAB93856C57647739
:105290006F626A80887D7A75646C8882624C576C14
:1052A00072777D6F647582776F7A95A3A09B8A6F02
:1052B000758A856A54575C595C645F648DA8ABA697
:1052C000A8AEABA0A095828A95856A626F7A80802D
:1052D0007A6A677D8880808895A0A3A39B93A0AB02
:1052E000A3907D777A807D725C545959544E4E5705
:1052F000646A6C676775828A8D8A858585827D7D03
:10530000858D93938D888A93908580808082858017
:10531000726F859DA39B938880858D8A8085938DF0
:105320007D756C64676C64514957646A72808080D3
:1053300093A39D9395A0958A8A887D8088806762D3
:10534000757A6C646251516A776A5C6F85888D9B4F
:1053500093828D9B958285A0B1ABAEA6826F7D7D39
:10536000675964756F72828588A3BBB3958A8D80F7
:1053700067675F444157574644627D808285726209
:105380006C7A6C575F7D8A909D9B8588A3A89893C3
:10539000A3AEA8ABAB958893936F4E4E62676772CE
:1053A0006A5762828D858A9DA0908A8575728890E1
:1053B000775F64777A77776451576A64575F809B29
:1053C000A0ABA8938A938D77646C82807A726257BF
:1053D000677D7D6F6F82888080827D82959D9590AC
:1053E000A3B9B9B6AE9888888A806F778D95887D85
:1053F0006F676A726F5C4C576767676C67676C753D
:10540000756F7D9BABA8A3937D726C67574C596CED
:105410006C6F72778595ABB9B6BBC9BEA8958A8803
:1054200085807A67627A90938D827A726C6C675904
:105430006A8288807D7D858A939D9893A3AEA89B80
:105440008D82725F5951465772756F6C6F77757A9E
:105450008280889D9D88756C727577858580909D0A
:10546000988A7D77756C6F776F7A98A8B1B6B3B16B
:105470009D8D8D8580939D98908D95938588856F62
:105480006A6C5F4C413E4644495F6C85ABBEB9AE29
:10549000A39D938288857277827D756F6F6C646A35
:1054A0007D7A809093908D939B908288888A9BA030
:1054B0009B98959588726C6F64676F6C645F646F7E
:1054C0006C77939BA0B1B3A8937A6F6251576467CE
:1054D000758893989898907567675F5757514C49AE
:1054E000576F7D8293A6AEB9C1C1B6A8A3987A6A58
:1054F0006C6C6F777A756C6C726A6775828A95A02E
:10550000A09B93958D7A77828580776C62575754EC
:1055100044394457646C778080828880726F7A80C7
:105520007D8085828593988D8A939B958D8A8275DF
:105530006C6454464C6A8290A3B6B6B1AB9D8D851F
:105540008A908577726A646A6C6459647A80777A23
:10555000776C6262594C4C5C6F758095A0A3A8ABC8
:10556000988580807562594E3E3B44494E62859DC8
:10557000A3B1C1BEB1A390756A758A9095A6ABA080
:105580009B9385726C7572625F625C5C6A757780F2
:1055900093A3A09DA69D88776F5F51545C5C59676B
:1055A00075726F6F67595C6A72727D8A90857D77BC
:1055B0006F72889B9D9DA6A8A09590826A62646781
:1055C00067727A776C6A6F6F778A8D8280858A8836
:1055D000828285859398908A8D8A77573E312328D9
:1055E0003B46546C90AEBEC1BBA895908A7A72724D
:1055F0006A5946414651677A808898A09B826C5FC1
:1056000057545F5F5F7590A6ABA39DA3A6ABA6930F
:1056100082828075625149464C5C626780959890A1
:10562000806F675F625F59647A888A807775757565
:105630006F5F57646F6C5C463E4C64829598A8BE61
:10564000C4BEB1A0958D8D88726A7A82827A675FB6
:105650006264675F5767777A756A62646C7A807D87
:105660008DABB6A88D6C59545454443B516A757730
:105670006F6C6C7580776A7280827A6C5F626F8AF9
:105680009B9598A6A89D856C5C5457594944628A9D
:10569000A6B1AEABABABABA08888989B8D776259B7
:1056A0005C6F7D726C808A8572513B31313E3B3636
:1056B00049677D85858A959DAEB19B939D9D90752B
:1056C0005141414C5C5F5F7A9DB1B6B3B1B1ABA6BD
:1056D000906F6C8093988D7D75757A8277727A85DC
:1056E0008575594646546C777588A3AEAB98828011
:1056F000828888777280909898887D7D7A77644ECA
:10570000515F6767594E5F778A938D93ABBBC1B387
:10571000958888888575676F829093826F757A8087
:1057200082828DA3ABAB9B7D7788959D9B959B9D3E
:10573000938567515454514C4449627A908D828DBF
:10574000A3A8A6958A95A0A8A3856F7A858D939521
:10575000A0A8ABAB987772756C675F5F6C7D909516
:10576000888AA3ABAEB1AEAEABA39875545762674F
:105770006C6C6F7D8A98958282989D988A7D7A80DC
:1057800093A395828A8D888885827D7D8072595900
:10579000646A727D88939DA8A690889BABB3BBBBBF
:1057A000B9BEC4C1B1958D8D80726A64595F72773C
:1057B0006C6C82939DA8A3958D93988D7A75726A6F
:1057C0006A726F67727A756C6F777A7D828582886C
:1057D0009595887A808D95A6B3B1ABB1B6A8958A18
:1057E000858285857A645F6C777A8088909BA8A68D
:1057F0008D7D88959B9B9893939BA3A39590907D7B
:1058000067594E494E5C625759778A909390909BA6
:10581000A6AB9877757A6F6C6A64677582806C67DF
:10582000757A80827D859DB6C4B193939595A0A32A
:105830009B95989B8A6F6F85888882726C6F777A48
:10584000624E575C595C57546C8DA8A895959D98ED
:10585000938A7A75777D724E3B464E5C757D829851
:10586000AEC1B390888A858A85757585908D77726B
:105870007D80828880777A7D75573E465C6C828514
:10588000808AA0B6B6A095938A8277645C646F6FB5
:105890005441495162757A77829093805F5457647E
:1058A0007D95A0A8B1B3A8887777726C64575462CD
:1058B000727D77727A828D989890909595886C67B2
:1058C0006A75888A888A95958D6F594E4444494CEB
:1058D00051647582827A776C6F828D98A09D9380D7
:1058E000676467676F756F75808277645C5F5C67FC
:1058F00075777A88959D9DA0AEA8A0A3A09593905A
:1059000080624436312B36516C8AA8B3B1A3A09D76
:105910007A5C4E4E576A7A77645F7280859398936B
:105920008A887A57312B312831495F7795A6A69816
:105930009DB1A69088827D8893937A6A7D7D645F0D
:10594000626A859DA08D6C72888072758095B6C9DB
:10595000BB8D6F77725F574E49515C5F4C3649641F
:1059600064626C7A90A0A3885C54727A72727A8DA9
:10597000A8B9B9987585907762514C5C7A8D82642C
:10598000759BA093827A8DABC1BB885C676A6264A9
:105990006A7A9098906F41466262574E516A7D8D47
:1059A0008A6F72A6BEB9A89595A3A69867313144AF
:1059B0003E393B517DA6BEB3887D9DA69372545956
:1059C000728595827293B6B6ABA0A0AEB3A8854699
:1059D00033444644445180A8B6B3886782A0A69851
:1059E0007A7280807D6C494E6A6A573B3354758A5F
:1059F0009575627D9593857785A8BEC9B388829891
:105A00009B8D7A727D827D72514E728D8A7D7280FD
:105A10009BA6A38251546C75757282A6BBBEB38AD5
:105A20007585907D624C51626772624C6A93A09555
:105A30007D728293A09D77626F776F6C7793A3A03E
:105A40008D5F333E54595959648295A6A68A90B603
:105A5000CECEC4B6B1B3AEA0775154625C514E59AC
:105A60007793A69D776C828D85755C51545F6757DF
:105A700051728D939393939DA6A382574C5959517C
:105A800054596C8AA0A0806F88A6B3B9B3A8ABB3F1
:105A9000AE9372758A8D82755C515F72725F546CC1
:105AA0008288908D8593AEBBAE989398938A8575C6
:105AB0006A77775F3E39546F757D77677793957A0C
:105AC0005C596A75808A80809DB19D806F757D7DEF
:105AD000806F5967858A827A859DAEB6B18A728554
