:100000000C9461000C947E000C947E000C947E0095
:100010000C947E000C947E000C947E000C947E0068
:100020000C947E000C941F010C947E000C947E00B6
:100030000C947E000C947E000C947E000C947E0048
:100040000C946A020C947E000C947E000C947E004A
:100050000C947E000C947E000C947E000C947E0028
:100060000C947E000C947E00000000080002010049
:100070000003040700000000000000000102040863
:100080001020408001020408102001020408102002
:10009000040404040404040402020202020203032E
:1000A00003030303000000002300260029000000D2
:1000B0000000250028002B0000000000240027007D
:1000C0002A0011241FBECFEFD8E0DEBFCDBF12E063
:1000D000A0E0B1E0E2E6F7E002C005900D92A630A4
:1000E000B107D9F722E0A6E0B2E001C01D92AC3121
:1000F000B207E1F70E945B020C94AF030C9400007E
:1001000081E28093B00081E08093B1008093700021
:100110000895EF92FF920F931F93CF93DF93109266
:10012000120210921102109206028FE080930902CF
:10013000C0E0D0E000E010E0CE018C579E4F7C0183
:100140002FEF3FEF40E050E060E070E0CB010E9415
:100150003E02F701E00FF11F718360830E5F1F4FB6
:100160000032110569F7A096C038D10519F761E092
:1001700083E00E94B8010E94800061E08DE00E944F
:10018000B80160E082E0DF91CF911F910F91FF9065
:10019000EF900C94B80183E00E94720190930802E2
:1001A0008093070282E00E94F1018130910541F4C1
:1001B0008091120281110BC081E08093120207C06E
:1001C000892B29F4809112028111109212028091E0
:1001D00007029091080226E0969587952A95E1F707
:1001E0008093060282E00E947201880F892F881F87
:1001F000990B90930F0280930E0281E00E9472018E
:1002000046E0959587954A95E1F790930D02809386
:100210000C02E0910E02F0910F0254E0EE0FFF1F6E
:100220005A95E1F7E80FF91FEE0FFF1FEC5FFE4F45
:100230008081918190930B0280930A0208951F920E
:100240000F920FB60F9211242F933F934F935F930A
:100250008F939F938091110240911202811120C0CF
:100260004423F1F081E08093110250910902852F1F
:1002700090E020910602821B91098F7099272091AE
:100280000A0230910B0202C0369527958A95E2F753
:100290002170209310028FEF850F8F7080930902D9
:1002A00080911102882329F0411103C0109211029C
:1002B00005C0442319F08091100201C080E0982FFE
:1002C0009295990F907E95B981958093B4009F91F6
:1002D0008F915F914F913F912F910F900FBE0F9093
:1002E0001F9018958E3008F08E5087702091040270
:1002F00090E4299F90011124822B80937C008091AF
:100300007A00806480937A0080917A0086FDFCCF29
:10031000809178002091790090E0922B08958330AD
:1003200081F028F4813099F08230A1F0089587306F
:10033000A9F08830B9F08430D1F4809180008F7DAD
:1003400003C0809180008F7780938000089584B5EA
:100350008F7702C084B58F7D84BD08958091B000F1
:100360008F7703C08091B0008F7D8093B000089597
:10037000CF93DF9390E0FC01E458FF4F2491FC0100
:10038000E057FF4F8491882349F190E0880F991F2F
:10039000FC01E854FF4FA591B49182559F4FFC0199
:1003A000C591D4919FB7611108C0F8948C912095A4
:1003B00082238C93888182230AC0623051F4F8949E
:1003C0008C91322F309583238C938881822B888364
:1003D00004C0F8948C91822B8C939FBFDF91CF91B6
:1003E0000895CF93DF93282F30E0F901E859FF4FAC
:1003F0008491F901E458FF4FD491F901E057FF4F80
:10040000C491CC2391F081110E948F01EC2FF0E078
:10041000EE0FFF1FEC55FF4FA591B4912C912D23AA
:1004200081E090E021F480E002C080E090E0DF9184
:10043000CF910895CF93DF9300D000D0CDB7DEB732
:100440009B01AC01611571058105910569F0698316
:100450003A834B835C830E94990329813A814B81C3
:100460005C810E94EF0203C060E070E0CB010F905E
:100470000F900F900F90DF91CF910895CF92DF9260
:10048000EF92FF926B017C01621773078407950757
:1004900064F4CA01B9016C197D098E099F090E9493
:1004A0001A026C0D7D1D8E1D9F1DFF90EF90DF9039
:1004B000CF90089508950E94B4020E945A020E94AB
:1004C0008900C0E0D0E00E94CB002097E1F30E94B9
:1004D0000000F9CF1F920F920FB60F9211242F93A5
:1004E0003F938F939F93AF93BF938091140290910A
:1004F0001502A0911602B09117023091130223E069
:10050000230F2D3720F40196A11DB11D05C026E84B
:10051000230F0296A11DB11D209313028093140294
:1005200090931502A0931602B093170280911802BF
:1005300090911902A0911A02B0911B020196A11D7F
:10054000B11D8093180290931902A0931A02B093E0
:100550001B02BF91AF919F918F913F912F910F906F
:100560000FBE0F901F901895789484B5826084BD5B
:1005700084B5816084BD85B5826085BD85B58160A7
:1005800085BDEEE6F0E0808181608083E1E8F0E007
:100590001082808182608083808181608083E0E836
:1005A000F0E0808181608083E1EBF0E08081846015
:1005B0008083E0EBF0E0808181608083EAE7F0E017
:1005C000808184608083808182608083808181607B
:1005D00080838081806880831092C1000895052EF9
:1005E00097FB1EF400940E94060357FD07D00E945B
:1005F000190307FC03D04EF40C9406035095409564
:10060000309521953F4F4F4F5F4F089590958095BE
:10061000709561957F4F8F4F9F4F08950E943B03C8
:10062000A59F900DB49F900DA49F800D911D112446
:100630000895A1E21A2EAA1BBB1BFD010DC0AA1F23
:10064000BB1FEE1FFF1FA217B307E407F50720F03B
:10065000A21BB30BE40BF50B661F771F881F991FB6
:100660001A9469F760957095809590959B01AC01FF
:10067000BD01CF010895A29FB001B39FC001A39F08
:10068000700D811D1124911DB29F700D811D1124CB
:10069000911D08958F929F92AF92BF92CF92DF9259
:1006A000EF92FF92CF93DF93EC01688179818A8189
:1006B0009B81611571058105910521F464E279ED55
:1006C0008BE597E02DE133EF41E050E00E94EF022F
:1006D00049015A019B01AC01A7EAB1E40E940E0353
:1006E0006B017C01ACEEB4EFA50194010E94AA035A
:1006F000C60ED71EE81EF91EF7FE06C081E0C81A16
:10070000D108E10880E8F80AC882D982EA82FB822F
:10071000C701B6019F77DF91CF91FF90EF90DF90F7
:10072000CF90BF90AF909F908F9008950E944A0302
:10073000089580E091E00E944A03089560930001CB
:100740007093010180930201909303010895B7FF14
:100750000C940E030E940E03821B930B0895F894D1
:02076000FFCFC9
:100762000100000000808080208488884892929254
:100772002A95AAAA55ABB5B56EDBEEEEBEF7FEFE24
:10078200FEFFFFFF0080008280802082888822880E
:10079200418282828988219241968E889292A2A277
:1007A200FF88FFFF0808120808092A128B880849E7
:1007B2000A499224190A0E0E1B4B4E6E6E6EBFAD85
:1007C200BBDBFFFF020002024202424222226222FD
:1007D20025256A2A3333F0F001FFE2E276E7DDDD18
:1007E200FCFCFFFF00000000000000000000000011
:1007F20000000000000000000000000000000000F7
:1008020000000000000000000000000000000000E6
:1008120000000000000000000000000000000000D6
:1008220000000000000000000000000000000000C6
:1008320000000000000000000000000000000000B6
:1008420000000000000000000000000000000000A6
:100852000000000000000000000000000000000096
:060862000000000001008F
:00000001FF
