:100000000C94B9310C94E1310C94E1310C94E13150
:100010000C94E1310C94E1310C94E1310C94E13118
:100020000C94E1310C9469320C94E1310C94E1317F
:100030000C94E1310C94E1310C94E1310C94E131F8
:100040000C94D3350C94E1310C9469340C949B34AA
:100050000C94E1310C94E1310C94E1310C94E131D8
:100060000C94E1310C94E1317F7D7A7975716C6586
:10007000606780756663735479C0AE89AAAD86BA2D
:10008000CBCCBFC5E3D1B3D2CF9B97B7BD9C847611
:100090007C6F6761433C3B322D26251C0A061B1BE7
:1000A00010180C0A181D1A242E26354441525C5D86
:1000B000636E8A958291A5A3A7A6BACCBEB3BFC72B
:1000C000C7C7C4C8CDCEC7C7C9C8CDC7C2C5C8C5B4
:1000D000C1C4C4BCBBBFBFB7B2B5B9B8B1ADA9AAA2
:1000E000A4A0A1A29A94948E918D8682817A7A7A24
:1000F000736D636870645C5C5D5650524D4D4F4942
:100100004A4A45474742413D393D423E403B373EE2
:100110003F3E3C383C434345414145484D52565192
:100120004E5863646263666E7277757181888384EA
:100130008B8E90949298A1A4A49FA0ABAFAFABAAD2
:10014000B1B5B8B4B5C1BEBBB9B8C0C5C2BABFC3FA
:10015000C3C3C1C2C2C1C4C0BCC2BFBDBCBDBFB8A5
:10016000AFADB1B5B1A9A3A6A29B9D9B95928E8977
:100170008A8E887F7C7F817A7774716C6D67605F0F
:100180005B58544F47443C393833302D29252727B5
:10019000212020272A2425252B343B464440444B4C
:1001A000555F656767696F757E8A8B817C89928FE1
:1001B0009196939092979C959294939496959391FF
:1001C00091949A98939192979894979D9A939296D6
:1001D000959090908D8A898680807C787673716FF7
:1001E0006A69676466676A6660606362676E706F9B
:1001F0006C6C717983837F848288919495989D9D9E
:100200009DA0A3A5A9ACACADACA9ACAFB2B5AFAA4B
:10021000A9ACAEAEABA9A9A6A5A8A6A1A0A09FA077
:100220009F9A9999979796938E8F908E89868482BC
:1002300083837F7B787877736F6D706B6765636599
:10024000615F5C5A5B5C5C58555555575653545624
:100250005958535458595B5C595B5D5E61636163E7
:1002600065686969696A6E7073747674757A7C7D85
:100270007E7D7F83848784848887898A8B8B8A8C20
:100280008D8C8B8C8E8C8D8E8D8B8B8E8C8A8D8CA9
:100290008C8E8D8C8B8B8D8E8E8F908E8F8E8D9085
:1002A000919292928F90908D8D8E8F8E8E8C8A8966
:1002B00088878885818484807E7F7E7D7B7A7B7A37
:1002C0007B7A79797978787979797A7C7D7A7A7B91
:1002D0007B7F7F7E7E7E7E7F7F7E7F7F7F817F7E36
:1002E0007F7F7E7F8080807F7F807F808181818112
:1002F0008181808180808080808080807F807F7FFE
:100300007F7F7E7F7F7E7E7E7E7E7E7D7D7D7D7D0E
:100310007D7D7D7D7C7C7C7C7C7C7C7C7C7C7C7C19
:100320007C7C7C7C7C7C7C7C7C7C7C7C7D7D7D7D09
:100330007D7D7D7D7D7D7D7E7E7E7E7E7E7E7E7FE3
:100340007F7F7F7F7F7F7E827D827D807E7F7B82BD
:100350007A837A86808584406E5A5460635B869186
:1003600081BA7D88C490ABCDC2C9CAA5967989836C
:1003700069A21B77A39CB08DA57C9458563013229C
:10038000201A242B3F41433D3544595C4D69508729
:100390009BAD9682ACBFC3D3D6CEEEE1EBE5E3DCFA
:1003A000DBCFC2AE998A7F8F686E513E633A3A3096
:1003B000231D1626345156545D58476B7467687177
:1003C00082A7A4A7BCC0DFC3C2C5D1CAB0B4AAACBF
:1003D000A1A199978F766C6D6E7273646F67686E6A
:1003E0006274625759504A40534C525C505E63638A
:1003F0006A788587919094A3B8B1A9B4B1BFC3C6F8
:10040000B5B5B7A5A790808D907F7A7D6868646444
:100410006460594C574D4E4D3A403F3F45435A5BFF
:10042000617882919599ABA7B3ADB9C6B6C3BEBB8F
:10043000BFB4A29D908A746D6B727E6C7582717A66
:10044000796C716F68575B47595D565C5C635B6C98
:1004500068646B68737F88908FA098A5A5969DA20D
:10046000B0B0ABB1B2AFA9A0A49A9C8D87827B68D3
:1004700072715D5F74675A63515747443F4D424BF9
:100480004E5F67567A73838A8D9C92B0A8A7BBB5DE
:10049000BFB7B5B8BBA6A4999487827C75806D7DE3
:1004A000786B746462715D69666774697068697796
:1004B000736F78696D70616E68727B7B88878D8CD5
:1004C00094969B999BA0A9A4ACA896A592A3978A61
:1004D000907D888477727878756F69726D696465CC
:1004E0005D535A5A5B525A525B605E656C848483DA
:1004F0009099A1AAAEB8B5B8BBB5AE9EA39A89959E
:1005000084888881806B726B6E6B696B6370716FAE
:10051000726B6D726F6C7362607568646A70737809
:100520007F7C878B8A8B9290989A91A5A49DA29D9F
:10053000A2A0918B898E878E837D84837C71767651
:100540006C6B766A63616365655E5E626359616266
:10055000616167787683869295A3A3A4B1ABABADB6
:10056000A7ABA3A4A58E94909487838080756F6EAB
:1005700067646868616B67696165677069677176F0
:1005800072767980827C827D828088858B8A8E8F4C
:10059000909E91949B9198979599918F8B817F795B
:1005A000737D78797E7B7C7B7B737077736D6E70E7
:1005B0006E6B68676A676B69676B6F6C757B7E854E
:1005C000858D8E9C9F9DA5A6A5A7ABA2A5A39C9A51
:1005D0008F89817B796F6E6B6C6A6B6E646E6669F6
:1005E0006A696C6B6B706C717373807B83818582BD
:1005F00087888B8E898E958E8E95928F9495929505
:100600008D8F8A8580827C76777577707474707A26
:10061000727778737B7A7F797B787B7773756B7170
:100620006E6D7777747F807F898B8A8E9193949695
:100630009491969296918F91898C848780817B7614
:100640007F7174756C6B6F6F6A6A6C6A6E6C7271B5
:10065000727A797C7E848286878588868B8F8C8F60
:100660008E9392929391918E8F8A84867F7A7E76F2
:10067000737577736D75776E73727175767A797C31
:1006800080827E80817E7F7B7C7D7F7E7C7F83817C
:1006900087898588868789878A8A858A84848581EF
:1006A0008483838280817F81807E817A7E7C757560
:1006B00076767272706F70737474787B7C818182CD
:1006C000858385878688888B8D908E8D928D8F8A85
:1006D000888B8785827D7E7B787974767372737060
:1006E000726F71767779787A7E81827E808282825B
:1006F00085848486848687878788888686838384A2
:1007000082837E81807F7E7C807E7E7C7C7C797D06
:100710007D7D817D807E80807D7F7D7D7B7B797905
:10072000797A777A7D7A807E7F81818483868487D7
:1007300088888A898C8689858586838281817D8067
:100740007D7D7B7978787777767675757778787828
:100750007C7B7E7E7D7F8281858484898688898B6F
:100760008988898786868483827F7F7C7C7C7B7B6B
:100770007B797A7B7A7A7B7C7C7C7E7C7D7F7F7FB9
:100780007F7F807F7F808180818181818283818260
:1007900082808081807F7F807F80807F8080818059
:1007A00081808282808281818080807F7F7E7E7D49
:1007B0007C7C7B7B7B7B7C7B7D7D7C7F7D7F807F6E
:1007C0008182828284838384838482838281828102
:1007D00082818081817F7F7F7F7E7E7E7C7C7C7B2F
:1007E0007A7B7B7B7C7C7E7E7F807F818181828225
:1007F0008283838384838383818181807E7E7E7EE6
:100800007D7E7E7E7E7F7E7E7F7F80807F7F7F80FD
:100810007F7F80807F807F7F7F7F7F7F80807F80E2
:100820008080808080808080807F7F7F7F7F7F80CE
:1008300080808080808080808080808080808080B8
:10084000807F7F7F7F7F7E7E7E7E7E7E7E7E7E7FC0
:100850007F7F807F807F7F7F807F807E7F7E817DA6
:10086000817EA6D5BEA28888987E36021B39475560
:10087000183D8A7C5C75B3AEA4908CA4A7A9A78E02
:1008800099AB99919999999E9B8D90A59C7D848512
:100890006E7E7B6D6B554D53595A483C474F5D7189
:1008A0007E7F7988868C9593858CA8A39C98A6B228
:1008B000B9AA9E9D9F9784827E716A68646F746CEA
:1008C0006A74736E69595159645F595C5C656667F7
:1008D0008A96909490939C9C9E9A95A0A8ADA6A66B
:1008E000A8AAA3907E72746D6B6B6F76716F776E32
:1008F00063635F5D5750555D657B88828394988BF9
:100900008A8A838792958A80858B929697A2ABA5D7
:10091000A4A09A9986767970666E777069757A76F2
:100920007167645C5B5C55585F696B6B7984919708
:1009300095948E90989B9E9D9C9995989B97939348
:10094000938D908E81797366616D76777876737703
:100950007F7B6E6F6F6568665C61686B747B7D82A0
:100960008686878A878A9B9D9697978D8B928E9095
:100970009698989192928D847B7972696A74706B63
:100980007273747A786D6A6C6B69696B676E716F7C
:10099000797D828687888B8F8F8F8F928F8E9090B4
:1009A00092938F909796928E8987847D706D706FE9
:1009B00075727177797A79777675736F6A696C7009
:1009C00071717275797B787E8685848A8B88898837
:1009D0008A8E8E90939395969B9690918F908A8411
:1009E0007F7D7E79757373726E706F71726E6D6DCF
:1009F0006C6A6966696B6E757A7C7E828585858393
:100A000085878A8B888E9093979A9E9F9D989798BA
:100A1000928E8B837C7877747674707172706F6D40
:100A20006C6B6E6F6D6A666569717476787C8384B1
:100A3000858789868181868C8D8F919295979897ED
:100A4000959390908D8885817C7B7B787A7A767877
:100A5000787271716F727775747474747370727860
:100A60007673797D7E80818180808084888A898781
:100A7000898C90918F92938F8D8C8A8989878381BD
:100A80007F7E7E7E7E7E7D7D7A76737173737070DD
:100A9000717172767979767475777A79797A7B7BE8
:100AA0007A7A82878786878E9191919193918F919F
:100AB000918D8C8B8B8B85828385837F7C7C7A76F2
:100AC0007370707071727170707071726F7071701C
:100AD0007275767A8081808488888A8B8B8D8E8EE1
:100AE0008E918F8E90918F8C8B8B8A888483817D61
:100AF0007A7A7A7876767879787473757778787781
:100B000077797977787978797A797A7E807F7F7F3B
:100B10007F8182828384888B8C8A8A8988888A8A6A
:100B200089888686868484838484837F7D7E7E7B99
:100B30007877787877777878787979797878787538
:100B4000747375767878797B7D7F81838587898AD0
:100B50008B8B8C8C8D8D8B8B89898A8B89888788F0
:100B60008783817F7E7D7B7B7976757576787878D3
:100B7000767575757474767575777778797B7C7C06
:100B80007E8284858687898A8A8B8A8A8A898A8BEB
:100B90008B8B888788888685848382807E7D7D7C18
:100BA0007A797878797877777879787676787878C6
:100BB00078797A7A7B7D7D7D7C7C7D7F8182828263
:100BC0008384868687888788898B8B8A89888888AA
:100BD000878786848282807F7F7F7E7C7C7B7B7917
:100BE0007979797A7976747475757576757575769F
:100BF000797C7E7F808181808182848586868889D8
:100C00008A8B8B8C8C8C8B8A88898887868584825A
:100C100081807F7E7D7B7979787777757473747442
:100C20007577787776757778797B7C7E7F80808121
:100C30008283848587898A8A8A8A898989898A8937
:100C4000888686858482828280807F7D7C7B7B7B98
:100C50007B7A7877767677787A7B7B7A7A7A7B7B01
:100C60007C7C7C7A7B7C7D7E7F7F80818183848499
:100C7000848383848585868687878888888A8A880E
:100C800087868686848383817F7E7C7A787979796A
:100C900078767574757576767676767778787979EC
:100CA000797A7B7D80838485858687888A8B8D8D04
:100CB0008D8C8A8989898988888786848382807EC9
:100CC0007E7C7B7A797877767575757676777777A7
:100CD000787879797A7A7B7D7E7E7F80828384843E
:100CE00084838384858483828383848484858483CA
:100CF0008485878786858484848382807F7F7F7EC6
:100D00007D7B7B7B7B7B7B7B7B7978797979787644
:100D1000767778797B7C7C7D7D7E7F808080828306
:100D2000848586868788898A8A8A8A8A8988888744
:100D300086858383828181807E7C7A7978787777D3
:100D40007677777776757676767777787A7B7D7E25
:100D50007F80828383848585858484868787868552
:100D6000858586878685848483838382828180814A
:100D7000807F7E7E7E7D7D7B7A79797A7B7B7B7AB4
:100D80007A7B7B7B7B7B7B7B7C7C7C7C7D7E7E7FA4
:100D90007F7F808080818182848485858687878823
:100DA00088878686868787868685848382817F7EFC
:100DB0007D7D7D7C7A7978777776777776767676AB
:100DC000777778797A7B7C7D7E7F81838484848445
:100DD00085858586868787868685868685858585B9
:100DE00085858484838282807F7E7D7E7D7C7A7906
:100DF00079787878797A7A7A7A7A7B7B7B7C7C7D51
:100E00007D7D7D7E7F7F7F808081828282828283E2
:100E10008384848484848484848484848484838395
:100E20008282818180807F7F7F7E7E7E7D7D7D7CD2
:100E30007C7B7B7B7B7B7B7B7B7C7C7C7C7D7E7EF5
:100E40007F7F807F7F7F7F7F7F7F7F7F7E7E807FB2
:100E50007F7E7E7E7F807F7D84BBCCB4A0827695B2
:100E6000A7411849526235263B351D145B8486958F
:100E70009D9C809BCAC9CDC5C2B2ABACB1A5918BBC
:100E80008E9A8E7D99BDA473545B6D7F766C716D67
:100E900074756361616881897A5B56635E3729285E
:100EA0004B74657D8E807B7D8D9EA7A7B1BBB8B44A
:100EB000AAB5B8AAA6A7A49E94857D7A7A72615F26
:100EC000686F6C5E57535A61626D77757379776E90
:100ED00063616F7880827E817C787C7D808A888166
:100EE00091A1A49E8B858F969BA4A49B99A2AAA155
:100EF000907E757C7B7575777A756A5E585D6163E7
:100F0000676D6C6B706C625D5D616C787D7A7E8301
:100F10008488888A90959DA1A4A096948E8C9393A2
:100F20009396938B87807E807A79808B8D88878259
:100F30007E7A706967676B787B767468605F6065DE
:100F4000686C6A6B7373737475787F85848A9BA6EB
:100F5000A39F9C95969B979799948F878081878470
:100F6000868A87838384837F7D7B7B76736F6E71B4
:100F7000666268696C7279807D7976767B7D76753C
:100F80007C7C79747079837D7E8385858389969A4C
:100F900097938886898F92949A96908C8D8D857D73
:100FA0007E827F7B7D7B797A7472706C6D707275D6
:100FB00077797D79716F767D7F7A75787D7B7A7BA5
:100FC000757372767A7D7D7B7F8483868E928C8C1E
:100FD0008C8B898B8D86838C929090908F8B8A8C52
:100FE0008B837F8182817C7A746B6869696B727490
:100FF00072707073706E727678797D7E81837F7B7C
:101000007D7B7A7C7C7F838789857E7E81828488D4
:1010100088888B8E8E8C8D8B8B8B888B9091918B0F
:1010200086868888858383817B756D6564686C702E
:10103000716F6D6A676C72747679797B8183827E59
:101040007B7A7B7D82898A87858385868483858870
:101050008B8E8C8C8D8A87888A89898A8D8E8C8CE0
:101060008A86838384838381807E7B7875706C6DB0
:101070006F6E6E6F6F6F6C6A6D6E70747777777C62
:10108000807F7C7C7E83888B8A898887858486881C
:10109000898787888A8B89898B8B8E939593918D8D
:1010A000898A8A8782818282807E7E7F7A7777763C
:1010B00074716F6D6C6D6F6D6966686B6E71717256
:1010C00073747677797D7F8081848687888D8F8D14
:1010D0008F91939492908F8D8D8F8F8D8D90908D19
:1010E0008B8A87868686878786837E7C7C7B7A7AD6
:1010F0007978777574706D6A686767646567666725
:101100006B6B6B6C6F74777A7F82838587898B902A
:10111000929393949595949698979796949291908C
:101120008F8D8C8A8A89888786827D7B7977757492
:10113000726F6F6D6C6D6E6F6E6D6C6B6B6B6C6EDA
:101140007071727271727475787A7C808183868A0C
:101150008D8D8F8F8F919597989896969594949260
:10116000918F8E8D8B8988858381807E7C7B7A7838
:10117000767574716E6E6E6C6C6E6E6D6E70717273
:10118000737473727376777677797A7C7F818484CF
:1011900085858587898C8E8F929392929292929276
:1011A00091908E8C898888888684827E7C7C7C7CE9
:1011B0007B7B7A77757473737374747575757575D5
:1011C000757475777777787979797A7A7A7A7A7C9B
:1011D0007E7E7E7F80818487898B8C8D8D8F908FA2
:1011E0008F8E8D8B8A8887868584838382817F7E9C
:1011F0007E7E7E7D7D7D7D7D7D7C7B7B7B7B7B7B29
:101200007A7877767675757676777777787878796D
:101210007A7A7C7D7F8182818284858585878888B2
:10122000878787878584838383838282828383837E
:101230008382828283848585858382818080807E8B
:101240007E7E7D7C7B7B7A79797A7A797A7A7A7AF2
:101250007A7A7A7A7C7D7C7B7B7B7B7B7C7D7D7ED6
:101260007D7C7D7D7F818383848584848485858561
:101270008685868787878788888788888786848306
:10128000838282828281817F7E7D7D7D7C7C7D7C6C
:101290007B7A7979797775747373737272727375F7
:1012A000767677787A7D7F81828384868687878742
:1012B0008686878788878787868686878888898BBA
:1012C0008B8B8B8A898989888785848381807E7DC1
:1012D0007C7B7977767574737271706F6F6F6F6FD7
:1012E0006F707172747677797A7C7E7F8182848563
:1012F00086878888898A8B8B8B8B8A8B8B8B8C8B50
:101300008B8B8B8A8A8A8A8B8B8A8989878684834E
:10131000817F7D7B797776747271706F6E6E6E6F80
:101320006F70707071717274747577787A7B7D7F6D
:101330008182848587888A8B8C8D8D8D8E8E8E8E12
:101340008E8E8D8C8B8A8A898A898887868584830C
:101350008281807F7E7D7C7B7A78767573737373F0
:101360007373737272717171717273747576787947
:101370007A7C7E7F80828485878889898A8B8C8C21
:101380008D8D8C8C8C8C8B8B8A8A898989888786B9
:1013900085848382807F7E7D7D7C7B7A7978787876
:1013A00078777776767675757576767677787879D4
:1013B0007A7A7B7B7B7C7D7E7F8081818282838445
:1013C000858687888989898A8A8A8A89888887869A
:1013D00085848483818080807F7F7F7E7E7E7E7E09
:1013E0007D7D7D7D7C7C7B7A7B7B7B7B7B7B7B7B44
:1013F0007C7D7D7D7D7D7D7C7C7C7C7C7B7B7B7B2B
:101400007B7C7D7D7E7F81828384858585868686C3
:1014100086858585848383828281818181818180A3
:101420008081818181818181818181818180807FB1
:101430007F7F7F7F7E7D7D7C7C7C7C7B7B7B7A7AE3
:101440007A7A7A7A7A7A7B7C7C7C7D7E7E7E7F80DB
:101450007F7F7F7F7F807F7F7F7F7E7F807F808099
:101460007E7E807F7F80807F81807F89BCC5A794BE
:10147000877D7B8068536D987B665F4C1515221DB8
:101480005F686B79797280908C98A5ADB2BFC4C744
:10149000B2A1A19FB0A596969D9D93928A8C8A81B8
:1014A0007C76706C727B74797F727075757B7E72DE
:1014B0006E747A737176737369666D6B6D6D6A6A3B
:1014C0006F69646D71645F56556262686E807B6D92
:1014D000738B8E7C85929A9AA2A4ABAFA9ABAAAD6E
:1014E000A8A39C9FA9A5A09E9A9191928B857B6DA4
:1014F0006E6F6F7778736A665D5A63666462635D68
:10150000626A71756F70717174787A797C7E81818D
:10151000817C7C80807E7F83847D787474797B7805
:101520007481867F838E9498978F919294949197EB
:10153000A1AAABA6A49E9B9EA2A19A91908C817F0A
:101540007F76706E675F5F5F5E605F5E5A5B5F6055
:1015500061636562626873787978777F8282838459
:101560008583858988858787868888898987838117
:101570007F7E7F807E7D8285858283807F868C9042
:101580008F8D8A8C929597999B9A9A9C9994949016
:101590008984817F7D7873706D6D69676867646128
:1015A0006365666768696A6A69696A6C7175787B80
:1015B0007C7D7D7D7F7F7E80838384848587898A0F
:1015C0008987868382848586878A8F91909292907C
:1015D000908E8D8D8C8F918E8E8C8B8B8C8C8C8A3B
:1015E00088858484827D7C7A75727271706E6B6975
:1015F000696969696B6B6B6A6A68686B6C6D6F713E
:10160000737475797A797B7C7B7B7C8185878A8A08
:10161000898A8A8889898A8A8987878989898A8B38
:1016200089898A8B8B8B8C8B888A8D8B8C8E8D8C09
:101630008D8B8A8B8B8B8A8A86848382817D7A7656
:10164000747472706F6F6D6A6968696A6A696663DB
:1016500064686A6D6D6E6F717273777A7B7D7E7F61
:10166000818385888A8A8C8D8E90919191929190B8
:101670009191918F8F8E8A878788888886868785C3
:10168000838486868381818285878888888785850B
:10169000858483817F7C7B7B7A787675726F6B6CB7
:1016A0006C6B6C6A6A6A69696A6D6F6F6F6F707371
:1016B0007678797A7C7E81828384858687898A8A16
:1016C0008C8F8F8F8E8E8D8D8D8D8D8C8A8B8B8A4E
:1016D0008B8B8B8A878485868484858585848585A4
:1016E0008787868584858584848384827F7E7C79D0
:1016F00077767471706F6E6D6D6C6D6D6D6E6E6FF3
:1017000070706E6E717374777979797B7B7C7E7F74
:101710007F7F818282838686868889898A8C8D8D67
:101720008F8F8F8E8E8D8C8D8D8C8C8B8B8B8B8BEE
:10173000888786858585848383838281828381816E
:10174000808080807F7D7B797979797977777776EA
:101750007575747373737272727170717272727460
:101760007475767778797B7B7A7B7E7F80808282C6
:1017700082848585868787888A8A8B8B8B8C8D8CE3
:101780008C8C8C8C8B8989898988888888888887C3
:101790008687868585858483838282828281807F15
:1017A0007D7C7C7B7A7A78777776767675747473BD
:1017B0007373727172706F71727171727274757607
:1017C0007879797A7A7C7E7E7E8082838383848531
:1017D00086878889898A8A8A8C8D8E8E8D8C8D8D5C
:1017E0008E8E8D8C8B8B8A8A88888786868584836B
:1017F00083828282828281807F7F7F7E7D7D7C7CEE
:101800007B7A79777776767575757473737273737F
:101810007372727374737475757577777879797973
:101820007A7B7C7D7E7E7E7F8081828384858688B4
:101830008989898A8B8C8D8D8D8E8D8C8C8D8D8CEC
:101840008C8B8A8A8A898886858584848482828230
:1018500082828180807F7F7F7E7E7C7B7B7B7A79AA
:101860007877757475747474737373747474757530
:10187000757475757576777778797A7A7A7B7C7DE9
:101880007D7E7F7F81828383848585868687888825
:10189000898A8B8B8C8D8D8D8C8B8B8B8B8B8A8A95
:1018A0008988878686858483828181807F7F808006
:1018B0007F7F7F7F7F7F7F7F7F7E7D7C7C7B7B7A4E
:1018C00079797877777675757575757575767676B5
:1018D0007677777778787879797A7B7C7D7D7D7D6E
:1018E0007E7E7E7E808081828283848586878787D4
:1018F000888989898A8A8A8A8A8A89898988878758
:1019000086868685848383838282828181818181A8
:101910008181818181818180807F7E7D7D7C7C7BD6
:101920007A7978787776767675767675757576764F
:1019300077777777787878787879797A7B7B7C7C19
:101940007D7D7E7E7F80808182838484858687887A
:101950008888888989898A8A8B8A8A8A8A898988F3
:101960008787868585858484848483838282818138
:1019700082828281818180807F7F7E7D7D7C7B7B76
:101980007A797878777675757574747474747475FB
:10199000757576777778787879797A7A7B7C7C7DBB
:1019A0007E7E7E7F80808181828384848585868718
:1019B00088898A8A8A898A8A8A8A8A8A8989888792
:1019C00087878686858484838383828282818181DE
:1019D000818181808080807F7F7F7E7E7D7D7C7C19
:1019E0007B7A7A7978787777777676767575767682
:1019F0007676777777787879797A7A7A7B7C7C7C57
:101A00007D7E7E7F808080818182838484848586C0
:101A10008787878888888989898989898888888843
:101A2000878786868585848483838382828181817A
:101A3000808080808080807F7F7E7E7E7D7D7D7DBA
:101A40007C7B7B7B7B7A7A797979787878787878FF
:101A50007878787878797979797A7A7A7B7B7B7CEF
:101A60007C7C7C7D7E7E7E7E7F7F80808182828387
:101A7000838484858586868686868686868686860F
:101A80008585858484838383838383828281818126
:101A9000818181818181818181818181807F7F7F3D
:101AA0007F7F7F7F7F7F7E7E7E7E7E7E7E7E7E7D51
:101AB0007D7D7D7D7D7D7D7E7E7E7E7E7E7E7E7E4D
:101AC0007F7F7F7E7E7F7F808080807F807F7F8022
:101AD0007F7F817E7F8581828677676F7E8E9F8AFA
:101AE0006D73837A7A888282827A8B8C6C69828821
:101AF000807D827F7F878D8F939A510D0046E7F915
:101B0000FFCE2900118DDAB29DBFCE631D4E8276C5
:101B100077A194625075ADC2B07B415F85726676E5
:101B20008F979A74729D7A57858078B4A47777637B
:101B3000527D8A7C848898965A3F8BAA8D8A4C580D
:101B4000CEA76C86836C6E7B6A839E806A909C7C39
:101B5000999480773E54A494514370BFDBD682277A
:101B600048524690CBA196BF81527F704B6587A4A7
:101B7000B1A682361E5E97B1C7BD6A337D92719E53
:101B800099638099694F7AA29D867C796E6C6C8A84
:101B9000987983AB9B5B528497857D8C8165757D3D
:101BA0008E9A8A856E67787A88817D8580929784FF
:101BB0005F6797897A8773698090817D8A7F708259
:101BC00092837B848B80716E71848E8182A08F570B
:101BD0005E83969476717D808C887E7C9585557722
:101BE000887187917F81838082796F7C827D8291E9
:101BF00094806E77787D907C707B8B9483787479F9
:101C0000848992866C69758183859096806A757ED9
:101C1000808484796B7486999178788381787A7CD2
:101C2000838C857F727C95866970847D81878080B6
:101C3000837E7D8780788083827374897D7B8381B6
:101C4000908D76778182847E79827E7C827D80858C
:101C5000827D7277858881828E84716E7A80868F8C
:101C600086817B717683817D84837F8084827E8080
:101C70007F7B787880878686897D6C76848483856F
:101C80007F8287776D6B7C92968C8081756F7D8467
:101C90007E7A8280828C9081717D7A737D82807D54
:101CA00081898C83757C807C7F7F7F8187847E7334
:101CB0007485877F7B83837D837F7682877C7B802F
:101CC00083867E6F7888867E78808B8680817B7C19
:101CD0007776898D827A807A778C8776787B7B801D
:101CE00087888A80717B807D808182817E81807EF1
:101CF000818084847E78797F7E86867E7D7F7E7CEF
:101D00007E8085827D7D7C7E80898976737C8183DF
:101D10008584807C7A7C7F828283837C787B8181CE
:101D2000818384817E7D7E7E7F847E767C7F8182BE
:101D300083817F807C7B7F8183817E7D82857D77AF
:101D40007F83808183827E7E807D7C7E837F78849A
:101D50008A827E7B7D807E7B7D7F8284827E7D8188
:101D60008080817B7E82817F7C7E7E84847A7D827E
:101D70008482807E7A7A7F838282837D7C807F7F6B
:101D80007D7E84847D7C7F8384817C797D8080805E
:101D90008083837C797F828482807E7D7F7F7E7D4D
:101DA0007F8383827D7E8080837D7D83827E7E8132
:101DB000807D7E7E7F81828181807E7E8081807E2B
:101DC0007D7F80817F7D7F7C8084807F8380797E22
:101DD00082807E7E8284827E797A82837F80827E08
:101DE0007C81817E7F7F7F817F7F808081818080F9
:101DF000817F7B7D80808283807E7E817E7C7F80F0
:101E000080818181807F817F7C808180807E7F80D6
:101E10007D7C828281827F7C7E808082817E7C7ECE
:101E200080808181827F7C80807F81807E81807DB7
:101E30007F817F80818081807C7E7F8083818080A4
:101E40007E7F7F80817F8081807E7F81827E7E8198
:101E500080808080807F7E7D7F808182817E7E8089
:101E60008080807E7D80807E8082807E80817F7F7A
:101E70007F7F80817F807F7E80807F80807F7F7E6C
:101E80007E807F8082807F807F7E7F8181807F8057
:101E90007F7F81807F7F80808080807F817E827E47
:101EA00084837A878E87686575997B93A3985A1C7B
:101EB000386E99A7BABF962E1847A9CDD69D8242F3
:101EC0002E7885E6DA9E8C4D4C778BAE82868B59C8
:101ED000303367AAC66E2818387ABCE3D3863A2C0A
:101EE0005EBBEED289635971B8CAC3975A38618113
:101EF0008897887C696F7F887361515F788F81676D
:101F00005F7196B0A07A7468757D8B9EB0A58D7652
:101F1000717B7D928F8C877578737990817E796CD7
:101F200059566F889C8C7A6A667B8FA29985766DEC
:101F30006F859E978C86817677889182756F6E8388
:101F40008F8F88807A756B6D7477858D8F806D71BA
:101F50007B8E90887A6F7086989394887766667384
:101F600084968F867263708291978F7C707182895C
:101F7000898E8A7E787B7E7F8078717878838A8567
:101F80007A71747D858B8B817A73767F83898E8B52
:101F9000857E7773767C87938980797579818B8D3F
:101FA000877F756D76818C8C888373707A84878245
:101FB0007C7A777A7E8287807F817D81807E7F7C3C
:101FC0007B7E848E8D847E7A7E868C8E877B7071FC
:101FD0007F8789857D757472788285807A7D7E8021
:101FE000818784807F7E818384807E8585828280D4
:101FF000817F8182817E79797F84837E7D7A7B7DFA
:1020000081827F7E797E80868681807D787D8687CD
:1020100087827C7B7C7E8082827D7C7F8285827EC3
:102020007B787C818788837B777C818585817F7CB9
:10203000797C8083807E7D7F807F7F807E7C7B7BC0
:102040007F8186827F7F7C7E808182807E7C7D8096
:102050008584817C7D7D7E7E80817E7F7C7F7F808C
:102060008082807D7C7C80818281807E7D7C7F837C
:1020700086837C797A7B808485827E797E81838366
:102080008281807F7E8080807C7C7F818481807E55
:102090007B7C7F828482807E7D7D7F8282827F7E48
:1020A0007C7D7E7F80808080808080808080807F3B
:1020B0007F8081807F8081807F8081818080807F20
:1020C000807F7C827F7E7E82817E7B807F7E7D8022
:1020D00083827E75A8674391B3A9A7803D59566F47
:1020E0009D9530326E8DE7EAD8AC8D5E6089501DCB
:1020F0001B0E359AA3C8EFDAB9B8BC8F86563F2FAE
:102100001C0D296B74B3C6BBCBC9BDD6CF89502774
:102110001D15383C455D7098D2F7E7E0B8A4936888
:1021200058390E17234179969FAFD4CFC8BCB097CA
:102130007A63454E23204A5678A1AAB6C9C0BEAFDD
:102140009A70605444555551668D7794A49EA99811
:10215000AAAA96706354565B5A5B73978B96B1B577
:102160009F8C716F7D6967686771788397A79E8977
:102170007E7F818D76696D6364758489A19D92905F
:102180009194857464615F545B78879D9B91A6B43C
:10219000A7908C745E423956757A6E80949BAEBA65
:1021A000B2B69976645F5C493E3C5A6E84A8BCC165
:1021B000C2C4A9938769493E3042575C6F8CA8AD71
:1021C000BAB9BDBDA480675B4433344A6970739C5F
:1021D000B8C0C7BEAF99856454544940455C758EFC
:1021E0009AA6B5AEAAAE9A86705B5750535D6A77D1
:1021F000778EA3A9ADA69B97896F5E5758545B76DF
:1022000090959499A09D8F8A7E7A7163666D7571A1
:102210007684909290959A918378747163686F77C1
:102220007D8190959692888380797B7C79756A6FA1
:102230007C7F81888D90868A8F8681747779707192
:1022400074777D7E828E96948885877F7472757888
:1022500073707A838787888D8B85808086827A7673
:1022600074787373798185899293908D8378726C79
:102270006E74777C818585868B8C8D8A807E7C7858
:10228000706E777C7777828A8F8C8E918A80777652
:102290007775706F757F82828C8F8E8A898A847A37
:1022A000746F6F73767D808287898A8B8885818041
:1022B0007E7B787170737B818686898F8A85838027
:1022C0007A7571777E80807D828283838387847F25
:1022D0007E82807D7573777B8183878B8984838100
:1022E0007F7B787C797A787B8081858785838385FD
:1022F00085817D797976767C80807D7F84898A86E8
:102300008585817C797879767276808182868D90D8
:102310008A847F7D7C797B7A7879757981848584DC
:1023200088898A89847F77737174767A7E808489BC
:102330008A8B878383807F787878787B787C8080AD
:1023400083888C8A86807F7E7C7977787B7C7D7F92
:1023500084848084858684807E7B7A7A7B7B7D8082
:102360008082848482807F80807F7C7C7C7C7F8074
:102370007F818280838484847E7B7A79797B7F816C
:102380008384828284818080807E7D7C7C7E7E7D51
:102390007F818383848382817E7D7D7D7D7C7D7F43
:1023A00080808182818180818181807F7D7E7D7E30
:1023B0007E7F8080807F807F7F80807F807F7F8026
:1023C0007F807F80807F807F80807F7F7F7F7F8016
:1023D0007F807F7E807F7F7E817B8277808476880E
:1023E00083808A78819C5E78695C8F776279847754
:1023F000926C738A7E8894828D9B888C8A766364C3
:10240000728B9D8C6F8D776A8059758E788F8D82D7
:102410008D66687D80AE6C7C9571A080527C9387C0
:1024200083778C8E816A94A5908D7679827E6D7E7D
:102430006F788CA188645F668370995C718867A1EE
:102440006F73836C9887619C857F917C817F7B9083
:102450009C909A81867B6886716B8987837F708167
:1024600061757B7DA1738C7D67827B7089817A8B9E
:10247000827F7D80938985857381808988847A862F
:1024800092747894728898738877747C7C80807F4B
:10249000857D6F868F7F898D7E956F7B8065888E29
:1024A0009D917F9891768C73727E82808289778EDF
:1024B0008E85757F7C6F73827E8C857E907C808616
:1024C000857B868F90827D8587817E857780828BD4
:1024D000817C777B888778779A7C7790807A817BFC
:1024E00083817D9088807F7F7C736D7986858781ED
:1024F000847F79827B7D7B7D86807F847B86837AE7
:1025000082837F767D80857F847D7E847E80797ED8
:102510007F7B807D7C897A7C8685797F7B79817ED3
:1025200083738481857F84847A827B827F817D7FAF
:10253000838181837C7B83807F857B76857F827EA0
:102540007F867F807F7F7C7F7C81847A877E7C7F93
:102550007A827D7E807E807F7E7F7F837F80817F89
:102560008282807E807F7E7F807F7B80827F807E74
:102570007F817E7F817E7C7E7D7D7F7C7E80817E73
:102580007F817E807F7F817E7F807F7F7F827E7E56
:102590008080817C7E817D7E807F7E7E80807F7F4B
:1025A0007E807E7E80807F7F80807F7F807F7F7F38
:1025B000807F7F80807F7F7F7F7F7F8080807F8024
:1025C000807F7F807F807F7F807F807F7F80807F14
:1025D0007F7F7F7F7F807F7F7F7F7F7F7F7F7F7F0A
:1025E0007F7F7F7F7F7F7F7F7F7F7F7F7F7F7F7FFB
:1025F00080807F7F7F7F7F7F807F7F7F80807F7FE6
:102600007F7F80807F8080807F7F7F7F80807F7FD3
:102610007F7F7F807F80807F83838B8371646D71F8
:1026200076838A95A18D6E736C76759593968B6E75
:102630006E707B7A938880787A78878C81868A7AA4
:102640006A69637287A39EA1856D6758516F99A2CD
:10265000A9B3A06A6B5E5969717A8A8D8A9794A230
:102660008B7560575F687691AFB8B88C7C564C54C8
:102670006E8A8E9F949D93917D6F4B5E576581838B
:10268000A4B0ACA28A6063525D53848298B7B892BA
:102690007665424E5C8C7FABA0A894776B616B62D1
:1026A0007F7880728B979D8B85826A6F667C818B29
:1026B0008A908787756F667787829B80917A837609
:1026C0007B76768689857C7B61837F927E8C8C91FC
:1026D000826B7277717CA2898867776F79707D9F32
:1026E00094968D7D5F7168818C8D7D82886F8271FB
:1026F00075878A6F807E83919C96827B4E645C6E28
:1027000085A09A9E9377717483747F6B8789798192
:10271000979B887E705E5B5C84AFB3A7907D6F6F84
:102720005A787B898D7E82808674A0A483735D6CC9
:10273000828E8B928E867F7566627C89A09A8D745C
:1027400065848C907F7A816C7968748A94968E8681
:102750006A78747A8B8E667B86747D7E898D8379A8
:10276000836A6373928F9B837F72707F777A6B85A6
:10277000778D908E817E7B686F6C728A9B95858445
:102780007D7A6E66867A7C8D81887D87928D896D53
:10279000656773898C81A2948067726569848D9D59
:1027A00085807883747F7D80777E6D77818B9E8D29
:1027B000836E7E5C847273898E93868A78787A833E
:1027C0007D7B637F8D858B8A82828982747670831C
:1027D0009679817D7A8F8C7F77786B7D828E9383DB
:1027E0009790745D5F646B7E9186989687808577FD
:1027F000736E63818285879D787E7975667489762C
:1028000090959D867C818567686171887784A4A690
:102810008578755E69777392999188897E766E6FF7
:10282000808F8A617B7E849589947E7978636F89B5
:102830007D8A909D7862736A837D7D7F9693948272
:10284000747E776F74806C808E9694826D6D7F98A5
:1028500084707B827C838D8381868C6C6E73808791
:102860009DA68973667D776C708A909092777E8042
:102870008280896668736D928E8E83887184776E8C
:10288000828D807E80738378827A92858578727F4C
:102890008686858C6E78717B757B8788858E8E7930
:1028A000727E86778882717F786E858D978D83762C
:1028B0007870658989878D947E71716D728D8C7742
:1028C000867E82837D748592877763757A889394F8
:1028D0008B82687582766E7E94858E7775858A8503
:1028E000817E756D8B87808A8580847F7877769AE4
:1028F000997E62858B7B7F797F7E8F8784747E85CE
:102900008C876F7967868E887C72817978838C87D3
:102910008F8379687B72819A89817F78767F6F7DDA
:102920008D917D827E8183817B7E7A6A707C808FAF
:10293000AA97847769547477888092B08981716A84
:102940007D8173756F7D848F988E8A7A7772626EBF
:10295000799493967E757D84846C7A74857D7A8A69
:102960008786948283626B787791868F808A7F7363
:102970007B80798D7B6A808A7E8B8B7E7E84866F5E
:102980007F768088907A7F7882958B806A77698558
:1029900083888D87977A736F697A88918B80707A34
:1029A0007B7D8786857C847B6C7D888B908A76771F
:1029B0006E6184988C7E8C7C7B707E847A8A7F8D1D
:1029C000806B7683859093806873767C7D8B887C22
:1029D000887D7C7D7E778C867A7F797E797F818108
:1029E00082746682817B9985838670757A757C8016
:1029F0008F8C7D7272797F80858C7F8B7F7D7E76D8
:102A00007A817E867A788A7F827D80737F8B8679D1
:102A1000857E7C817682838673918A797E798181B5
:102A20007E798C7D7183898A8082816F72837F82B7
:102A30008C86837B78768082888B7C787D78848195
:102A400087808187757779878E957D7A817A76837D
:102A500080787C87848486888D868071756C7D8B78
:102A60008D82908E7072737D80918C827D706F7478
:102A70008584837F7D838883818674747872717A7C
:102A80008E958B8D7C6F6F7589898B7A7982717F3A
:102A9000837F8370847B8184828A82807579758448
:102AA00085887E8977797D758C8990817D736F7A31
:102AB000818285868D827F7D7E7A7B81847670900F
:102AC000867E8085827B7F827E8B8680806E787C0E
:102AD0007E8687887B7A80808D92847A77717876FB
:102AE00081868492907A7D7A7E887B7875868286CC
:102AF0008B877E7F7F78747B888B937C82796E7ADC
:102B00007A80798385828288857786857D6B6A78ED
:102B10007E8890957D7F7F6D777E838A807A7E77B1
:102B20007B7E88897B867F7F767A88888375797AB1
:102B3000787882808B85908376877B7F74767376B6
:102B400088808B8F817E80797983787D89857C7779
:102B5000807E7A80817780867C818487828084846D
:102B60006371807B827588938F8380717B77797D99
:102B7000777F83847F92888175807B737883868951
:102B80009183807B7D70797D8989847D858870843F
:102B9000837B806C808C84837891817F7172807B51
:102BA00085849084817A7D7F88807A8374837D7325
:102BB0008D8D7C8A857580747A8C8A827F7C7D80FD
:102BC0007F777D828087878A7E7A81877C7270801A
:102BD0008883918A6B817F7A8A86796D807C857003
:102BE000808A7B89817B87716E917583867C7877FB
:102BF0008A837B7A807371958E808C7384896870E8
:102C00007D878C81868578867D7F7D7480828488AF
:102C10008D7F86818472747A758E898986887579AC
:102C2000737B7D788792897E877E7E717F7B7879C2
:102C30008385888B888479817C7F72757E8B848B79
:102C400094747D7A77768180788B89818B876B7697
:102C50007F7E7888847F88868B7A727E81777F7882
:102C6000807F7D8A88738283797F71887E6F82906E
:102C7000867B7879837377867F7D8185857B79866E
:102C8000787C7D7B817F887C8E7D78817D85717667
:102C90008C887B8988837F81807E7D6E81867E881B
:102CA0008A8A78827E76808089817B798A86798813
:102CB00086807A82796F788C8A7D8C7D7C7F848116
:102CC0007E73808F84857288817788796F7F878F04
:102CD00088838682797783797D7F8A85767B848CE9
:102CE000817F887F777D7F7C7287917C7D827D80EC
:102CF000857B7B797B81858D80717E8876837380EF
:102D0000907C85847A707A808A7F807378827F83D2
:102D10007F867D878665728A74868A917F668882BF
:102D20008281747B83767E8380808E8E71818079B0
:102D30007785917E777D847E757B8684847A867E96
:102D4000838482767C86717A768B817F8587797A97
:102D50007B8C8E7786757F827B6E798784887D7F7A
:102D60008B7F808F807D79817D7B7C7A797F978452
:102D700082878C8775767F7E787E8486798781824C
:102D800077888E7487807A7D80868577797C897A4A
:102D90007F7D7F84818B707A787E7E828A827C764A
:102DA000857F7C7D7A888179807E73808287857C2F
:102DB000897D758188747B7C8380797D7E858A7C22
:102DC0008A8B718A757C7A787D7C827A837F848A0B
:102DD000827D7878817F857B83847F7F76737C7D1D
:102DE0008186868878828782717D8C767A7D7C7EEA
:102DF0008B8D82827D7F80797F8578818D877777C3
:102E00008C7D80777A81778C93807D82837C7180C2
:102E1000807F838883737A888481837783777C8AB1
:102E20007D83848E8170757C7C7D8589828383819E
:102E3000897A818672797A7584818A8A7D8182779E
:102E40007A7F778B7D7E887B8285827C827A7C7894
:102E50007A898682827A817E72877C7C89817A8671
:102E6000807985848477707588767B8889867E7F73
:102E7000707A78877C7987827D80847F7E7988826A
:102E800073787D8D8D7A847A75887B79877B888D40
:102E90006F7D86767B89837D797C92867D847D7D3E
:102EA0007A757D7C7F937F83837A7F787F8B82782E
:102EB0007F78857B7E838C837E8A757F797C818A0F
:102EC000818578798C7A7978817E818B8C828585F1
:102ED0007D7579797480848D81788389777F828705
:102EE0007E6F84787A838A7B80807C84787F8384F9
:102EF000828C7F70737F817E7C86747F8F858470E7
:102F0000838574737E767D7D8D8E70827A877D7EDB
:102F100083788077867B80848A82708176798289C3
:102F2000848F828080737A798B7D85857C817C8695
:102F30007E7A837980837D858485827A7A807E8695
:102F40007B80877B7883847D8281877C7F7C818680
:102F50008389777C7E807B7F8B8A837D84887B7569
:102F600085808179847E77878187868B7F74737C67
:102F700085777B8B888E7581916B807C7F8179874B
:102F80007E8D817A7C72777B7C86879087768D7840
:102F90007B746F8280857E7A83857B80897C818249
:102FA00079817884757F82758379867A7E88888135
:102FB00080817C7F807D7386798888757A7F87772A
:102FC00085817C7B7F8185837A7C807E767F788516
:102FD000818E7B7A887680847D797D8183748784F5
:102FE000847A837D79847F8A768388867C7B7489E2
:102FF0008777847C7780937E867D88837781717BD9
:103000007C88877E8B878380737E7F787D798482BE
:1030100088857C7F7A7A80888179858E84816D6EBF
:103020007D8B827C7D7E8D7D94827487757B7672AC
:10303000797D8A8A817D7C8A7E78808485727F858D
:103040007F7F8182737B857F7E8489807C8980837A
:103050006A73877E7C728E8684877E7F7B767E799C
:103060007D8180827D82788276828B768A867B7F64
:1030700081837C7983777886837E808580897D8251
:103080007F797F7986817B818881847F7A78857F4B
:103090007F807C8681877B80817D8281797B798B33
:1030A00082798A7977768581808888867D7D7A7C29
:1030B0007B758385788A877C7D8888727E837A7623
:1030C000838575828583877B79847C7E7D80757717
:1030D0008C857E7C87767A80847D7E9286797F79E6
:1030E000707E7E837D868183817C7F7A83767F84F8
:1030F00079898578847B82767887718286857E83DC
:103100007E7C887D787E7E7C838484788D837882C3
:1031100074817D8185848081808587718081737FC2
:1031200084808387847D777F827A847F7A847C7DA4
:103130008A7F80847C8175798581848887787D8584
:10314000817C798181848088867D7E83847878798A
:10315000817D838781868588827A7176797D838A6D
:103160009179868E7375787484878687817E7A7C60
:10317000847B7682817F828A80837F807D7479756B
:10318000867E838D8B7C7C87768174747F7D7F8740
:103190008E7D80847E7877807F77828E7E7C818230
:1031A0008777827B7A777B8B86877E86797C777D33
:1031B000827B8E898773807A7383807B7D837F9106
:1031C000827C7E80827C7B777B838A817A7E7B8512
:1031D000897781827C898378807E888B727C767DFA
:1031E000867A8090867B9080787A80797E827D83D3
:1031F000807F7888857D8382727E87837E7C8C82C7
:103200007B7A7D807F7D888388757E8F7682797CCE
:1032100083837F817B8A8D7E7F7A826E7E7B8385AE
:10322000788D8884767A828876737C7889837D84A9
:1032300089867A78837E82827D8582777984837B92
:103240007A828186747E87888573827E7C777A7F96
:103250008280858684877B807E80777073878D846B
:1032600082828C757B76788782878A807A7A7C7D69
:103270007F867D8485807D7884887E7B81847D7D4A
:103280007C7B8C85847D7B7B7986748482808E8137
:10329000897773867C7D7E78868687877B7B7E7E3A
:1032A000828178848380877F7D837D837A787E772F
:1032B0008788887D857E7B7B71847B82817D837C12
:1032C00081897F7B80837F737F7B7E8683877D7F01
:1032D0007C7D7D7E7981867B877D79857D7C7A7812
:1032E000887986867F84787F757B827987847988E0
:1032F0007D807E80847782817A757F8080828181E3
:1033000086827C7E7C817C857E7D7D7D7F83887AC4
:103310007F82828280817D7E837B797D83817D89AE
:103320007B848077897D7B7D7D877C7A837D8582A8
:10333000828180827D807D808083807B807E80838F
:103340008385777C8078887F7E7F8585797D7F7D8A
:103350007F857E847E738189787C817C7F7D8A7F76
:1033600081847E7E7D7B7A867E7C8480777C7D8571
:103370008686817E7E757A7A827F80847F807A7B62
:10338000838484827E7A797F7B7D847B87897A813E
:103390007C817D7A837C7A808281857A7E87797F41
:1033A000818384827F7A8080797B7D778188857C28
:1033B00083857E827F7A777E7C7F8D797D82808710
:1033C0007585827F877D7F7F797E847D8180838301
:1033D0007E81857F7E848080798685787C7A857FF2
:1033E00082847E8B797F8177837F7F82817D767CEB
:1033F0008A827D7F8085867D76857E8188817F7BC0
:10340000807B7E847D7B7C877D80877C847E7C7FC7
:103410007C7E7F7B84877E77777E81827C897F80BC
:10342000857D877775807E85827E7E7D89817B7EA6
:103430007F82857E798081817D7D7B79848A7F838F
:103440007C7A897E7B7B7A847E807E7D88867C8088
:10345000857A82827C7B7E7F80837E7F84847F8866
:103460007C787F83867B82807E8A7E7A787F7E8569
:10347000847D8581887E7E787B7F7D7F81847E864A
:1034800086807A827C7B7C7B8580877E8086818338
:103490007E7D7E7E7B8084798489817D807A77843D
:1034A0007F847E7A88857C7C7C7C817B847E7B8724
:1034B000848483807580817B817D87897F83787D0B
:1034C0008676867F76877D7E7E7E847F877F7C84FE
:1034D0007680857C7A7E85847D7E817E867E7D82F7
:1034E0007A81847C7F807A7E847F7C7D827F7D86EA
:1034F0007F8085827A7D7D7A827E7F83827C817FD8
:103500007E8586827F81777A86837B7B86787C83C3
:103510007E8182817F8A787781857D81867C7C7EB1
:10352000857C83837A80857D85837A877E8081759B
:103530007C7C83887E86807B8182847F7E82838080
:103540007B7A7D7D818483817F81837E7D7D808286
:103550007C7F837B7E82807C7E808086817E81836F
:103560007E797F7879877783897D8886847A7A7F68
:10357000797A807D7B81848082837D857E7D7C7F5E
:103580008379827E80817B7E857E7B82827D808541
:103590008180827C7C807B7E7C7B86867B7F837E39
:1035A00079848079837E807986867C8682827D7626
:1035B0007E827A7F8086847C89827B807D747E7F18
:1035C0007F8281857E847F7E827A7B8182828084F5
:1035D000807C867B7B7B7B8483848581817D807DF1
:1035E000767B7F838184827982867E827B7A817DED
:1035F000837D7B807D80807C837F84887D83787CD5
:10360000817C807A7D857F7F837C8480827F7C80C3
:103610007A7E8280788281838080807E837D7F7FB6
:103620007E8480777F7880827E837D83827F7F7BAC
:103630007B807C877C7A82808480817E7F7E7F8293
:103640007D7A7F838081827C7F8181827B7C7D7E8D
:103650007D8183817E80847E82807F7D807F827B6E
:1036600077867E868180827C8587817E827A7A7B5E
:103670007B7C7C847D808386848183857C7C7E7A50
:103680007D7681857B8185817E8085827F7B81843B
:103690007E7E8183757D827F7F838581807E7D7F35
:1036A0007E7E877C82817B817E827D80847B768525
:1036B000857B8282807B7E83817D7C7B867E75811B
:1036C000817E82877A7B847F7F887F817F818176FC
:1036D0007E7686847D80817E82887C807E7D7A7FF6
:1036E0007B7D82828580837C7B84817D7F7D8086DB
:1036F000827B8282787686847D8680887E7C7E82CC
:103700007C7489807B7F8A7C808A807D797F7783C7
:10371000808182878078867B83818081857E7684A4
:10372000867B7D837F80798186838184857C777E9B
:103730007C7B828181838383867D827F7B7F7A7D90
:103740007E80887F80847C7979897C7D857F858077
:10375000788283767D81837A80897F827F817B8373
:103760007F7E80827D7F8978817F817D7B817B8266
:10377000838281827B8182807B7B7F7A837C7E8354
:103780007B8585817F7E7E7E8081807A857B81803E
:1037900078847D8184817B7F83847E8081757D8137
:1037A000817986817A8D7E7D808080827D7D827C1C
:1037B000827D837C7987857881847C7F8582777F11
:1037C0007C85857A7F8484817C837B76887F827DFB
:1037D0007A8081847C7C7F82857E7E7F7D7E8085F1
:1037E0007F7980847B827D7F857E84827C7B8381E0
:1037F0007B7F827D7F837F8381807F7E80788280D4
:103800007F83827D81817A817B817A7B837E8286C0
:103810007E7F847F837D7F7A7E827A7F80798583B5
:103820007D847C80808181797E847F807D7E7D7FA8
:10383000877E80867E81807D7D787F817D7E7C8392
:1038400086808281797E8080857880877E7C828177
:10385000777E86827E7E81887C7B7F847E76867F73
:103860007C8383827E7C837C7F7D7D857D83827D5E
:103870008182828079827C7788817A84847D7C854C
:103880008379807F84837C837F7E7F7F7E7980863F
:103890008186807F847D807E787C85827F7E7F8428
:1038A000817E7D7E7B7F827E7D7F82827F7D807D2B
:1038B0007E80827F7F8280807F7D80817D80827F0D
:1038C0007F817F7E80807F7F7F7F7F7F7F7F7F8004
:1038D0007F7F7F807F7F7E80807E80807F7E8080F4
:1038E0007E7F807F7F7F807F7E817F7E807F7F80E5
:1038F00080807F7F7F807F807F807F807F807F80D0
:103900007F80807F7F80807F807F807F807E817FBF
:10391000807E817E7F7F89817F8278876884746CD6
:10392000907E807C8D7C6E877D737A84817C888894
:10393000778787778385767C877286857C80877C8E
:1039400081897780857B78887A7F847D7B877D817C
:10395000887E81857F77857B7984807A897F81865F
:103960008180808177837C7D8180827E837D82845B
:1039700080827F7F7C7F7E80847D807E8081848248
:103980007F837A7F807C807E7B7C837E8288817F40
:1039900082817B7F7E7E7D7D8180817E83807C8233
:1039A000837F81827C807B7F817C817F817F81831B
:1039B0007F807F7F7B7E7E7C807D83808183808310
:1039C0007D847F7B837C7E7E7E7F7F7F80847E86FE
:1039D000847E827D7F7B7E807C807F8381808580EA
:1039E0007E7E807D7E807F7E7C817F7F84808480E0
:1039F00081847D7E7F7B7A7F7E80828484838281C6
:103A0000807D7E7F7D7C807E7F8080848081837FBF
:103A100080807F7E7B7E7C7C7F8181828383837FAD
:103A200081817C7E7B7D797F838083848381808399
:103A30007D7A7E7A7C7C8180818283837F847F8093
:103A40007E7D7E797E7D7E7F80838083858281807E
:103A50007E7B7B7C7F7D7F82808182848280817F70
:103A60007C7B7F7C7E7F8182808384847F817F7A60
:103A70007A7F7E7C7F81807E8383808281817E7E4F
:103A80007E7D7D7E807E8181828481827E7F7D7D40
:103A90007E7D817D8080808282837F817F7E7D7D2F
:103AA0007F7B7F7E8082818482817F7E7E7E7F7E1F
:103AB000807E7D81837F8183807E7F827F7E807F09
:103AC0007B7E817F828084817E827E807B807F7B03
:103AD000807F827E8182808180827D7F7E7C807CEF
:103AE0008280818080827D7F7F7E7D7F7F808180DC
:103AF0008080807F7E7F7F807F807F7F7F807F7DD3
:103B0000827E827E81817C827F7E7D7F807E8080BE
:103B1000827E80827D7F7D827C7E818081808280AA
:103B20007D817F7D807E7E807E82817E817F807EA2
:103B30007E807F7D80807D7F7F817E80827F827E90
:103B4000807E7D817C7F7F80808082817F7F827D7F
:103B50007F817E7F7D7F7F7E81828080817F7E7F6F
:103B6000817D7C7E7D7F7F8482818280807D807E5E
:103B70007E7C7E7F7E847F82827E8180817F7F7E4D
:103B80007D7E7D7F7F8182818182827E817F7C7E3E
:103B90007D7D7D7E828281848181817F807A7D7D31
:103BA0007B7E8082808482808080807D7F7C7E7C22
:103BB0007E837D828080818183807F7E7E7A7D7E10
:103BC0007E817F8481828481827E7E7C7E7D7E81F7
:103BD0007F8080818082827F817E7F7E7D7F7F7FEC
:103BE000808382828181807E817D7D7D7E7F7F81D9
:103BF00080807F82818181807E7D807D7F7F7E7FCE
:103C00007F83828281817F7E807D807E817F7D82B5
:103C10007E818080817D817F817E7E807D808082AB
:103C20007F807F807F7E81807E80817F7F7E807E9F
:103C30007E8181817E83807D817F807C82817D8188
:103C400080817D807F7F8080827D7F7F7D807E817F
:103C50007D807F808280837E7F7C7F7F7F807D7F71
:103C60007C8180818281807E807F7F7C7E7E7D8161
:103C700081828182827F7D7E807D7E817D7E7F824A
:103C80007D808281817D847D7F807E7E7B817E813F
:103C90008084827F827C817C817F7C7F7D817E8429
:103CA00082808280817F7F7D7F7D7C817E81818219
:103CB000827E817F807F807F7D7D7E7F7E8280800F
:103CC0008082827E827F7F7B7E7E7C7F80837E86F9
:103CD0008180807E817B807E7D7D7E847F818281EC
:103CE0007F80837E7F7D7E7F7D8180818081817EDC
:103CF0008180807F7E7F7D7D7F817F7F80807E82CF
:103D000082807F7D7F7B807F807F7E847E828180BA
:103D10007F7E817C7F7F817E7F837F818182807DAA
:103D2000817C7E7E80817E82808181817F7E7F809A
:103D3000817D817F807F7F837E807F818080817F86
:103D40007E7C807D808081827F83807E7E7F7D7C83
:103D500080817F808281808180807D7E7F7E7F7F69
:103D6000817F8180818181827E807C7D7E7E817E5B
:103D70008280828280817D7F7C807F7E807E817F49
:103D8000818180827F81817E7F7D7D7E7E80818139
:103D900083808282807E7E7E7B7D7E807E8183802A
:103DA0008380837F7F817A7E7B807F808280818019
:103DB00084817F7F7E7D7E807F807F7E8080818208
:103DC0008180807E7F7D7D7D7E7F7E8182828282FA
:103DD000837E7E7E7C7F7E7F7E817F8183808280EA
:103DE000817F7E7F7C7E7F807F8081818181837FD8
:103DF0007E7D7F7E7F817F7E7E817F818281817FCC
:103E0000827E7E7E7C7E7B8080808381837F817EBC
:103E10007F7E7E807D807E8081818280837F7F7FA8
:103E20007E7E7D7F7E7F7F827F82807E817E807F9F
:103E300082807E807D7E7D8181808181837E827F84
:103E40007D7E7C807C818281817F837E7F807F7E7E
:103E50007D807D807F80807F81808180817F7E7E6C
:103E60007E7F7E8080818080817F807F817F808057
:103E70007F7F7E817E807F808180837E80807D7E4B
:103E80007E817F8080817F81827F7F7D817E7E8237
:103E9000807F7F82807D7F817E7D827F807E828128
:103EA0007D827F7F7D7F817D7F80827F7F81817F1B
:103EB0007D817E7F8080817E817F7E7F80807F7F0D
:103EC000817F7E82807F7F7F7F7D818181808080F6
:103ED0007D807E807E7F7F7D8180828180817C7EEF
:103EE0007F807E7F817E8081828081807E7F7E80D8
:103EF000817F7F807E7E80817F7F817F7F7F8080CA
:103F00007D81807E7D80807F8180827E80817F80B8
:103F10007D817D7D827F817F827F7F807F7F7E80AC
:103F20007F7E7E81807F83807F7E7E807F817F7F9A
:103F30007F808081807F807E8080808280817F7F83
:103F40007E7F7F7E81808180827F7F817F807D8078
:103F50007F7E7F80807E8180807F817F7D807F7F6C
:103F60007D81817E7F80807D81817F7E7F807E805C
:103F7000817F7F7D807E7F8381817F807F7F7E7E4A
:103F80007F7E8080827F80817F7F7E7F7E7F7F803B
:103F90007F817F80817E827D807F7F817E817F8027
:103FA0007F807F7D807E808180807F817D807F7D1E
:103FB0007F7D827F808180807E807F7F7F81807F08
:103FC0008180807E7F7D807F808180807F817E80F8
:103FD0007E7F7F7D807E808081817E8180807F7FEB
:103FE0007F7C7E7E828080827F827F80807E7E7CDE
:103FF000817E808081807F817F807E837F7D807EC7
:104000007E7D80807F8182817F8180807E7E7F7CBB
:104010007E7F8080808280818180807E7D7C7D7CAF
:10402000808082827F82818180807D7D7E7E7F8094
:10403000817F8180808180827E807E7D7E7F807E88
:104040008081818082827E80807E7D7D807D7E8178
:1040500080818084817F80807E7C7E7E7E7F828165
:104060007F8181818081807D7C807E80817F827E56
:104070008180818080807D7E7E807E80807E7F7F4B
:10408000828080827E7E7E81807C807F7D80828136
:10409000818181807C807E7C7E7F817F8281807F28
:1040A00081807E7F7F807C81807F807F807E818217
:1040B000807F807F7E7F7E80807F807F8180818106
:1040C0007E7F807F7E7F807E7E81817F8181807DFB
:1040D0007E827C7F7F807E808381807F827D7F80E7
:1040E0007E7F7E817E7F80817F7F827F7E7F807EDC
:1040F0007E7F7F7F7F80817F81817F807E7E7E7ECD
:1041000080807F7F7F817F81837F7F7F817D7F81B3
:104110007E7E7E82808082827F7D817D7D7F807EAB
:104120007D8282818082817E7F7F7D7E80807E7F96
:1041300081817F8281807F7F7F7E7E7F7F7D808087
:1041400080828082807F807E7F7D807F7F7E7F8275
:104150007F8282817E80807D807E7E7E7E81808166
:1041600082827F817F7D7E7E817E7F807F7E818255
:104170007E8080807E7E817E7F7F807D7F837F8149
:104180008081807E807F7F7D7F7F807F8083818232
:1041900080807E7E7F7F7F7D817E7F8282807F8127
:1041A0007D7F7E80817D827E7F7F7F817D817F821A
:1041B0007E81817E817C7F7E80817F837F817F8005
:1041C000807C80807E7F827F807F7F807F80807FF9
:1041D00080807F807F7F807F808080807D807E80E8
:1041E0007E81817D817F807E81807F7F7E827D7FD9
:1041F000807E817F8080807F7F7E7F7F7F808080C8
:104200008080817F807F7E7F7F807F81807F7E81B5
:10421000807F817F827D80817D7F7E807E7F8282A4
:104220008080817E7E7D807E7E8080817F80818097
:1042300080807F7E7E7E807E80817D817F81808088
:10424000817F807D817E7F817F7F7E817F81828073
:10425000807D817E7D807F7E7E82808183827F7D66
:10426000807E7D7F7F7F7E80817F7F8180807E805A
:10427000807E817E817E7E817E818081807F807E46
:10428000807D807E7E807F827D83817F8080817D36
:1042900080807E7D7E817F8083827E807F7D7F8027
:1042A0007F7E7F80817F81807E807E807F80817E17
:1042B000807E7F7E7E8180817F817F7F7F7F7F7D0B
:1042C000807E80818081808080807E7F817F7F81F1
:1042D000807D7F81817F80837D7F80807F7F807DE7
:1042E0007E8182807F827E7E7F81807C81807E7ED7
:1042F00082807E8180807E8181807E7F7F7D8080C4
:10430000817F80807F807F817E807E80807D817EB6
:10431000808081827E807E7F7D7F817D8080817FA5
:1043200083807D807D807D80817E8082807E818192
:104330007F7D82817E817F807B7F807F8080837E86
:104340008081817E7F7F7C807E81827D8280807F74
:1043500080827C7F7E807E7F817F817F847E7F8163
:104360007F7F7C827E808081807F817F7F7F827D56
:104370007F817E7F7E807F7E81818181817F7F8042
:104380007E7D7D807F7F8280817E81807F827E8036
:104390007D7E7F817E80817F818082807F7F807D26
:1043A0007D81808080827E7E8080817D81817D8014
:1043B00080807D7F807E7F82817F81807E807D8006
:1043C0007F808180807F80808081807F807D7E7FF4
:1043D0007F807E81807F8182807E807E7E7D8081E5
:1043E0007F827E817F7F8180807E807F7F807F80D3
:1043F0007D7E80807F81837F7F7F7F7F7D817F7DCA
:104400007F817F808180817E807E7F7F7F7F7F81B3
:104410007F82808181807F7E807D817F80817E80A0
:10442000807F7F80807F8080817E807F7D7F7E8097
:1044300080818180807F817E7E7F7E807F8180827F
:104440007F81807F807D817F7E7F817E7F82808172
:104450007F80807E807F7F7E81807F8180807E7F65
:10446000817E7F82807F807E7F7F7E817F81818051
:104470007F7F7F7E817D807F808080817F817E8144
:104480007F7F827D807F7F7F818180817F807E8032
:10449000807E7F807F8081818180807F7D7E818022
:1044A0007D81807E8180827F7F817E7E80827E7F13
:1044B0007F7F7F7F837F808080807D807E807E7E07
:1044C000807E7F808081807F807E7E817F7F7F7FF6
:1044D0007F7F8181817F817E7E7F7E7F7F807F80E5
:1044E0008181817F817D7C807F8080827F7F7F80D2
:1044F000807D837F7E8080807F7F807F7E80807FC5
:104500008181817D7F7F7F7F7F817E7E7F808081B3
:104510008181807D817E7E807E827D808280807FA1
:10452000807C7E7F7F7F80827F7F7F807E7F817E99
:10453000808180817F807F7D80807E81808180807E
:10454000807E7E7F807E80807F8080817E7F807F76
:10455000807D817F7E807F817F7F817F7E80807E66
:104560007F7F81807F827F7F7F80807E80807E7F53
:1045700081807E7E817F7D83807F8080817E808040
:104580007E7F817F7F807F807F817F7F807F7F7E36
:104590007F807F80818081817F807D7F7E7D807E26
:1045A00080818081807F7F7F7E7F7E81807E817F12
:1045B0007F7F80837E8080807F7F817D7D80807F04
:1045C00081817F7F80827F7F817E7E7F7E7F7F80F3
:1045D00081808281807E7F807D7E7E7E81808281DF
:1045E00081807F807F807D7F7E7F827E817F8180D2
:1045F00080817F807E807E7E807E807F817F8081C3
:104600007F8080807F7D7F7E7E7F808180818280B1
:104610007F807F7E7D7E7E7E80818281817F7E7FA6
:1046200080807E7F7D7F807F827F817F8081807F91
:104630007E7F7E7F7F7F7F8082808181807F808080
:104640007F7F7E7F7F7F80818081817F80817E7F71
:104650007F7E7E7F807F8182807F807F7F7F807F63
:104660007C8080808083807E7F81807E817F7F7E52
:104670007F817D8180807F80807F807E807F7F7F43
:104680007E807F80807F807E827F7F807F7F7E8034
:104690007F7E80818081817E807E7E7F7E7F7F7F26
:1046A00081817F80807F7E81817D817F807F80820C
:1046B0007E7F807F7F8082807E7F817E7E817E8004
:1046C0007F80817E817F807D7F807E8180807F7FF3
:1046D0007F828080817F7E7D807F7F80817F7F81E0
:1046E000807F7E817F7E80807F7F81807F807F80D2
:1046F0008081817E80807F7E80817D817F807F80C0
:10470000827F7E7F7F7D8080817F7F817D808180B1
:104710007E7F7F7F7F80817F7F7F81807F827F7FA1
:104720007E7E817E7E827F7F80817F7E82807D7F94
:10473000807E7E7E827F7F81807F80817F7E808081
:104740007D7F807F817F817F7E807F8180807D7E75
:104750007F7F7F7F817F808080817F807E7E807F62
:104760008080807F7F807F81817F7F817E7D808050
:104770007F80807F7F7F817E7E80807F7E827F7E44
:104780007F80807D81817F8081817E7F7F7F7E8031
:10479000827F81807F807F7F7E7F7F7F808080811E
:1047A0007F807E7E817E7F807E7F80817F7F817F14
:1047B000807F807E808080807F817E80807F807F00
:1047C000817E80817F7F7F807F7F8081807F827FED
:1047D0007E807F7E7F80817E808080807F7F7E7EE6
:1047E000808080807F7F7F807E807F7F81817F7ED1
:1047F000807E7F7F7F807F81807F7F80807E7F80C3
:104800007E7F80807F80807F7F80817F7F7F7E7FB3
:1048100080807F7F817F7F827F807E807F7E807FA0
:10482000807E80807E8180807F817E7E807E807E93
:1048300081807E817F80807F7F7F7F7F8080807E80
:1048400080807E7F7F817F8080808080807F7F7F6F
:10485000817E7F8280817F817E7E817F80807F805C
:104860007F80808180807F7F807F7F81807F80804C
:104870007F7F80807F8080807E80817E7F7E7F7E44
:104880007F81808080817E7F7F7F817D807F7F8030
:104890007F83807F7F7F7F7E80817F7F807F7F801F
:1048A000817F7F817F7F80807F7F7E7F7F7F827F10
:1048B00080817F7F7F817F7E7F7F807E827F7F81FF
:1048C00081807E817E7E7F7F807E818180817F80EE
:1048D0007F7F7F807F7F817F807E80807F808080E0
:1048E0007F81807E7E7F7F7E7F80817F81827D7ED3
:1048F000807F7D7F807F7E82827E8080807F8081BE
:104900007E80807F7F7F807F80818180807F7F7FAE
:104910007F807E7F807F8280817F7E7F7F807F809F
:104920007F7F7F8080808080807E807F807F7F818E
:104930007F7E81817E80807F7E7F827F7F817F7D81
:104940007E827F7F8181808081807E7E7E7F7D816F
:1049500080818180817D807F7F7F7E807F817F805D
:10496000807F7F7F807F81807F7F7F807F7F80804F
:104970008081807F7F807F7F80807E7F807F80823C
:1049800080807F80807E817E7E7D7F807E82818030
:104990008080807D7F80807E80807F7F7F827D7F22
:1049A0008080808081807D7E7F7E808081807F800E
:1049B00080807F80817D7E7F807F8081807F7F82FD
:1049C0007E7E827F7E7E807F7E8280807F817E7FF2
:1049D0007F807F7F817D7F807F8080807F808181DD
:1049E0007F7F7F7E7E7D81807F807F817F7F807ED5
:1049F0007F7F807F807F7F807F817E807F81817EBF
:104A0000807F7F7D80807F7F82807F81807F7D7FB0
:104A1000807C80817F8081807F7F80807F807E7EA0
:104A20007F80817E80817E807F817F7F807F80808C
:104A30007F7E817F807F81817E80807F7E7F7F7E81
:104A40007F808080818080807D7F7E7F7E80817F6F
:104A50008081827F7F807E7E7F827E7F827F807F5B
:104A600081807F80817F7F81807E7F807F7F817F4B
:104A7000808180817F807E7E7F807E8080807F803D
:104A8000827F80807E7E7F807F808080807F81802B
:104A9000807F807E7E807F81807F817F7F7F81801D
:104AA0007E80807F7E7F807F7F81807F8081807F0E
:104AB000807F7E7E8080808180817F81807F817FFA
:104AC0007F7E7F7F7E8180807F80808081807F7EEF
:104AD0007E7E7F8180807F81807F81807F7F7F7EDF
:104AE0008080808080807F7F7F817F7F807D7F7FCF
:104AF000807F81817F807E807E7F817F807F817EBD
:104B00007F807F7F7F817F8181807F7D7F7E7E80B0
:104B1000807F808180807F807E7F7F7E817F82809A
:104B200080807E807E7F807F817F7F80807F817F8D
:104B30007F807F807F807F7F80807F7F7F807F7E80
:104B4000817F7F82808080807E7D80807F7F828168
:104B50007F8080807C81807E8180817F80807E7F5D
:104B60007E808080807F7F7F807F808080807F804C
:104B7000817F7E7F807F7F81807E8080807F80803C
:104B80007F8080807E81807E7F80807E8280807F2B
:104B90007E817D80807F7F7F817F80817F7F7F811D
:104BA0007E7F7F807F7E827F7F8181807F807F7E0E
:104BB0007F7F7F817F80807E8180807F80807F7FFC
:104BC0007F817E7F80807F7F827F7F80807E7D80EF
:104BD0007F7E7F807F7F8181807F807F7D7F807FE0
:104BE0007E8080808181807E807F7F7E80807E81CC
:104BF0007F80807F80808080807F7F7F80807F7FBC
:104C00007D808180818080807F7F7F7E7E7F8180AC
:104C10007F8180808180807C7E817F8080807D809C
:104C200081807F80817D808080807E827E7F808089
:104C3000807F81807F807F7F807F7F7F7F7E80807D
:104C4000817F80807E80807F7F80817F7F817F8069
:104C500080807F7F807E8080807F7E807F7F7F815D
:104C60007F7F827F807F817F7D8081808080807F49
:104C70007F807F7E7F808080807F7F7F7F7F7F7F40
:104C80007F818080807E807E7F807E80808080802B
:104C9000807E7F80807E8080807F7F807F807F7F1E
:104CA0007F7F807E7F807F80817F7F7F80807F800D
:104CB000807E8081817F80807D7F80808081817FF8
:104CC0007F7F807D80817F807F817F80807E7F7FEE
:104CD0007F80808081807F807F8080807F7F8080D8
:104CE00080807E80817E7F8081807F81807E7F7FCB
:104CF0007F8080807F8080807F817F80807E7E7FBC
:104D0000807E80817F808080807E7F7F7D808180AB
:104D10008080807E7F80817E7F807F7F7F807E7F9E
:104D2000817F808080807F807E7F7E7E807F80808C
:104D30007F80808080807D7F7F7F807F807F80807C
:104D40007F7F81807F7E7F807E817F807F7F807E6E
:104D500081808080807F7E807F808080817E808057
:104D60007F807F807E7F807F7F7F817F8080807F4C
:104D70007F7F7F807F8080807F807F7F7F80807E3D
:104D800080807F8080807F8081807F80807F7F8027
:104D9000807F7E807F7F8080807F817F807F7F801B
:104DA0007F80808080807F80807F7F7F80807F8009
:104DB000807F80807F7F807F7F808080807F7F80FA
:104DC0007F808080807F80808080807F7F7F8080E8
:104DD00080808080808080808080808080808080D3
:104DE0008080807F80807F807F7F807F80807F80C9
:104DF0007F80807F807F7F7F80807F807F807F80BB
:104E00007F80817E7F80817D817F7E807C7E837FAD
:104E10008481807D7B7D808180817C7F7A7D7C82A6
:104E200085827E838182787A847C817F838B857979
:104E30007768799298918270625A6882A6B2A58D3D
:104E40006E6B6869667975848C909B8B8881716CB8
:104E5000797B88908F8D7B686C6A71828990969837
:104E600085786B6E86837C7E787D858381877E7E68
:104E70007B77878C8680757278849492897A656155
:104E8000758C92908888847B7575726D7D79889019
:104E90008CA297837C755969706C8E888F928E90E6
:104EA0008E726F675C677F9A86A59B907D6772782C
:104EB000786F887D828385928C8088786270737D1C
:104EC000898D8297847F867A766D808387757E7FD1
:104ED0007A7D858B81908D86736C777379788289E2
:104EE000878D92837D76708873828875677F8988C5
:104EF0008E888A7B7F7B867074638288868DA09B78
:104F00006F80597274868091838796777F5F677D03
:104F10008F7E8A78988C868B7F75797A5E80648C98
:104F20008E928A90807C6C5D8B8189878E7C976F56
:104F30008382797E707F7E7C66927284898E96876A
:104F40007187796E8D738182826D8A758B806C7E9C
:104F500085857F91788E798E7C73878F746F887545
:104F6000866A83786D739F998991828F666B787852
:104F70007C907C76809E8476717C7A68829497712E
:104F8000977C8B697D8B6F858589727B6F91757737
:104F9000848D88867C7186868D7B77778D86877BEE
:104FA0006A7686897B6C6A899280878895927D85EE
:104FB00075627C886C686BAB8B7E7D867B7E8A7429
:104FC0008A6F7D839671947495887C715B7E847DF5
:104FD00066936DA96A9D78767E9C9168835A9A60E3
:104FE0008B7C865BA47B8682609480826A9267B0A9
:104FF0005A8B798886868E718A549A6277739390D9
:10500000AD7287715580748F789188AC7A8970738E
:105010005E8B5A6D927FA86E8E7DA460916E8778AC
:105020007CA16C856B9055896F8C7F898F76897D8B
:10503000957C8A797B6E777A8C888B8587646A7297
:105040007F998E887A8C8383766D79978392776C3B
:1050500081737A8C6876A28B857F6E888D6A8F7C4F
:1050600076839F72827B7174758F789B689D767A48
:1050700075877882A66F8B618773886D9973797154
:105080008F8B6E98629D6B8E69A86E917D71796130
:105090009F6C8C65A37593738D6380906D848494ED
:1050A00075966F925483828E6B8A78858C7C896F1B
:1050B00093618F64A463886C957C81987A935A9AE3
:1050C0004F936C92708E858A7A7B9670947F914B09
:1050D0007A67916C9E938B6C8B9361896D8D528EE8
:1050E0007D9B769E7F866A728660A179846EA56FAD
:1050F0008C6C8D777E7776867FAC758666775DA6BD
:10510000719A7F8390757D6C796CAF6F89788F7C95
:105110007E80866F769C6680948F7478798B7D71A3
:105120007F797A8E8A7F68987A85897B7B7A906F7F
:10513000936C89677784838F79897E877A907B8661
:10514000776485857E8D777C7778829B7A77998A5C
:1051500077648E6786778D797D8C878A6586808770
:105160006C8B82847F7E8076678D987D87748C853A
:105170007B54927A74838B7E7FA4787E5F8A71974A
:105180007A91796E8662857B92729E647E797F9831
:105190007F807D8E756C76937880898E7884769406
:1051A000707B85738D6E9A72837B957775847C880E
:1051B0006E857F8C7E806A788B898B94727A7D7104
:1051C00086868389856F8F6A8C7F78868882739BB9
:1051D0006696767A74758D77A1699A648D79667E04
:1051E000779F759D708D6E83637681799E679272CD
:1051F000A181887B846C75906992708F777A7BA28D
:105200007B7F7D8278718097995F9D807F61985DBB
:105210007B829285778F88875EA2588E74937D8873
:105220008389776F82658B76A074A662886E847995
:1052300075848A8E62AC618C6A9B5998786F817490
:105240009674936DA6589B7880738F77708A868149
:1052500076966D9348A77B7D82A0716C8767867276
:10526000BE728E67815F77938D84709E51887A8B32
:10527000789084907C6B986781747E70958A8C930B
:105280007A77667876838C8F8789837A717F717657
:1052900084898E78A0767C6E7775758779987F86FD
:1052A0007C91657C7A8974739271878492608C6E2C
:1052B0008B6788A46C82779B69877A8A6D898D74E5
:1052C000728B7E6F9778826E95798E6399786490F1
:1052D0008B8976A0648965917A6D7C8E7D7C9462E1
:1052E000857C987D85818C767078727F85848791A6
:1052F0006E867E877B827C8A826C847C81829679B2
:105300007F79808873836F7A83828880938A7F7B9A
:105310007F69787F83856E96818B78827E758083A6
:1053200076688C7D8A7F917D6C8A847C868D82589C
:105330008472767C84A177897A8C6E87757677867D
:105340007D7D8C8094777E837D60907A8C807C7E5E
:1053500076827E828B8F7C78757B669A6A8B81964B
:105360007F708A77865B9A6983799A857F96778B37
:10537000637E7479799E808C87788A6B716A868B5C
:105380009A8B7D936D6B876581928A82807481840C
:10539000629E75788D887C8083768B6384936C9114
:1053A000907C7A6C867485699381799A837E708902
:1053B000689C69937B758673816095789C7F837206
:1053C00084767B8D6196759A847A7D847A7B7B79ED
:1053D0007A789475987697797C7A757E7A8D7196BD
:1053E00070966B8C8478826985688E7F8B78847EDA
:1053F0008777847E698D7390718B8475797B8D73CB
:10540000808D8A72848984857D94616D7D898F8089
:10541000996F837A7D74788486867E916D917D8084
:105420007D708E6D9779807D7C876E8B86776C9290
:105430007F877879887F7F7E7E808E718683766B8A
:105440009C6E8A7F73975A89858B6BAA7485867345
:105450008A6389729157987E7B9D827E7A6873A554
:105460006F898E7E7F7B6C8A72848D8E6E70896A66
:1054700091799874878A8C826E7F6E767E93799B01
:1054800079877F6568768B9590888372847287743C
:105490008C7E82827B837F7C8286627F80809096F6
:1054A0008086777C74687E8B7888926DA16B847619
:1054B00072866D7F7F987E9E7688787382677C780F
:1054C00099827C8D7B8077777E718D8388878D82B2
:1054D0007B8C677F6E748C788486967E866C857FE5
:1054E0006790738A75958B8275768E7774778B75D6
:1054F000807B7C858888958877796B6E8B6E979991
:105500006697647D6D7B7B8C9473956E8C80816FC8
:105510008570738B6F96977B9579728069837F8D89
:1055200076986F7E74788C7E897A9477836D88778D
:10553000816E7D867F8E90876A8A72896886838A6B
:10554000838C7F7A8A6387717E748F6D968A7A9B4B
:10555000647C777F828880818E737B7C73937B846D
:105560007C8C777C84807F659D748B8282917E7336
:1055700076806B7E8284917F778F767B7E817E8C36
:105580007783836F8876848679758D857C8A697C3C
:105590008974838D83808D70976E6C818485708F04
:1055A000799761878C717486908384658D82787E0B
:1055B0008D7A816F858770799184759D65957A6FF5
:1055C0007D827A90906A9D7774737A738A798A95CE
:1055D000728687867E6C6B91827F888C7D7B747CE3
:1055E000767784908F758079947C70798E747386C9
:1055F00084807E8C847D639979837989857E8169B5
:105600008E668E798285927C8385638D7A817E79A0
:105610007E877F8D787086807B828884897484758C
:105620007178878D898D738F647D777B748399768C
:105630009C6E906F7E7E7E77818E78936F8F79706F
:10564000748A748882908B75857B786A976F95725F
:10565000858D846C748A689070917690848F826C4A
:105660007E6B8B7D7B7D95728884837F6F79758659
:10567000818E888A778D6C797F758881887C7D7929
:10568000996E7B7A7F7F85818593748C797D737524
:105690007B9170818D8281768981836F91747F7D0A
:1056A000857D8D80768F6A88658C85916E8D8C73F3
:1056B0007F699A718B7692707981808C7A89748EE9
:1056C0006C847D8D707D8384877D9378856B7A78FB
:1056D0007C7597808E81798288856B7E7295648DCA
:1056E000749C74848E70816F917696549C728281C2
:1056F00085847C8A6693599C778C7D7D7984827DB4
:105700008E7894727B668D78897A907A7F7981968B
:10571000699571916C7B72927A7E8E8289698C72A6
:105720008A7684788F77818D768A747C7F836D9A70
:10573000708E7D6C847A7D7E9471A36C8778887975
:105740006E8C729A67907A84778B81748070947C67
:10575000867B8D76827C7C82888577856D777F8657
:105760007393799A856E857B737886719968977A39
:10577000817D8087788C6493799668807B7E7E7C3F
:105780008B7F9073916A88688E807B7E8289799501
:10579000718C71856F88738E8B80827B7874926D2B
:1057A0009470937D8073947570916B8D6B968097D8
:1057B000717D7977837B86838376906E897B877012
:1057C0008E7578847B927A887A906B8579826E83E5
:1057D000837B8B7590767F7A8D6D85877A968072C4
:1057E000857B6F8175878487808F737C8380896FC9
:1057F0007C7F907588807E8D767F6E7E7F85817BB5
:105800008D7B8889836581898373778F7888779783
:105810006D7D807E7D7B8884956C8F71757D7985AB
:105820008A8A807C7B8280707B8579877E8A818969
:105830007E91756E7E797A7A8974977F8182827F74
:105840007E7184826D887F847F8D828975757B7C73
:1058500072938281956D7D77827691738C80738B44
:10586000867E73896E8E737E8D887683877373814F
:1058700083788A78987E847B757D797B7D8C7A8B22
:105880007C82857D7F7E8A68858279817E85868B14
:105890006E936E827D7B7D897D739A69888083801B
:1058A000896E78877C868D82827E717D77737C9B02
:1058B000758F738D7E7881807C609A6A94849575EB
:1058C000857D617F6C936F8E7D9D768382799071EB
:1058D000707B85788E7B937E777C85727C89907ACD
:1058E000828181806A8F728B818A758B7B768971C8
:1058F0008570947D867A8C83788573798B877185A2
:10590000748B7A898379747F916E857E8081867CA1
:105910007C8D70857B7C80827C8B8A6B8776867899
:1059200090718982768F7C7A73916898718291796F
:10593000778A7E6D8D758A7B83788E708D7D867F6C
:10594000777A858F6290658E729476997C7D8D686A
:1059500085668E6FA1698B778C88748B6992668D52
:105960007F837A8E8378915E8C827A827F887E852F
:1059700077877A808173817F8E798A7B817E768733
:105980006D749292708F7C77897087776A8C7F8331
:10599000828E6E928B6F7C79826C977A8A77808FF9
:1059A00082757483778B8A70838B7690757B738C0A
:1059B0008381797F8D837B6E886D9C777D7A9373ED
:1059C00088807A8C6B9A5F8966947D8A778C8979D6
:1059D0008C678568866BA26F927793866E846698D3
:1059E000638C70937C8B7E7A886D927A83778A7DC4
:1059F00080787F87867E7F797E8F707F86758980AD
:105A00007D8A73798193668F887791737979867AA5
:105A1000867B80837B8D838B67848C658774838F83
:105A20007882946A708A878277817E956C80897784
:105A3000867B8778817B8A7D748C767F7E84858760
:105A400086708E6C87776B95799A6E8C75827B7E6B
:105A500086798576916393718281907A8495648F3B
:105A6000657E788775967B7A907C8D6B876B857960
:105A70007F848A848B7C718A63857D93798390731C
:105A8000896F7A7C97737F856F927493767A7C8026
:105A900082798D778C7B7E827681788488837F7D06
:105AA0007B85836F8D787D8483836E868982678C06
:105AB0007F7B92817F728374897183887C887F8ADF
:105AC0006F8B7C75857588887E7981857C7E7B88E7
:105AD00080827A91776998747B7E808489798188C5
